:020000040000fa
:080000000001040000000000f3
:020000040000fa
:100200002fa020000eff20000e018800000000003b
:100210000c000700e0e523000100200011000700aa
:10022000000020000000e000020032000000020098
:100230000000000012220200000000000040da006e
:100240000000fe004440a900401020000000e00033
:100250000300320000002000a00188004440a800f4
:100260000000060091018800800078000000eb008b
:1002700015003700e280400032a0b4009101ba00be
:10028000e280400032a0b4009102ba00e280400057
:1002900032a0b4000002eb00472bde00f507b200ed
:1002a000602ce10004003a000059eb008301e900f2
:1002b000fdff3e00040037006128e100010032002c
:1002c0000082eb00040007001101ba000200e00008
:1002d000e8ff3a00000006003159ba008301e90046
:1002e0000c0032002159ba008301e90008003200f5
:1002f0000400e00003003a00e280400032a0b400b5
:10030000f5ff370011d9ba008301e900faff3a007e
:100310008100e800e180400032a0b4000000060047
:100320003200f800910188008002780062004000ed
:10033000e08048003549ba003204e0000410a7000c
:10034000100032008301e9000e0032002549ba0096
:100350003204e0000410a7000a0032008301e90023
:10036000080032000408a300eeff320015c9ba00ed
:100370003204e0000410a700020032008301e9000b
:10038000e8ff3a003200f900000006003200f800f1
:10039000910188000008bb00410424006210e100c4
:1003a00004003200000220000010e1000a003a00c0
:1003b00051042400013b88000500fc005105200089
:1003c000313b8800a10a2000313b880061e7a8008a
:1003d00000000000000000003200f90000000600ec
:1003e0003200f80060042400003b8800f2ff370070
:1003f0003200f8009101880041002400013b880090
:100400000208bb00ecff37003200f80091018800c1
:1004100051002400013b8800030120003218bb007a
:100420008301e900fdff3a00e3ff3700020ab9004b
:10043000001bb9000200b8008100420081004300a7
:1004400000000600889fbe008a9fbe00010578005c
:100450000100e0000400350008003c000000e0005e
:10046000200032000500370060001000e080180016
:1004700002003b0001f02c001a0037000004be000f
:100480006011b8006b0920000982cf00020039001a
:100490000882cf000441b000694252000e003200d1
:1004a00008003b0082817100610164008904d10071
:1004b0000884d3008b05e8000442e800f9ff3a0005
:1004c000050037000804440089844c008b05e900ce
:1004d0000442e900fbff3a00190107000af0a700f7
:1004e00001f0a0004f05be004f04be000000060052
:1004f00003f0a200889fbe008a9fbe008c1f780078
:10050000350107003c0133006450e1004f00320028
:100510006420e1005200320003826c0007003b00bf
:100520000905d0000306d000820f54000c065d00c0
:1005300002003900020032008901780003067800c9
:100540008582550004003d000003fd008103fd008d
:100550008502ea008b854200840f720002003b0096
:1005600060001000e08018006011b8000005eb008a
:100570007a28e1000a00390006007800c75ddd0036
:10058000f707b200878075002d0037008281710067
:100590000a017800610560008180d1000080d300ed
:1005a0008502e900f9ff3b0006044000878448000b
:1005b00002003b0060041400e0841c000988a300d2
:1005c000070032008a81710082817100610164003c
:1005d0008904d1000884d3008b05e8001700370098
:1005e0000978a30013003a000b00e0001300340068
:1005f0008b05e9000804440089844c000a44740017
:100600000978a3000d003a000b00e0000700340059
:100610008b05e9000804440089844c0001003a007d
:100620000b0020000978a300f7ff32000001eb0067
:1006300002003700828171000a017800c0000700c3
:100640000cf0a70001f0a000f40037006420e100e6
:1006500002003a00838f6c00f40033000801be00f2
:100660000200be00ed003700889fbe008a9fbe00da
:100670008c1f7800d8000700df00330003866c0071
:100680006450e100240032006420e10027003200c1
:100690006150e100220032006120e10021003200bf
:1006a0008b854200eb07b1000134b800003ab80076
:1006b0000804420089844a00013ab8000030b800ba
:1006c0008880400009014a00040033000000400017
:1006d00081804800020149008b05e900c909dd005d
:1006e000830170000100320013002000c814de00f6
:1006f0004814dd004709de001200b200c808de0021
:10070000088470008e00070001f0a1000cf0a70023
:1007100001f0a000c10037006120e100c3003200f9
:100720000801be000200be00f7ff37006150e10083
:10073000fcff3a00bd003700889fbe008a9fbe00c4
:100740008c1f7800a4000700ab00330003866c0008
:100750006450e1002e0032006420e10033003200da
:100760006150e1002f0032006120e10031003200d1
:1007700085855500eb07b000090020000804200023
:10078000050037000804440089844c000a00310049
:100790000603430087834b000001530081815b0007
:1007a000f8ff33000203be000800a0000804440064
:1007b00089844c00f6ff3900c639dd0083017300df
:1007c00001003200130020008904d1000884d30006
:1007d0000998a300050032000800a7000300a0004c
:1007e0008904d1000884d3008b05e8008904d10076
:1007f0000884d3000001eb000281d2005000070002
:1008000001f0a1000cf0a70001f0a0008300370068
:100810006420e100850032000801be000200be0035
:10082000f7ff37006120e100800032006000b8006f
:10083000f3ff37000000200001f82700f0ff370029
:100840000001be007c0007000470a70003f0a100b7
:100850006509b100160032000d0035006828e1007e
:1008600006003500f0ff2f00f1ff27000300e00035
:1008700013003b00010028000000050000004000bc
:10088000818048008502e900fcff3a00080037003b
:10089000f88f420002003c008000eb0000000500e1
:1008a0008100d1000080d3008502e800fcff3a00ff
:1008b0000300e00002003b0060001000e080180030
:1008c000000006000001eb0070003700f4ff2f006d
:1008d000d70037000001be00570007000470a700d2
:1008e00003f0a10003f8a30013003a006509b1006a
:1008f00010003200090035006928e10002003500cf
:100900000100280000000500000040008180480030
:100910008502e900fcff3a0000000600f88f420063
:10092000050035008100d1000080d3008502e80079
:10093000fcff3a00000006008000eb00000005000c
:1009400081002000618055000b003d000b0020005d
:1009500061fe2f000100e1001d0034008281710062
:10096000610164008904d1000884d3000000e8001c
:10097000faff3a007100200061006400030070007b
:10098000020060000900320061044400e0844c0071
:100990000988a500050032008b05e8006808e10021
:1009a00002003a008904d1000884d300f20f20002d
:1009b0000258e10005003d00c75ddd00f907b20007
:1009c0008980750008007800000006000bf82700f9
:1009d0008b007800000005000004be001600070030
:1009e0000003be000405be000200be0012000700a6
:1009f000844f7500000006000200be006450e10054
:100a0000050036006420e100020036000968a300fa
:100a100001003a000800be000160a0004f06780007
:100a20004f05be004f04be0000000600f0ff2f007f
:100a3000f1ff2700f9ff3700c70ade00f107b20017
:100a4000f50fb20008003200e1cf42000200320090
:100a50000170a00024000500810f70000100320029
:100a60000408050044000500810f700002003a00f0
:100a7000140005008502e9000000400081c0480024
:100a8000fcff3b000170a00024000500889fbe0011
:100a90008a9fbe008c9fbe00820578000004be00c5
:100aa000e5ff07000800be006420e10007003900f0
:100ab00002003a00f1ff2700f0ff2f000160a000c4
:100ac0001202200002508800550037006120e1002a
:100ad00003003a000b00a70001f823005000370084
:100ae00001f0a10002002100936424006b000700c4
:100af0000800be0004003500b2fd2000930c240065
:100b0000680007000004be000005eb000b00a60013
:100b10004f0dde0001f0a1000004be0032982f004e
:100b200023ea2300d0fe07000001eb0003f02300be
:100b30000b00a70003f823006efe070040ff07002c
:100b40000000a7000a00a2003efe07000b00e00024
:100b5000030032000200200003f0230064fe0700bf
:100b600001f0a2000006be00020020009304240051
:100b7000bdfe07000801be005efe0700809fbe00ac
:100b80000c00be0022a22a00d3a72300b6fe070055
:100b90004f01be0057fe07000004be0001f0a10097
:100ba00002002000039823003c0007000800be005c
:100bb000190035000001be00abfe07000006be00b4
:100bc000b2c52900e3622300a7fe070022222b0002
:100bd000f3942b0047fe07000c01be00a2fe0700a5
:100be000e273280083c0230042fe07000c01be0010
:100bf0009dfe070042aa2a00a3e22b003dfe07004b
:100c00000c01be0098fe07000801be0096fe07001a
:100c10000801be0037fe07000a00a70001f0a2008d
:100c20004f06be004f05be004f04be000000060088
:100c3000889fbe008a9fbe00841f780066ff070061
:100c40004f00780011003300f0ff2f00838f6c00fd
:100c500006003b00040565000a00a70008003700f5
:100c600009f0a6001000200008003700820f540091
:100c7000838f5c00030039001000200001003e005b
:100c80000000200009f0a7000000ea004f05be00a8
:100c90004f04be000000e000000006001400200029
:100ca000e3ff37000400200000003700889fbe00eb
:100cb0008a9fbe008c1f78004f26dd0046ff07008c
:100cc0004dff33006120e100430032006250e1003b
:100cd00041003e003e0039006420e1003c0032004b
:100ce000058255000f003b000402e80038003a007e
:100cf000800f5300818f5b00350034000800be0078
:100d000003f0a10001f0a60003f0a0000cf0a70082
:100d1000f8fd070041ff37000603430087834b00bf
:100d20000c4646000005530081855b00020033003d
:100d30000a03be000c00a0000402e900f6ff3b001d
:100d4000850578000602430087824b0004003a00c4
:100d50006000b80009f0a70001f0a0002fff3700e5
:100d60000002520081825a000704e00004003300b0
:100d70000603430087834b008b05e900faff370029
:100d8000090578000604be000203be006011b80029
:100d9000ebfe0700e00f5200e08f5a00070035001d
:100da00002003c000c08a300040032000601be0053
:100db00003f0a0000cf0a700cefd07000a85680034
:100dc00001f0a1000af0a70001f0a00013ff370016
:100dd0000800be0011ff3700100220000cf0a60032
:100de0000050880011ff37006022b8000602200082
:100df0000000d0008180d2000482d2008582d2001f
:100e00000000a0000202520083825a000300310059
:100e10000202420083824a000000a1000603e900aa
:100e2000f3ff3a0000000600efff07000400be00d9
:100e300000000600811f78000100e00002003d0074
:100e400060001000e08018000300e00002003d0098
:100e500060011100e0811900f3ff07004f00e0007e
:100e600002003b0060001000e08018000000060057
:100e70008001eb0002003700817178008301e800f7
:100e8000828f5100fcff3a000000060080017800cc
:100e900000017800010037000201e8001204e000c0
:100ea000fdff3a0031407800005978000004e0006e
:100eb000fcff3a000300780000000600889fbe0097
:100ec0008a9fbe008c9fbe00800478000205be0091
:100ed000010478000200be006146b9000c01be00aa
:100ee000c1ff07000901e800e00f5000e08f580043
:100ef0000200320082047800f7ff37000049eb005f
:100f00000c01be000a00be00c7ff070000447800c5
:100f10000c01be000a00be00b3ff07000005be00c2
:100f2000e94f5400010034006744440002c3b30099
:100f300082544400e00f5000e08f5800f0ff3a0068
:100f4000090078004f06be004f05be004f04be00ea
:100f500000000600881f780000047800e00f5100b0
:100f6000e08f5900020035000002780005003700cc
:100f700000027800d0c2b300005a7800600111006e
:100f8000e081190004007800ccff07000800780019
:100f90004f04780000000600800078003004e00074
:100fa000feff3a00010050000000e90000000600ca
:100fb000810178000002eb000b003700e44078006c
:100fc0000104e000030032000402e80093cf500067
:100fd000040032008180fb001380fb000080500081
:100fe000000006008301e800820f5200f3ff3a0080
:100ff000000005000001780000c2b30001003700c6
:101000000201e8009240780080cf5000fcff3200df
:10101000e9cf5000faff3200d0c2b30080cf5000b9
:1010200003003a000201e80014c0b30005003700d5
:101030000042eb00b0c2b30080cf500001003a0084
:101040000201e8008000eb0005fd2f0004003700de
:101050006a08b90000804100850040000201e800f4
:101060009201fb0005804100e90f5000f8ff3600b7
:101070000404e000010032008100ea000100780071
:101080000000060080017800d01620000018b8008b
:10109000421ade0004024000e082480042062000be
:1010a000110009008281d80000017800020252007c
:1010b000e0825a0002192000110009008281d80044
:1010c0008000fd0001004200e0804a0000000600b0
:1010d000889fbe00000378000102e80010bf2000d6
:1010e00000a2b90010442f00040040004406200074
:1010f000811f7800110009000480d800cf0078001b
:10110000000141006114b800e18f50001400360066
:1011100002192000110009000283d80001007800a4
:101120000000e000070032006300630008003a009e
:10113000110009000483d8008000fd000000e000d9
:1011400003003200100020000100200002003700e0
:1011500020002000010020000004540081845c0075
:101160000600e900c7ff070008004000898048002a
:101170004f04be0000000600889fbe008a9fbe008c
:101180008c9fbe0000067800d0069000a0fb2f00c8
:10119000008046000081eb008081eb0021032000ed
:1011a000810f500033003e00120020008000eb0051
:1011b000207b2000c6ff07000005be00c07620008f
:1011c000008046003c019000cc009000c0ff07006a
:1011d0000004be000a0550008b85580072002000f4
:1011e000030020000a00be0012ff07006400400058
:1011f000e080480072002000030020000dff07007f
:1012000060069800b0762000008046009dff070031
:10121000000454000804e9007806980082012000c8
:10122000030020000a00be0080fc07002c01900093
:10123000cf91de000000410081804900c203200000
:101240000300200079fc07001c019000cf91de0014
:101250000000410081804900c203200003002000fb
:1012600072fc07001c017800cf91de0000014100f4
:10127000818149000200be004f06be004f05be003e
:101280004f04be0000000600800278008001780054
:10129000010037008301e8001304e000fdff3a007d
:1012a0000002eb00820f52000600320064c078009a
:1012b000805978000402e8000004e00002003200d7
:1012c000f8ff37008049eb000500780000000600b9
:020000040000fa
:0200000401f009
:04000000eeff00000f
:020000040000fa
:0200000401f009
:04000400ff7f00007a
:020000040000fa
:0200000401f009
:04000800cfff000026
:020000040000fa
:0200000401f009
:04001400ffff0000ea
:020000040000fa
:10000800fa3e0000fa3e0000fa3e0000fa3e000008
:10001800fa3e0000fa3e0000fa3e0000fa3e0000f8
:10002800981c000020200000fa3e0000001e00007e
:10003800b0200000fa3e0000fa3e00000e2000004a
:10004800fa3e00008c3a0000fa3e0000fa3e00003a
:10005800fa3e0000fa3e0000fa3e0000fa3e0000b8
:10006800fa3e0000fa3e0000fa3e0000fa3e0000a8
:10007800fa3e0000fa3e0000fa3e0000fa3e000098
:10008800d03a0000fa3e0000fa3e0000fa3e0000b6
:10009800fa3e0000fa3e0000fa3e0000fa3e000078
:1000a800fa3e0000fa3e0000fa3e0000fa3e000068
:1000b800fa3e0000fa3e0000fa3e0000fa3e000058
:1000c800fa3e0000fa3e0000fa3e0000fa3e000048
:1000d800fa3e0000fa3e0000fa3e0000fa3e000038
:1000e800fa3e0000fa3e0000fa3e0000fa3e000028
:0800f800fa3e0000fa3e000090
:020000040000fa
:10010800fa3e0000fa3e0000fa3e0000fa3e000007
:10011800fa3e0000fa3e0000fa3e0000fa3e0000f7
:10012800981c000020200000fa3e0000001e00007d
:10013800b0200000fa3e0000fa3e00000e20000049
:10014800fa3e00008c3a0000fa3e0000fa3e000039
:10015800fa3e0000fa3e0000fa3e0000fa3e0000b7
:10016800fa3e0000fa3e0000fa3e0000fa3e0000a7
:10017800fa3e0000fa3e0000fa3e0000fa3e000097
:10018800d03a0000fa3e0000fa3e0000fa3e0000b5
:10019800fa3e0000fa3e0000fa3e0000fa3e000077
:1001a800fa3e0000fa3e0000fa3e0000fa3e000067
:1001b800fa3e0000fa3e0000fa3e0000fa3e000057
:1001c800fa3e0000fa3e0000fa3e0000fa3e000047
:1001d800fa3e0000fa3e0000fa3e0000fa3e000037
:1001e800fa3e0000fa3e0000fa3e0000fa3e000027
:0801f800fa3e0000fa3e00008f
:020000040000fa
:1012d000475400006f730000504d0000552000007f
:1012e00041000000504800007a0000002d2c000052
:1012f000002a00002c0000002b2c0000002c000015
:10130000004d0000312c00004f4600002c00000072
:101310005265000073650000742100000052000057
:10132000656200006f6f00007465000064210000ba
:101330000046000061630000746f000072790000d5
:101340002044000065660000617500006c740000b8
:101350007321000000530000656e0000736f0000f1
:1013600072200000526500007365000074210000c7
:1013700000470000546f0000735000004d550000fe
:1013800021200000536500006e7300006f720000a2
:101390002049000044230000200000002c20000011
:1013a000534e000023200000002c000020520000bb
:1013b00065760000200000002e000000477200004b
:1013c0006964000054720000616b0000504d000021
:1013d00055210000002c000020530000656e000025
:1013e000736f0000722000004944000023200000b9
:1013f000002c00002046000057200000526500002d
:1014000076200000002e0000300000002c2000009c
:101410006473000050490000433300003046000070
:1014200033300000313300002c2000000020000089
:10143000487a000000500000487a0000436600002f
:1014400067000000436f00006e66000069670000df
:1014500020530000617600006564000020740000e5
:101460006f200000504d0000552100000043000097
:101470006f6e000066690000672000004661000092
:10148000696c000065640000210000002447000032
:10149000505200004d4300002c000000202d0000a1
:1014a000204700005053000020540000696d0000e8
:1014b000653a000020000000202d000020500000b0
:1014c0004d550000205300004f4300003a2000001b
:0814d000002000002b000000c9
:020000040000fa
:1014d8000800fa00604798000000eb002007980019
:1014e800d1e2a80000c02f00f1072000008fbe0045
:1014f8000002eb0003022000228b20001e00be0029
:1015080085fb070002022000030020003e00410086
:10151800ae8049000002eb0003022000228d20006b
:101528007dfb070004042000050020003e00420067
:10153800ae804a000002eb0003022000228f200048
:1015480075fb0700b2c8bf008080fb00b3c8bf00ae
:101558000080fb004800dd0001007000800078007a
:10156800b0498000808f500003003a006e40900020
:10157800e24f500045013a00b2498000f00f2000c8
:1015880080006100b2c8bf00604060000140700088
:10159800b2e8b700c810de00b3c8bf006040600002
:1015a80001407000b3e8b700c2498000f00f200086
:1015b80080006100b4c8bf00604060000140700056
:1015c800b4e8b700c810de00b5c8bf0060406000ce
:1015d80001407000b5e8b700b6c8bf0060406000c1
:1015e800b6e8b700b7c8bf0060406000b7e8b7000a
:1015f8000040eb00b8e8b700c0c3b300b9e8b700d3
:10160800bac8bf00604060000034a000bae8b70064
:10161800bbc8bf0060406000bbe8b700bcc8bf00e3
:1016280060406000bce8b700bdc8bf006040600013
:10163800bde8b700bec8bf0060406000bee8b700a4
:10164800bfc8bf0060406000bfe8b700c0c8bf00a7
:1016580060406000c0e8b700c1c8bf0060406000db
:10166800c1e8b700c2c8bf006040600021c2b30033
:1016780001407000c2e8b700c3c8bf006040600006
:10168800c3e8b700c4c8bf0060406000e1c2b3004f
:1016980001407000c4e8b700c5c8bf0060406000e2
:1016a80081c7b30001407000c5e8b700c6c8bf00d5
:1016b8006040600031c6b30001407000c6e8b70062
:1016c800c7c8bf006040600001cfb3000140700090
:1016d800c7e8b700c8c8bf006040600021c5b300b4
:1016e80001407000c8e8b700c9c8bf00604060008a
:1016f80021cab30001407000c9e8b700cac8bf00da
:10170800604060005040b300cae8b700cbc8bf00d3
:1017180060406000cbe8b700ccc8bf006040600004
:10172800a040b300cce8b700cdc8bf00604060005f
:10173800d040b300cde8b700cec8bf00604060001d
:10174800c040b300cee8b700cfc8bf00604060001b
:10175800cfe8b700d0c8bf006040600081c3b300c5
:1017680001407000d0e8b700d1c8bf0060406000f9
:101778000004a000d1e8b700020220001e00be004d
:1017880000fb070061c7bf0001c8b300014060004b
:101798000004e000fbff3a00228b20001e00be0080
:1017a80017fb070061c7bf0001c8b3000140600014
:1017b8000004e000fbff3a000040eb00d2e8b7006d
:1017c8000040eb00d3e8b700d4c8bf006040600019
:1017d8006040b300d4e8b700d5c8bf0060406000df
:1017e800d5e8b700d6c8bf0060406000d6e8b700ab
:1017f800d7c8bf0060406000d7e8b700d8c8bf00ae
:1018080060406000d8e8b700d9c8bf0060406000f9
:10181800d9e8b700dac8bf0060406000b1c7b300bc
:1018280001407000dae8b700dbc8bf006040600024
:1018380021c9b30001407000dbe8b700dcc8bf0075
:101848006040600001c2b30001407000dce8b700ee
:10185800ddc8bf0060406000dde8b700dec8bf003b
:101868006040600001c8b30001407000dee8b700c6
:10187800dfc8bf0060406000c040b300dfe8b700c9
:10188800e0c8bf0060406000e0e8b700e1c8bf0002
:1018980060406000e1e8b7000000eb002007980016
:1018a8000d0037002e00900000004000f0004000be
:1018b800208d2000008040009042780060c86200bf
:1018c80090409000e0c06000114098002e00900009
:1018d8000000e800200798002e009000e70f500055
:1018e800f0ff340002022000030020003e00410007
:1018f800ae80490002022000a2fa070061c7bf00bb
:1019080001c8b300014060000004e000fbff3a009a
:10191800228d200004022000050020003e00420025
:10192800ae804a00b6fa070061c7bf0001c8b3001d
:10193800014060000004e000fbff3a00f2c8bf006d
:101948006040600001c4b30001407000f2e8b700d5
:10195800f3c8bf006040600021c4b30001407000bc
:10196800f3e8b700f4c8bf0060406000f040b3007f
:10197800f4e8b700f5c8bf0060406000f5e8b700bc
:10198800608f2000020120008000eb0036fd070078
:10199800658f20008096280009000900b05a780059
:1019a80006c9bf0060406000a040b30006e9b70068
:1019b80007c9bf006040600007e9b70080902000b9
:1019c8008040eb00014878000000e8008040eb0010
:1019d800014878000000e8008040eb0001487800ea
:1019e8000000e8008040eb00014878000000e800b3
:1019f8008040eb00014878000000e8008040eb00e0
:101a0800014878000000e8008040eb0001487800b9
:101a18000000e8008040eb00014878000000e80082
:101a28008040eb00014878000000e8008040eb00af
:101a38000148780002042000030020003e00410015
:101a4800ae804900020220004efa070061c7bf00bd
:101a580001c8b300014060000004e000fbff3a0049
:101a6800228f200004042000050020003e004200d0
:101a7800ae804a0062fa070061c7bf0001c8b30020
:101a8800014060000004e000fbff3a000002eb00a8
:101a980003022000228b20001e00be001efa070051
:101aa80002022000030020003e004100ae804900f1
:101ab8000002eb0003022000228d200016fa070026
:101ac80004042000050020003e004200ae804a00c9
:101ad8000002eb0003022000228f20000efa07000c
:101ae800d1e2a9000080fa00000006000400fa0014
:101af800d1e2a800b2498000f00f20008000610008
:101b0800b2c8bf006040600001407000b2e8b70092
:101b1800c810de00b3c8bf0060406000014070001c
:101b2800b3e8b700b8c8bf00e24f50000200360063
:101b380010c0b300b8e8b70000c02f00f1072000bc
:101b4800008fbe00020220001e00be000dfa070032
:101b580061c7bf0001c8b300014060000004e00095
:101b6800fbff3a00228b20001e00be0024fa07006b
:101b780061c7bf0001c8b300014060000004e00075
:101b8800fbff3a0002022000030020003e00410053
:101b9800ae80490002022000faf9070061c7bf00c1
:101ba80001c8b300014060000004e000fbff3a00f8
:101bb800228d200004022000050020003e00420083
:101bc800ae804a000efa070061c7bf0001c8b30023
:101bd800014060000004e000fbff3a00020420001e
:101be800030020003e004100ae80490002022000b0
:101bf800e4f9070061c7bf0001c8b30001406000f5
:101c08000004e000fbff3a00228f200004042000bb
:101c1800050020003e004200ae804a00f8f90700a7
:101c280061c7bf0001c8b300014060000004e000c4
:101c3800fbff3a00d1e2a9000080fa00000006008c
:101c48000000fa00a1e2a9000080eb00401588001e
:101c5800dec2a800e0c2a900d302a800d502a900ec
:101c6800d322a800d522a900c602a800c802a9004c
:101c7800c622a800c822a900c642a800c842a900d6
:101c8800c662a800c862a900c682a800c882a900c6
:101c9800c6a2a800c8a2a900c6c2a800c8c2a900b6
:101ca800c6e2a800c8e2a900c702a900cb02a900a1
:101cb800c722a900cb22a900de82a800dea2a900c3
:101cc800cda2a900cdc2a800de42a800de62a9000c
:101cd800cde2a900d1e2a9000080fa0000000600c8
:101ce8000000fa008c00a9008e00a9008ee0a9006f
:101cf8008200a9008400a9004109200091407800d1
:101d080080cfb30000c060006040b30094e0b7002b
:101d18000080fa00000006000600fa0005e1a900ac
:101d28008c60a900d6c8bf008080fb00d7c8bf0060
:101d38000080fb004800dd000100700000088800fa
:101d48008460a9005109200091407800f0c8b300d0
:101d580000c0600001c5b3000140700095e0b70005
:101d680021088000f0fc2f00008060002008880017
:101d7800918b200091407800c0c3b30080cf500001
:101d880013013a00d4c8bf008080fb00d5c8bf004b
:101d98000080fb004800dd00010070006101b80010
:101da8000080eb008080eb00020140008381480046
:101db8001207980023079800d00120000100200096
:101dc8001e019000ae019000800f5100818f5900d4
:101dd800ed003e001e009000ae0090000060010083
:101de8001d0037002e003700400037005200370032
:101df8006400370075003700e3003700e200370061
:101e0800e100370084003700df0037009400370016
:101e1800dd003700dc003700a4003700da003700a7
:101e2800d9003700d8003700d7003700b200370094
:101e3800d5003700d4003700d3003700d200370070
:101e4800d1003700d0003700cf003700ce00370070
:101e5800cd003700ba003700dac8bf006040600024
:101e6800e1c4b30001407000dae8b700dbc8bf0086
:101e78006040600031ccb30001407000dbe8b7007f
:101e8800dcc8bf00604060000044a000dce8b70088
:101e9800ddc8bf0060406000dde8b7005a013700c8
:101ea800dac8bf006040600031cdb3000140700067
:101eb800dae8b700dbc8bf006040600001c3b300c8
:101ec80001407000dbe8b700dcc8bf00604060007c
:101ed80001c2b30001407000dce8b700ddc8bf00f4
:101ee80060406000dde8b70047013700dac8bf008e
:101ef80060406000d1c3b30001407000dae8b70069
:101f0800dbc8bf006040600091c4b30001407000ae
:101f1800dbe8b700dcc8bf006040600001c2b30066
:101f280001407000dce8b700ddc8bf006040600019
:101f3800dde8b70034013700dac8bf006040600050
:101f480071cab30001407000dae8b700dbc8bf000f
:101f58006040600011c6b30001407000dbe8b700c4
:101f6800dcc8bf006040600001c2b30001407000df
:101f7800dce8b700ddc8bf0060406000dde8b700fe
:101f880021013700dac8bf00604060001041b3008b
:101f9800dae8b700dbc8bf0060406000a1c7b30043
:101fa80001407000dbe8b700dcc8bf00604060009b
:101fb80001c2b30001407000dce8b700ddc8bf0013
:101fc80060406000dde8b7000f013700dac8bf00e5
:101fd80060406000b1c7b30001407000dae8b700a4
:101fe800dbc8bf006040600021c9b3000140700039
:101ff800dbe8b700dcc8bf006040600001c2b30086
:1020080001407000dce8b700ddc8bf006040600038
:10201800dde8b700fc003700dac8bf0060406000a8
:102028000034a000dae8b700dbc8bf0060406000f9
:10203800d1c3b30001407000dbe8b700dcc8bf00c3
:102048006040600001c3b30001407000dce8b700e5
:10205800ddc8bf0060406000dde8b700ea00370077
:10206800dac8bf0060406000d1c3b300014070000f
:10207800dae8b700dbc8bf006040600091c4b30075
:1020880001407000dbe8b700dcc8bf0060406000ba
:1020980001c3b30001407000dce8b700ddc8bf0031
:1020a80060406000dde8b700d7003700dac8bf003d
:1020b80060406000c1c8b30001407000dae8b700b2
:1020c800dbc8bf0060406000b1c5b30001407000cc
:1020d800dbe8b700dcc8bf006040600001c3b300a4
:1020e80001407000dce8b700ddc8bf006040600058
:1020f800dde8b700c4003700dac8bf006040600000
:102108001041b300dae8b700dbc8bf0060406000e8
:10211800a1c7b30001407000dbe8b700dcc8bf000e
:102128006040600001c3b30001407000dce8b70004
:10213800ddc8bf0060406000dde8b700b2003700ce
:10214800dac8bf0060406000a041b300dae8b70019
:10215800dbc8bf006040600071cbb3000140700075
:10216800dbe8b700dcc8bf006040600001c3b30013
:1021780001407000dce8b700ddc8bf0060406000c7
:10218800dde8b700a0003700dac8bf006040600093
:10219800a041b300dae8b700dbc8bf0060406000c8
:1021a80071cbb30001407000dbe8b700dcc8bf00aa
:1021b8006040600001c3b30001407000dce8b70074
:1021c800ddc8bf0060406000dde8b7008e00370062
:1021d800918b20009140780020c3b30080cf50003d
:1021e80089003a00d4c8bf008080fb00d5c8bf0072
:1021f8000080fb004800dd0001007000000f78003f
:102208009e007800e58f5000360032001e017800ed
:10221800e50f510007003e009e017800e18f510054
:102228000b0032001e007800e20f50001a00320046
:10223800640037009e007800ea8f50003c003200ae
:102248001e017800f90f51004c0032005d00370084
:10225800dac8bf0060406000f1c5b30001407000fb
:10226800dae8b700dbc8bf0060406000a1ceb30069
:1022780001407000dbe8b700dcc8bf0060406000c8
:102288000044a000dce8b700ddc8bf006040600083
:10229800dde8b7005c003700dac8bf0060406000c6
:1022a80071c9b30001407000dae8b700dbc8bf00ad
:1022b80060406000a1c3b30001407000dbe8b700d4
:1022c800dcc8bf006040600001c2b300014070007c
:1022d800dce8b700ddc8bf0060406000dde8b7009b
:1022e80049003700dac8bf0060406000f1cdb30094
:1022f80001407000dae8b700dbc8bf00604060004a
:1023080021c9b30001407000dbe8b700dcc8bf009a
:102318006040600001c2b30001407000dce8b70013
:10232800ddc8bf0060406000dde8b7003600370058
:10233800dac8bf0060406000d1c3b300014070003c
:10234800dae8b700dbc8bf006040600091c4b300a2
:1023580001407000dbe8b700dcc8bf0060406000e7
:1023680001c3b30001407000dce8b700ddc8bf005e
:1023780060406000dde8b70023003700dac8bf001e
:1023880060406000a041b300dae8b700dbc8bf00d6
:102398006040600071cbb30001407000dbe8b7001b
:1023a800dcc8bf006040600001c3b300014070009a
:1023b800dce8b700ddc8bf0060406000dde8b700ba
:1023c80011003700dac8bf0060406000a041b300c8
:1023d800dae8b700dbc8bf006040600071cbb3002b
:1023e80001407000dbe8b700dcc8bf006040600057
:1023f80001c3b30001407000dce8b700ddc8bf00ce
:1024080060406000dde8b700dac8bf008080fb00ec
:10241800dbc8bf000080fb004800dd000100700041
:1024280010088800dcc8bf008080fb00ddc8bf0042
:102438000080fb004800dd0001007000800078008b
:102448002008800000807000200888000000eb0051
:10245800504a88008c60a80005e1a8000080fa00b6
:10246800000006000000fa000000eb009008880059
:102478000000eb00100a88000000eb00300a88001a
:102488008c20a9008420a9008c80a9008480a90040
:10249800610920009140780080cfb30000c060003f
:1024a8006040b30096e0b7004109200091407800f1
:1024b800f0c8b30000c0600001c6b300014070005e
:1024c80094e0b70020002000300a880061922000c4
:1024d8000000eb0080087800619220000000eb000b
:1024e80090009800619220000000eb00a000980086
:1024f800619220000000eb00b0009800300020003e
:10250800100a8800e19220000000eb0080087800a3
:10251800e19220000000eb0090009800e19220007a
:102528000000eb00a0009800e19220000000eb0002
:10253800b0009800c6c8bf008080fb00c7c8bf00b5
:102548000080fb004800dd00010070007008880072
:10255800bec8bf008080fb00bfc8bf000080fb0072
:102568004800dd00010070005008880084e0a900e0
:102578000000eb00704a8800710920009140780043
:1025880000c7b30000c0700097e0b7008ce0a80057
:1025980013e1a8008c80a8008c20a8000080fa0015
:1025a800000006006600fa00881f7800006f980097
:1025b800bac8bf008080fb00bbc8bf000080fb001a
:1025c8004800dd00010070004300de00610060008b
:1025d8000004e00001003200d1e2a8000e007800fb
:1025e8006011b8000288be00640040006011b800a5
:1025f8000288be00640040006011b8000288be0076
:10260800640040006011b8000288be006400400009
:102618006011b8000288be00640040006011b80074
:102628000288be00640040006011b8000288be0045
:10263800640040006011b8000288be0064004000d9
:102648006011b8000288be00640040006011b80044
:102658000288be00219728000e00780009fa0700ba
:102668000e6890000004e00004003a00619728001a
:102678000e00780003fa07000a0037000e68900081
:10268800e14f500004003a00919728000e007800ae
:10269800fcf9070003003700c19728000e007800f6
:1026a800f8f90700804a8000914a80000001be00c6
:1026b80061004000e0804800804a8800914a880014
:1026c800e0962000a100200020fa07008000780092
:1026d8000e007800ebf90700988b2000184478006a
:1026e8000800fb00cf80de0054f707001037980081
:1026f800213798000804e00007003d000200200090
:10270800033824001e309000ae30900077f70700a1
:10271800103798002137980002002500337c2400e8
:102728001e309000ae309000cdf707000200250063
:10273800338c2400caf70700702f980001379800df
:10274800a09120001001be00522f9800632f98001e
:102758005e2a9000ee2a9000e00f5200e08f5a00a7
:10276800060035005e289000ee28900033f7070039
:10277800302f9800412f9800160037005e289000ef
:10278800610160006000b8000300200002007000d2
:10279800838070005e2a9000ee2a90008501d100a7
:1027a8000481d300020070008380700023f70700c3
:1027b800302f9800412f98003e299000ce29900094
:1027c8003e289000ce28900048f70700302f980048
:1027d800412f98003e299000ce2990007e28900035
:1027e8008e309000d2f70700004b8800114b88000c
:1027f800bcc8bf008080fb00bdc8bf000080fb00d4
:102808004800dd0001007000cf80de000bf70700f4
:10281800024b8000134b800034f70700004b880000
:10282800114b8800f19728000e00780095f90700f1
:10283800004b8000114b8000fff707000001be002d
:10284800e0962000a1002000c0f907008000780071
:102858000e0078008bf90700dec8bf008080fb00ff
:10286800dfc8bf000080fb004800dd0001007000e9
:10287800000478006140b900f0f60700102f9800b6
:10288800212f98000800e00007003d00020020000a
:10289800037824001e289000ae28900013f7070044
:1028a800102f9800212f9800184980006140b90026
:1028b800e2f6070070279800012f98000800e00052
:1028c80007003d0002002000037824007e209000cd
:1028d8008e28900005f7070070279800012f9800b0
:1028e800b2fd2000930424007e2090008e289000e2
:1028f8005bf707005027980061279800a0912000f7
:102908001001be0032279800432798003e2290000d
:10291800ce229000e00f5200e08f5a0006003500ea
:102928003e209000ce209000c4f6070010279800a3
:1029380021279800160037003e20900061016000b2
:102948006000b8000300200002007000838070005f
:102958003e229000ce2290008501d1000481d30050
:102968000200700083807000b4f6070010279800fa
:10297800212798001e219000ae2190001e20900073
:10298800ae209000d9f6070010279800212798005c
:102998001e219000ae2190005e209000ee20900055
:1029a80063f70700c5f707000001be001e28900066
:1029b800ae2890005ef70700204b8800314b880056
:1029c800f19728000e0078002ef90700204b8000b0
:1029d800314b800098f707000001be00e096200008
:1029e800a100200059f90700800078000e00780047
:1029f80024f90700209120001001be00721f9800e2
:102a0800032798007e1a90008e229000e00f520053
:102a1800e08f5a00060035007e1890008e20900046
:102a280086f60700501f9800611f980016003700af
:102a38007e189000610160006000b800030020006b
:102a480002007000838070007e1a90008e22900031
:102a58008501d1000481d3000200700083807000da
:102a680076f60700501f9800611f98005e199000c5
:102a7800ee1990005e189000ee1890009bf6070083
:102a8800501f9800611f9800184980006140b900e4
:102a98006af60700301f9800411f98000800e00000
:102aa80007003d0002002000037824003e18900033
:102ab800ce1890008df60700301f9800411f98002f
:102ac8000200200003002c003e189000ce18900051
:102ad80017f707000001be005e189000ee1890007e
:102ae80082f60700101f9800211f9800a09120006f
:102af8001001be0072179800031f98007e12900004
:102b08008e1a9000e00f5200e08f5a000600350040
:102b18007e1090008e18900048f607005017980015
:102b280061179800160037007e1090006101600060
:102b38006000b8000300200002007000838070006d
:102b48007e1290008e1a90008501d1000481d30076
:102b5800020070008380700038f607005017980054
:102b6800611798005e119000ee1190005e109000c1
:102b7800ee1090005df60700501798006117980056
:102b88005e119000ee1190001e189000ae18900093
:102b9800e7f6070002002000433b2400b0f60700d8
:102ba800404b8800514b8800404b8000514b8000bf
:102bb80002002000432b24004bf60700404b8800fe
:102bc800514b8800404b8000514b80000200200090
:102bd800433324003bf707000000e00001003c00fd
:102be80007003700404b8000514b80000200200056
:102bf800433b24003cf60700404b8800514b8800bb
:102c0800404b8000514b800002002000a347240065
:102c180093f60700404b8800514b8800f197280035
:102c28000e00780097f80700404b8000514b800059
:102c380001f707000001be00e0962000a100200077
:102c4800c2f80700800078000e0078008df80700b1
:102c5800f19728000e0078008af80700a04a800043
:102c6800b14a80000001be00e0962000a1002000cb
:102c7800b6f80700800078000e00780081f8070099
:102c8800f19728000e0078007ef80700c04a8000ff
:102c9800d14a80000001be00e0962000a10020007b
:102ca800aaf80700800078000e00780075f8070081
:102cb800f19728000e00780072f807000e007800df
:102cc800e21207000e007800b1f8070080007800d3
:102cd8000e007800a9060700604b8800604b800052
:102ce8006101b800e09620000101200097f8070074
:102cf800d61207008d060700bac8bf008080fb0007
:102d0800bbc8bf000080fb004800dd000100700068
:102d18004300de00610060000004e00001003200b2
:102d2800d1e2a9004f0478000080fa0000000600f4
:102d38008000fa00881f7800206f9800bac8bf008a
:102d48008080fb00bbc8bf000080fb004800dd009e
:102d5800010070004300de00610060000004e00034
:102d680001003200d1e2a8000e80e8006011b8002e
:102d78000288be00640040006011b8000288be00ee
:102d8800640040006011b8000288be006400400082
:102d98006011b8000288be00640040006011b800ed
:102da8000288be00640040006011b8000288be00be
:102db800640040006011b8000288be006400400052
:102dc8006011b8000288be00640040006011b800bd
:102dd8000288be000000eb00000f78008e80e8003b
:102de800a0cab300804878008e80e80010c0b30005
:102df800904098008e80e8000040eb00a0409800ca
:102e08008e80e80060c2b300b0409800b4c8bf002c
:102e18008080fb00b5c8bf000080fb004800dd00d3
:102e2800010070008000780000f02f000080600032
:102e38004800de00804078000e80e800414098009d
:102e4800b4c8bf008080fb00b5c8bf000080fb008d
:102e58004800dd0001007000804078000e80e80026
:102e680051409800a04a8000b14a8000020020002a
:102e780003f02f0000027800810278000200780039
:102e88008300780000016200018062006102b800de
:102e980044379800553798004e309000de30900047
:102ea800c000dd000000200040379800513798002e
:102eb8004e309000de3090006112b8004437980020
:102ec800553798004e319000de31900002007000b6
:102ed800838070004808de000100200080407800f0
:102ee8000e80e80061409800a04a8000b14a800046
:102ef80002002000f30f2000000278008102780011
:102f080002007800830078000001620001806200fe
:102f18006102b80064379800753798006e309000e9
:102f2800fe309000c000dd000000200060379800ef
:102f3800713798006e309000fe3090006112b80032
:102f480064379800753798006e319000fe31900014
:102f580002007000838070004008de00010020003d
:102f6800804078000e80e80071409800a04a8000f8
:102f7800b14a800002f02f00030020000002780010
:102f88008102780002007800830078000001620066
:102f9800018062006102b800043f9800153f980064
:102fa8000e3890009e389000c000dd000000200020
:102fb800003f9800113f98000e3890009e3890000e
:102fc8006112b800043f9800153f98000e39900030
:102fd8009e3990000200700083807000c809dd00ef
:102fe8004800de0000807100c808de0080407800dc
:102ff8000e80e80001489800a04a8000b14a80008d
:10300800804078000e80e80011489800c04a80008f
:10301800d14a80000200200003f02f00000278004f
:1030280081027800020078008300780000016200c5
:10303800018062006102b800243f9800353f980083
:103048002e389000be389000c000dd00000020003f
:10305800203f9800313f98002e389000be389000ed
:103068006112b800243f9800353f98002e3990002f
:10307800be39900002007000838070004808de00ae
:1030880001002000804078000e80e8002148980068
:10309800c04a8000d14a800002002000f30f2000bf
:1030a800000278008102780002007800830078002e
:1030b80000016200018062006102b800443f98008c
:1030c800553f98004e389000de389000c000dd0073
:1030d80000002000403f9800513f98004e38900073
:1030e800de3890006112b800443f9800553f9800c0
:1030f8004e399000de399000020070008380700025
:103108004008de0001002000804078000e80e800c2
:1031180031489800c04a8000d14a800002f02f0050
:103128000300200000027800810278000200780085
:103138008300780000016200018062006102b8002b
:10314800643f9800753f98006e389000fe389000f4
:10315800c000dd0000002000603f9800713f98002b
:103168006e389000fe3890006112b800643f9800f5
:10317800753f98006e399000fe399000020070008b
:1031880083807000c809dd004800de0000807100ff
:10319800c808de00804078000e80e80041489800aa
:1031a800c04a8000d14a8000804078000e80e80044
:1031b800514898008e80e8000040eb00e0489800f5
:1031c8008e80e8000040eb00f0489800dec8bf00a1
:1031d8008080fb00dfc8bf000080fb004800dd00e6
:1031e80001007000000478006140b90093f4070002
:1031f80020379800313798000800e00007003d00ac
:1032080002002000037824002e309000be30900089
:10321800b6f4070020379800313798001849800025
:103228006140b90085f4070000379800113798000d
:103238000800e00007003d00020020000378240099
:103248000e3090009e309000a8f4070000379800d8
:1032580011379800b2fd2000930424000e3090002e
:103268009e309000fef40700602f9800712f9800a0
:10327800a09120001002be00442f9800552f9800fe
:103288004e289000de289000e00f5000e08f580094
:10329800060035004e289000de28900067f40700ed
:1032a800202f9800312f9800160037004e289000e4
:1032b800610160006000b800030020000200700097
:1032c800838070004e2a9000de2a90008501d1008c
:1032d8000481d300020070008380700057f4070057
:1032e800202f9800312f98002e299000be29900099
:1032f8002e289000be2890007cf40700202f98000c
:10330800312f98002e299000be2990006e28900039
:10331800fe28900006f5070068f507000001be00ca
:103328002e309000be30900001f50700204b880039
:10333800314b8800209120001001be00022f980018
:10334800132f98000e2a90009e2a9000e00f52003a
:10335800e08f5a00060035000e2890009e28900045
:1033680036f4070060279800712798001600370088
:103378000e289000610160006000b8000300200082
:1033880002007000838070000e2a90009e2a900030
:103398008501d1000481d300020070008380700091
:1033a80026f4070060279800712798006e21900086
:1033b800fe2190006e209000fe2090004bf4070044
:1033c8006027980071279800184980006140b9006b
:1033d8001af4070040279800512798000800e000d9
:1033e80007003d0002002000037824004e209000d2
:1033f800de2090003df407004027980051279800f0
:103408000200200003002c004e209000de209000d7
:10341800c7f407000001be006e209000fe20900057
:1034280032f407002027980031279800a091200047
:103438001001be0002279800132798000e22900062
:103448009e229000e00f5200e08f5a0006003500df
:103458000e2090009e209000f8f30700601f98004f
:10346800711f9800160037000e209000610160005f
:103478006000b80003002000020070008380700024
:103488000e2290009e2290008501d1000481d30075
:103498000200700083807000e8f30700601f980046
:1034a800711f98006e199000fe1990006e18900018
:1034b800fe1890000df40700601f9800711f980017
:1034c8006e199000fe1990002e209000be209000ea
:1034d80097f4070002002000433b240060f4070033
:1034e800404b8800514b8800404b8000514b800076
:1034f80002002000432b2400fbf30700404b880008
:10350800514b8800404b8000514b80000200200046
:1035180043332400ebf407000000e00001003c0006
:1035280007003700404b8000514b8000020020000c
:10353800433b2400ecf30700404b8800514b8800c4
:10354800404b8000514b8000b2fd200093042400c2
:1035580043f40700020020004333240074f40700fa
:10356800404b8800514b8800600220000e0040004c
:10357800224b8000334b80000288be00600220008e
:103588000e004000b04090000e80e8000150980006
:10359800600220000e004000a04090000e80e8006d
:1035a80011509800600220000e00400090409000ea
:1035b8000e80e80021509800600220000e004000b4
:1035c800904078000e80e80031509800600220009a
:1035d8000e004000444b8000554b80000488be001c
:1035e800600220000e004000b04090000e80e8000d
:1035f80041509800600220000e004000a04090005a
:103608000e80e80051509800600220000e00400033
:10361800904090000e80e800615098006002200001
:103628000e004000904078000e80e800715098002d
:10363800804a8000914a800061004000e080480094
:10364800804a8800914a8800988b200018447800a6
:103658000800fb00cf80de0078f30700401f9800c9
:10366800511f98000804e00007003d0002002000f8
:10367800033824004e189000de1890009bf30700d2
:10368800401f9800511f980002002500338c240029
:103698004e189000de189000f1f30700201f9800e4
:1036a800311f9800a09120001001be00021f980051
:1036b800131f98000e1a90009e1a9000e00f5200f7
:1036c800e08f5a00060035000e1890009e189000f2
:1036d8005af3070060179800711798001600370012
:1036e8000e189000610160006000b800030020001f
:1036f80002007000838070000e1a90009e1a9000dd
:103708008501d1000481d30002007000838070001d
:103718004af3070060179800711798006e1190001f
:10372800fe1190006e109000fe1090006ff30700dd
:1037380060179800711798006e119000fe119000a4
:103748002e189000be189000f9f30700004b88006f
:10375800114b8800bcc8bf008080fb00bdc8bf00fb
:103768000080fb004800dd0001007000cf80de0013
:1037780032f3070002002400c3612400ecf30700c1
:10378800024b8000134b800058f30700004b880061
:10379800114b8800600220000e004000024b8000a0
:1037a800134b80000288be00600220000e0040001b
:1037b800b04090000e80e800015898006002200098
:1037c8000e004000a04090000e80e80011589800bc
:1037d800600220000e004000904090000e80e8003b
:1037e80021589800600220000e00400090407800a8
:1037f8000e80e800315898008e80e8000040eb0009
:10380800c05898008e80e8000040eb00d05898001f
:103818008e80e8000040eb00e05898008e80e800b9
:103828000040eb00f05898008e80e8000040eb0064
:10383800806098008e80e8000040eb00906098005f
:103848008e80e8000040eb00a06098008e80e800c1
:103858000040eb00b06098000000eb00000f78001b
:103868000b0037000fc2bf00624060000004e00098
:10387800fcff3a009e0078000e80e80000804000bf
:10388800104078000080fb00801088001e0fe800c0
:10389800300220009e0f1000f2ff34000e80e80076
:1038a80041022000b5030700604b88000fc2bf002b
:1038b800624060000004e000fcff3a00614b8000b9
:1038c80000f02f00008060004800de000080fb0050
:1038d800801088000fc2bf00624060000004e00052
:1038e800fcff3a00604b80000080fb0080108800dd
:1038f800bac8bf008080fb00bbc8bf000080fb00c7
:103908004800dd00010070004300de006100600037
:103918000004e00001003200d1e2a9004f04780061
:103928000080fa00000006003600f800809fbe0004
:10393800829fbe00849fbe00869fbe00889fbe00f7
:103948008a9fbe000000fa00e0c8bf008080fb002c
:10395800e1c8bf000080fb004800dd0001007000e6
:10396800610060000004e00083003200500880001d
:103978006105b800704a80006104b800c6c8bf007d
:103988008080fb00c7c8bf000080fb004800dd0046
:10399800010070006103b800880078000600780014
:1039a800000ab80007c0b90005017800000141000d
:1039b80009b0b90000014100820278000a00420003
:1039c8008b804a00229120000089be00bac8bf003f
:1039d8008080fb00bbc8bf000080fb004800dd0002
:1039e800010070004e00de00610060000004e0008d
:1039f80001003200d1e2a8000000eb00504a880024
:103a0800d6c8bf008080fb00d7c8bf000080fb007d
:103a18004800dd0001007000000888008460a900eb
:103a2800a04a8000b14a800061004000e080480060
:103a3800a04a8800b14a8800e0498000f149800026
:103a480061004000e0804800e0498800f1498800b2
:103a5800d04980000000e800d0498800e0c8bf00d5
:103a68008080fb00e1c8bf000080fb004800dd004b
:103a7800010070000000d100610060000004e00057
:103a880027003200e0498000f14980000001be00b3
:103a9800a04a8000b14a8000800f5100818f5900f0
:103aa80007003600e0498000f1498000a04a8800fc
:103ab800b14a880010002000d0498800180037005b
:103ac800e0498000f14980000001be00a04a800062
:103ad800b14a8000800f5100818f59000a003a00d6
:103ae80006c9bf008080fb0007c9bf000080fb003b
:103af8004800dd000100700080007800d049800097
:103b0800808f500006003e00e0498000f1498000a7
:103b1800a04a8800b14a880010002000d0498800d7
:103b28006000b800c04a8800d14a880040c9bf0078
:103b3800e24f500003003a0010c0b3007cfc0700bd
:103b48000500370040c9bf00e14f500002003a00ad
:103b580010c0b30093fa0700d3c8bf000080fb0071
:103b68004300de00610060000004e0000d00320048
:103b7800e40d07000b003700bac8bf008080fb00c7
:103b8800bbc8bf000080fb004800dd0001007000da
:103b98004e00de00610060000004e0000100320019
:103ba800d1e2a8008400a900bac8bf008080fb0049
:103bb800bbc8bf000080fb004800dd0001007000aa
:103bc8004e00de00610060000004e00001003200e9
:103bd800d1e2a9000080fa004f05be004f04be00e4
:103be8004f03be004f02be004f01be004f00be0093
:103bf8003600f900004006003600f800809fbe003d
:103c0800829fbe00849fbe00869fbe00889fbe0024
:103c18008a9fbe001c00fa00500880006105b800a9
:103c2800704a80006104b800c6c8bf008080fb00ed
:103c3800c7c8bf000080fb004800dd00010070001d
:103c48006103b8008800780006007800000ab80010
:103c580007c0b900050178000001410009b0b900aa
:103c680000014100820278000a0042008b804a006d
:103c7800c04c8800d14c8800bac8bf008080fb00c7
:103c8800bbc8bf000080fb004800dd0001007000d9
:103c98004600de00610060000004e0000100320020
:103ca800d1e2a8008460a900504a80000000e80022
:103cb800504a8800b9c8bf008081fb00d4c8bf0043
:103cc8008080fb00d5c8bf000080fb004800dd00f5
:103cd8000100700000017800110009008281d800fd
:103ce80080007800504a8000808f500083003600a2
:103cf800c04c8000d14c8000229120000089be0079
:103d0800f2c8bf008080fb00f3c8bf000080fb0042
:103d18004800dd0001007000400f9800f4c8bf00a3
:103d28008080fb00f5c8bf000080fb004800dd0074
:103d380001007000500f98004e089000de089000b7
:103d4800e00f5000e08f5800060035004e08900044
:103d5800de089000b9f10700200f9800310f980095
:103d6800160037004e089000610160006000b8003e
:103d78000300200002007000838070004e0a90004b
:103d8800de0a90008501d1000481d3000200700092
:103d980083807000a9f10700200f9800310f980068
:103da8002e099000be0990002e089000be089000d1
:103db800cef10700200f9800310f9800584a800074
:103dc8006140b9009df10700000f9800110f98009d
:103dd8000800e00007003d000200200003782400ee
:103de8000e0890009e089000c0f10700000f980090
:103df800110f98000e0990009e0990002e0890005f
:103e0800be08900016f20700600798007107980036
:103e1800d4c8bf008080fb00d5c8bf000080fb006d
:103e28004800dd0001007000000478006140b9001e
:103e380082f1070040079800510798000800e00049
:103e480007003d0002002000037824004e00900087
:103e5800de009000a5f10700400798005107980080
:103e68004e019000de0190006e009000fe00900070
:103e7800fbf107002007980031079800988b200075
:103e8800184478000800fb00cf80de006bf10700c3
:103e9800008fbe000804e00005003d00020020007d
:103ea800033824001e00be0090f10700008fbe00fa
:103eb8001e01be002e009000be0090001cf20700fc
:103ec80082f20700c04a8800d14a880040c9bf0072
:103ed800e24f500003003a000040eb0094fb07005b
:103ee8002e00370040c9bf00e14f50002b003a00b8
:103ef8000040eb00abf9070028003700e0c8bf001e
:103f08008080fb00e1c8bf000080fb004800dd00a6
:103f1800010070000000a200610060000004e000e1
:103f28001e003200c04c8000d14c8000229120003d
:103f38000089be00a04a8000b14a800061004000ac
:103f4800e0804800a04a8800b14a8800a04a800062
:103f5800b14a8000e0498800f14988006000b80053
:103f6800c04a8800d14a88000000eb00504a880007
:103f780040c9bf00e24f500003003a0020c0b30020
:103f88006bfb07000500370040c9bf00e14f500038
:103f980002003a0020c0b30082f90700e0c8bf0061
:103fa8008080fb00e1c8bf000080fb004800dd0006
:103fb80001007000610060000004e00001003200b0
:103fc800504a8000bac8bf008080fb00bbc8bf0051
:103fd8000080fb004800dd00010070004600de00a4
:103fe800610060000004e00001003200d1e2a90095
:103ff8000080fa004f05be004f04be004f03be000c
:104008004f02be004f01be004f00be003600f9004f
:1040180000400600801f78000000fa00704a800007
:104028000000e800704a880084e0a9000080fa00d7
:104038004f00780000400600809fbe00829fbe00af
:10404800849fbe000000fa00500880006102b8009a
:10405800c8c8bf008080fb00c9c8bf000080fb0043
:104068004800dd000100700000017800cac8bf00e8
:104078008080fb00cbc8bf000080fb004800dd004b
:10408800010070008001780004004100858049002b
:10409800a29120000089be00bec8bf008080fb003e
:1040a800bfc8bf000080fb004800dd0001007000b1
:1040b80050088800bac8bf008080fb00bbc8bf009a
:1040c8000080fb004800dd00010070004d00de00ac
:1040d800610060000004e00001003200d1e2a800a5
:1040e800bac8bf008080fb00bbc8bf000080fb00cf
:1040f8004800dd00010070004400de00610060003f
:104108000004e00001003200d1e2a8000000eb004a
:10411800704a88008420a900bac8bf008080fb00cc
:10412800bbc8bf000080fb004800dd000100700034
:104138004400de00610060000004e000010032007d
:10414800d1e2a9000080fa004f02be004f01be0074
:104158004f00be00004006003600f800809fbe00f9
:10416800829fbe00849fbe00869fbe000000fa00aa
:104178005008800010498800bac8bf008080fb0042
:10418800bbc8bf000080fb004800dd0001007000d4
:104198004d00de00610060000004e0001200320003
:1041a800d1e2a90010982800a80d07002049800036
:1041b8006101b800f09a2000a100200063f3070015
:1041c800a20d0700f0972800a00d0700704a800094
:1041d8006101b800f09a2000a10020005bf30700fd
:1041e8009a0d070051010700bac8bf008080fb0084
:1041f800bbc8bf000080fb004800dd000100700064
:104208004500de00610060000004e00001003200ab
:10421800d1e2a800a09120001001be001049800042
:1042280001002000000151008181590020498000cf
:10423800010020000200400083804800a291200075
:104248002001980031019800104980002049880019
:104258008480a900bac8bf008080fb00bbc8bf002b
:104268000080fb004800dd00010070004500de0012
:10427800610060000004e00001003200d1e2a90002
:104288000080fa004f03be004f02be004f01be007f
:104298004f00be003600f900004006000000fa009a
:1042a8000000eb00601088000cc2a9000ca2a90055
:1042b8000d42a8000000eb00701088000fe2a90072
:1042c8000f62a9000e22a900cec8bf008080fb00a3
:1042d800cfc8bf000080fb004800dd00010070006f
:1042e800a0108800810920009140780000c7b30021
:1042f80000c0700098e0b700910920009140780054
:1043080080cfb30000c060000004a00099e0b700af
:104318008d20a8000de2a8000f42a8000080fa0036
:10432800000006000000fa0006c9bf008080fb00fc
:1043380007c9bf000080fb004800dd0001007000d5
:10434800d049880000802000020520008000eb0092
:10435800c5f2070000852000020520008000eb0060
:10436800c1f207000000eb00b010880016c2a900d7
:1043780016a2a9001742a8000000eb00c010880090
:1043880019e2a9001962a9001822a900d0c8bf0023
:104398008080fb00d1c8bf000080fb004800dd0022
:1043a80001007000f0108800010a20009140780098
:1043b80080cfb30000c060000024a000a0e0b700d8
:1043c800010a200091407800f0c8b30000c06000e6
:1043d8000044a000a0e0b7008f00a80017e2a800e2
:1043e8001942a8000080fa00000006000400fa0044
:1043f800100798000000eb00000f7800020037005b
:10440800000000001e0fe8001e0090009e0f100024
:10441800fbff35000080fa00000006000200fa00e9
:1044280010c0b3007d000700ca02a900ca22a90073
:10443800ca42a900ca62a90071003700c8c2bf00f9
:10444800614060000004e00021003200c8c2bf00e3
:10445800624060000004e0000300320010c0b300b6
:1044680040e9b7000200370020c0b30040e9b700b8
:10447800c8c2bf000080fb004200de00614060004f
:104488000080fb000000400080007800c8c2bf0028
:104498000080fb004300de00614060000080fb00fc
:1044a80000814000f00f200080006100e0c8bf00dc
:1044b8006040600001407000e0e8b700c810de000e
:1044c800e1c8bf006040600001407000e1e8b7004b
:1044d800bac8bf008080fb00bbc8bf000080fb00db
:1044e8004800dd0001007000610060000004e00089
:1044f80001003200d1e2a800bac8bf008080fb00ea
:10450800bbc8bf000080fb004800dd000100700050
:104518000000e00001003a00d1e2a90033070700db
:1045280040c9bf000080fb00000f7800c00f2000ca
:104538009e007800808f50001e003200c00f2000bf
:104548009e007800808f500001003c002200370058
:10455800d00f20009e007800808f500005003200a8
:10456800e00f20009e007800808f50000900320084
:10457800190037000040eb00280007008098280049
:10458800b20c070069000700803e200097ff070073
:104598001100370010c0b30020000700f098280071
:1045a800aa0c070061000700803e20008fff07006b
:1045b8000900370020c0b300c5f307009099280010
:1045c800a20c070059000700803e200087ff070063
:1045d800e0cfb30040e9b700bac8bf008080fb0055
:1045e800bbc8bf000080fb004800dd000100700070
:1045f800610060000004e00001003200d1e2a9007f
:1046080040c9bf00e14f40008cff3a003b00070063
:104618000000eb000080fa00000006000200fa002b
:10462800004f780086f5070010c0b3009e4f1000b9
:1046380002003a000040eb00a5f3070080f50700f0
:1046480016ff070037ff0700b3f5070085f70700d7
:10465800a3f50700b8c8bf0040e9b7008c00a80060
:10466800e0c8bf008080fb00e1c8bf000080fb00fd
:104678004800dd00010070000000a2006100600039
:104688000004e0000100320005e1a8006000b80065
:10469800804a8800914a8800007d200053ff070067
:1046a800b09a2800690c070010c0b30040e9b700b1
:1046b800e0c8bf008080fb00e1c8bf000080fb00ad
:1046c8004800dd000100700061406000614060004a
:1046d8006140600061416000b12c20009140780089
:1046e800e0cfb30000c0600002407000cbe2b7002a
:1046f800cb22a9000080fa00000006000000fa00a2
:1047080077f507004ef50700c702a800c722a800e2
:10471800de62a800dea2a800dec2a800cdc2a80002
:10472800cde2a8000080fa00000006000000fa00b0
:104738000fc2bf00624060000004e000fcff3a00c6
:10474800314a800000f02f00008060004800de0041
:104758000080fb00801088000fc2bf00624060002c
:104768000004e000fcff3a00304a80000080fb00b3
:10477800801088000080fa00000006000c00fa0093
:1047880040079800510798000080eb003007980018
:104798000000eb00000f7800240037003e00900076
:1047a8004801de009e0078004e0090000080400026
:1047b800104078000080fb00000069002007980086
:1047c8003e0090004800dd00300798002e00900061
:1047d800c400de002e0090000080680010079800da
:1047e800be0090001e00900000806800300798000e
:1047f8001e0090004500dd0010079800be009000e4
:104808001e00900000806800300798001e0090008d
:104818004700dd0010079800be0090001e009000c1
:1048280000806800300798001e0fe8005e009000c6
:104838009e0f1000d9ff39003e0090000080fa005a
:1048480000000600a600fa000000eb00000f780048
:104858008e80e800a0cab300804878008e80e80007
:1048680010c1b300904098008e80e8000040eb0033
:10487800a04098008e80e80000c4b300b0409800c3
:10488800b4c8bf008080fb00b5c8bf000080fb0033
:104898004800dd00010070008000780000f02f0063
:1048a800008060004800de00804078000e80e8004c
:1048b80041409800b4c8bf008080fb00b5c8bf0065
:1048c8000080fb004800dd00010070008040780097
:1048d8000e80e80051409800a04a8000b14a80004c
:1048e8000200200003f02f00000278008102780007
:1048f80002007800830078000001620001806200f5
:104908006102b80074879800058f98007e80900037
:104918008e889000c000dd0000002000708798009d
:10492800018f98007e8090008e8890006112b800f8
:1049380074879800058f98007e8190008e8990007a
:1049480002007000838070004808de00010020002b
:10495800804078000e80e80061409800a04a8000fe
:10496800b14a800002002000f30f20000002780006
:10497800810278000200780083007800000162005c
:10498800018062006102b800148f9800258f98009a
:104998001e889000ae889000c000dd000000200056
:1049a800108f9800218f98001e889000ae88900084
:1049b8006112b800148f9800258f98001e89900006
:1049c800ae89900002007000838070004008de000d
:1049d80001002000804078000e80e80071409800b7
:1049e800a04a8000b14a800002f02f000300200096
:1049f80000027800810278000200780083007800c5
:104a080000016200018062006102b800348f9800e2
:104a1800458f98003e889000ce889000c000dd0049
:104a280000002000308f9800418f98003e88900049
:104a3800ce8890006112b800348f9800458f980096
:104a48003e899000ce89900002007000838070003b
:104a5800c809dd004800de0000807100c808de00db
:104a6800804078000e80e80001489800a04a800045
:104a7800b14a8000804078000e80e8001148980014
:104a8800c04a8000d14a80000200200003f02f00b5
:104a98000002780081027800020078008300780024
:104aa80000016200018062006102b800548f980022
:104ab800658f98005e889000ee889000c000dd0049
:104ac80000002000508f9800618f98005e88900049
:104ad800ee8890006112b800548f9800658f980096
:104ae8005e899000ee89900002007000838070005b
:104af8004808de0001002000804078000e80e800b1
:104b080021489800c04a8000d14a80000200200055
:104b1800f30f20000002780081027800020078007c
:104b28008300780000016200018062006102b80021
:104b3800748f9800059798007e8890008e9090005a
:104b4800c000dd0000002000708f980001979800d9
:104b58007e8890008e9090006112b800748f980043
:104b6800059798007e8990008e9190000200700051
:104b7800838070004008de0001002000804078003b
:104b88000e80e80031489800c04a8000d14a800071
:104b980002f02f0003002000000278008102780054
:104ba8000200780083007800000162000180620042
:104bb8006102b80014979800259798001e909000fd
:104bc800ae909000c000dd00000020001097980013
:104bd800219798001e909000ae9090006112b80046
:104be80014979800259798001e919000ae91900018
:104bf8000200700083807000c809dd004800de00f4
:104c080000807100c808de00804078000e80e8004f
:104c180041489800c04a8000d14a8000804078000e
:104c28000e80e80051489800e00520000e00400082
:104c38006011b8000288be00640040006011b8002e
:104c48000288be00640040006011b8000288be00ff
:104c5800640040006011b8000288be006400400093
:104c68006011b8000288be00640040006011b800fe
:104c78000288be00640040006011b8000288be00cf
:104c8800640040006011b8000288be006400400063
:104c98006011b8000288be00640040006011b800ce
:104ca8000288be00640040006011b8000288be009f
:104cb800640040006011b8000288be00e0052000d2
:104cc8000e004000919b28006ef00700b4c8bf009a
:104cd8008080fb00b5c8bf000080fb004800dd00f5
:104ce800010070006101b800009c2000a1002000b4
:104cf80096f0070080007800e00520000e004000d4
:104d080060f00700e00520000e004000e19c28004c
:104d18005cf00700c04980006101b800009c2000d9
:104d28000101200089f0070080007800e0052000dc
:104d38000e00400053f00700e00520000e00400080
:104d4800519d28004ff00700b04980006101b8006c
:104d5800009c2000010120007cf007008000780002
:104d6800e00520000e00400046f00700e0052000a6
:104d78000e004000c19d280042f007000e80e800a8
:104d8800ee004000e00520000e0040002f00090062
:104d9800b05878000103b1000003b1000000eb0037
:104da800000f78000b0037000fc2bf0062406000a0
:104db8000004e000fcff3a009e0078000e80e80046
:104dc80000804000104078000080fb0080108800c0
:104dd8001e0fe800d00320009e0f1000f2ff3400e1
:104de8000e80e800e103200064fe0700604b8800a5
:104df8000fc2bf00624060000004e000fcff3a0000
:104e0800614b800000f02f00008060004800de0049
:104e18000080fb00801088000fc2bf006240600065
:104e28000004e000fcff3a00604b80000080fb00bb
:104e3800801088000080fa00000006009600fa0042
:104e480000f798000000eb00100798000000eb0046
:104e5800000f780064004700c20520008000eb00c6
:104e680001f00700e4004700a0cab30080487800ba
:104e7800640047008ef0900011409800e40047005d
:104e88000040eb00a0409800e4004700e0c5b300f4
:104e9800b0409800b4c8bf008080fb00b5c8bf0010
:104ea8000080fb004800dd000100700080007800f1
:104eb80000f02f00008060004800de00804078008d
:104ec8006400470041409800b4c8bf008080fb00e0
:104ed800b5c8bf000080fb004800dd00010070007d
:104ee800804078006400470051409800a04a800044
:104ef800b14a80000200200003f02f000002780071
:104f080081027800020078008300780000016200c6
:104f1800018062006102b800143f9800253f9800a4
:104f28001e389000ae389000c000dd000000200060
:104f3800103f9800213f98001e389000ae3890002e
:104f48006112b800143f9800253f98001e39900060
:104f5800ae39900002007000838070004808de00bf
:104f680001002000804078006400470061409800fc
:104f7800a04a8000b14a800002002000f30f200000
:104f8800000278008102780002007800830078002f
:104f980000016200018062006102b800343f98009d
:104fa800453f98003e389000ce389000c000dd00a4
:104fb80000002000303f9800413f98003e389000a4
:104fc800ce3890006112b800343f9800453f9800f1
:104fd8003e399000ce399000020070008380700046
:104fe8004008de000100200080407800640047008f
:104ff80071409800a04a8000b14a800002f02f005a
:105008000300200000027800810278000200780086
:105018008300780000016200018062006102b8002c
:10502800543f9800653f98005e389000ee38900035
:10503800c000dd0000002000503f9800613f98004c
:105048005e389000ee3890006112b800543f980026
:10505800653f98005e399000ee39900002007000bc
:1050680083807000c809dd004800de000080710000
:10507800c808de00804078006400470001489800b6
:10508800a04a8000b14a8000804078006400470050
:1050980011489800c04a8000d14a800002002000d0
:1050a80003f02f00000278008102780002007800e7
:1050b8008300780000016200018062006102b8008c
:1050c800743f9800058798007e3890008e80900085
:1050d800c000dd0000002000703f980001879800a4
:1050e8007e3890008e8090006112b800743f98005e
:1050f800058798007e3990008e819000020070002c
:10510800838070004808de0001002000804078009d
:105118006400470021489800c04a8000d14a8000b6
:1051280002002000f30f20000002780081027800be
:1051380002007800830078000001620001806200ac
:105148006102b80014879800258798001e80900097
:10515800ae809000c000dd0000002000108798009d
:10516800218798001e809000ae8090006112b800e0
:1051780014879800258798001e819000ae819000c2
:1051880002007000838070004008de0001002000eb
:10519800804078006400470031489800c04a800089
:1051a800d14a800002f02f0003002000000278009e
:1051b8008102780002007800830078000001620014
:1051c800018062006102b800348798004587980022
:1051d8003e809000ce809000c000dd0000002000de
:1051e80030879800418798003e809000ce809000dc
:1051f8006112b80034879800458798003e81900076
:10520800ce8190000200700083807000c809dd0024
:105218004800de0000807100c808de008040780089
:105228006400470041489800c04a8000d14a800085
:10523800804078006400470051489800f2c8bf00d9
:105248008080fb00f3c8bf000080fb004800dd0041
:105258000100700000017800f4c8bf008080fb00e6
:10526800f5c8bf000080fb004800dd0001007000a9
:10527800800178000000200001f02f000202780071
:1052880000017800010078000201620000806100de
:105298006102b80054879800658798005e80900086
:1052a800ee809000c000dd000000200050879800cc
:1052b800618798005e809000ee8090006112b800cf
:1052c80054879800658798005e819000ee81900071
:1052d80002007000838070004808de000100200092
:1052e800804078006400470061489800f2c8bf0019
:1052f8008080fb00f3c8bf000080fb004800dd0091
:105308000100700000017800f4c8bf008080fb0035
:10531800f5c8bf000080fb004800dd0001007000f8
:105328008001780000002000f10f200002027800c0
:10533800000178000100780002016200008061002d
:105348006102b80074879800058f98007e809000ed
:105358008e889000c000dd00000020007087980053
:10536800018f98007e8090008e8890006112b800ae
:1053780074879800058f98007e8190008e89900030
:1053880002007000838070004008de0001002000e9
:10539800804078006400470071489800f2c8bf0058
:1053a8008080fb00f3c8bf000080fb004800dd00e0
:1053b8000100700000017800f4c8bf008080fb0085
:1053c800f5c8bf000080fb004800dd000100700048
:1053d8008001780000f02f00010020000202780010
:1053e800000178000100780002016200008061007d
:1053f8006102b800148f9800258f98001e889000cd
:10540800ae889000c000dd0000002000108f9800da
:10541800218f98001e889000ae8890006112b80015
:10542800148f9800258f98001e899000ae899000ef
:105438000200700083807000c809dd004800de00ab
:1054480000807100c808de008040780064004700d2
:1054580001509800f2c8bf008080fb00f3c8bf006d
:105468000080fb004800dd000100700000017800aa
:10547800f4c8bf008080fb00f5c8bf000080fb00b7
:105488004800dd000100700080017800824078004b
:105498006400470011509800e40047000040eb000a
:1054a800a0509800e400470010c0b300b050980026
:1054b8006400470074004000648f20000f0009005a
:1054c800345878000001b100b4c8bf008080fb00e8
:1054d800b5c8bf000080fb004800dd000100700077
:1054e8008000780000f02f00008060004800de0097
:1054f800804078006400470041609800b4c8bf004d
:105508008080fb00b5c8bf000080fb004800dd00bc
:1055180001007000804078006400470051609800e6
:10552800e40047000040eb00e0609800e40047001a
:10553800f0c0b300f0609800e40047000040eb00c2
:1055480080689800e400470010c0b3009068980095
:10555800e40047000040eb00a0689800e400470022
:1055680010c0b300b0689800e40047000040eb00aa
:10557800c0689800e40047000040eb00d06898003d
:10558800000620000e004000000178006000b8000e
:105598000089be00640141006000b8000089be00b7
:1055a800640141006000b8000089be006401410048
:1055b8006000b8000089be00000620000e00400010
:1055c8000001780000852400113425000089be0000
:1055d80064014100f0242500d16225000089be0045
:1055e80064014100100320000009780064004700ae
:1055f800e102200080804000000620000e004000ec
:105608000f000900b05878000101b1000001b10095
:10561800000620000e004000000178006000b8007d
:105628000089be00640141006000b8000089be0026
:10563800640141006000b8000089be0064014100b7
:105648006000b8000089be00020620000e0141007b
:1056580010e4240011c424000089be00f074240062
:1056680011032000200198003101980064004700d0
:10567800e103200080804000000620000e0040006a
:105688000f000900b05878000101b1000001b10015
:10569800e40047000040eb00e0c89800e400470041
:1056a8000040eb00f0c89800e40047000040eb0021
:1056b80080d09800e40047000040eb0090d09800ac
:1056c800e400470020c0b300a0d09800e4004700e1
:1056d8000040eb00b0d09800e40047000040eb0029
:1056e800c0d09800e40047000040eb00d0d09800fc
:1056f800e40047000040eb00e0d09800918b2000c8
:105708009140780020c3b30080cf500004003200dd
:10571800e40047000040eb00f0d098000300370099
:10572800e400470010c0b300f0d09800e400470040
:105738000040eb0080d89800e40047000040eb00f0
:1057480090d89800b9c8bf008081fb00d4c8bf00ba
:105758008080fb00d5c8bf000080fb004800dd004a
:105768000100700000017800110009008281d80052
:10577800100798009e00900000f02f000080600045
:105788004800de00804078006400470021d8980077
:105798001e009000804078006400470031d89800cf
:1057a8000000eb00000f78000b0037000fc2bf00ad
:1057b800624060000004e000fcff3a009e007800b0
:1057c8006400470000804000104078000080fb0023
:1057d800801088001e0fe800b00520009e0f100002
:1057e800f2ff340064004700c1052000e3fb070016
:1057f800604b88000fc2bf00624060000004e000f8
:10580800fcff3a00614b800000f02f000080600030
:105818004800de000080fb00801088000fc2bf0037
:10582800624060000004e000fcff3a00604b80002a
:105838000080fb00801088000080fa00000006004d
:105848000000fa000040eb0040e9b700b7fb070092
:10585800e09d2800fd070700b09e2800fb07070011
:10586800b4c8bf008080fb00b5c8bf000080fb0043
:105878004800dd00010070006101b800009c2000b4
:10588800a1002000b1ed0700f0070700e09c280008
:10589800ee070700c04980006101b800009c2000a5
:1058a80001012000a9ed0700e8070700909f2800e4
:1058b800e6070700b04980006101b800009c20009d
:1058c80001012000a1ed0700e007070030a0280033
:1058d800de07070060a02800dc070700b9c8bf0082
:1058e8000081fb0003002000009c2000a100200094
:1058f80096ed0700d507070070a12800d307070019
:105908008afb07000080fa00000006002600fa0063
:105918000000eb00100798000000eb00000f780073
:1059280082fb0700b0a12800c80707007ffb07001b
:105938000000eb00000f78008e0037001e00780092
:1059480020179800ae109000e18f5000250032001b
:105958002e109000e20f500040003200ae10900070
:105968000100e000010032005900370064004700e0
:105978006011b8000288be00640040006011b800e1
:105988000288be00640040006011b8000288be00b2
:10599800640040006011b8000288be006400400046
:1059a8006011b8000288be00640040006011b800b1
:1059b8000288be00640040006011b8000288be0082
:1059c800640040006011b8000288be00640047000f
:1059d800218b20001f000900315878000002b10017
:1059e8003b003700640047006011b8000288be0021
:1059f800640040006011b8000288be0064004000e6
:105a08006011b8000288be00640040006011b80050
:105a18000288be00640040006011b8000288be0021
:105a2800640040006011b8000288be0064004000b5
:105a38006011b8000288be00640040006011b80020
:105a48000288be0064004700218d20001f00090065
:105a5800315878000002b1001d003700640047008b
:105a68006011b8000288be00640040006011b800f0
