:020000040000fa
:080000000001040000000000f3
:020000040000fa
:100200000f90200000ff2000000188000000000087
:100210000c00070020b5230001002000110007009a
:10022000000020000000e000020032000000020098
:100230000000000030200200000000000040da0052
:100240000000fe004440a900201220000000e00051
:100250000300320000002000a00188004440a800f4
:100260000000060091018800800078000000eb008b
:1002700015003700e280400032a0b4009101ba00be
:10028000e280400032a0b4009102ba00e280400057
:1002900032a0b4000002eb00472bde00f507b200ed
:1002a000602ce10004003a000059eb008301e900f2
:1002b000fdff3e00040037006128e100010032002c
:1002c0000082eb00040007001101ba000200e00008
:1002d000e8ff3a00000006003159ba008301e90046
:1002e0000c0032002159ba008301e90008003200f5
:1002f0000400e00003003a00e280400032a0b400b5
:10030000f5ff370011d9ba008301e900faff3a007e
:100310008100e800e180400032a0b4000000060047
:100320003200f800910188008002780062004000ed
:10033000e08048003549ba003204e0000410a7000c
:10034000100032008301e9000e0032002549ba0096
:100350003204e0000410a7000a0032008301e90023
:10036000080032000408a300eeff320015c9ba00ed
:100370003204e0000410a700020032008301e9000b
:10038000e8ff3a003200f900000006003200f800f1
:10039000910188000008bb00410424006210e100c4
:1003a00004003200000220000010e1000a003a00c0
:1003b00051042400013b88000500fc005105200089
:1003c000313b8800a10a2000313b880061e7a8008a
:1003d00000000000000000003200f90000000600ec
:1003e0003200f80060042400003b8800f2ff370070
:1003f0003200f8009101880041002400013b880090
:100400000208bb00ecff37003200f80091018800c1
:1004100051002400013b8800030120003218bb007a
:100420008301e900fdff3a00e3ff37008001eb00a4
:1004300002003700817178008301e800828f51004b
:10044000fcff3a00000006008001780000017800ff
:10045000010037000201e8001204e000fdff3a004d
:10046000020037000201e8008100e8001140780036
:10047000004978000004e000faff3a000300780029
:100480000000060080007800010037000000e8004e
:100490001004e000fdff3a000100500000000600db
:1004a000811f78000100e00002003d0060001000a4
:1004b000e08018000300e00002003d006001110030
:1004c000e08119003a0107004f00e00002003b0004
:1004d00060001000e080180000000600839f6800a4
:1004e0000100e00002003d0060001000e080180004
:1004f0000300e00002003d0060011100e0811900ee
:100500002e0107004f00e00002003b0060001000d9
:10051000e080180000000600889fbe008a9fbe0091
:10052000010578000100e0000400350008003c00ef
:100530000000e000200032000500370060001000dd
:10054000e080180002003b0001f02c001a00370088
:100550000004be006011b8006b0920000982cf00c2
:10056000020039000882cf000441b0006942520005
:100570000e00320008003b008281710061016400be
:100580008904d1000884d3008b05e8000442e80008
:10059000f9ff3a00050037000804440089844c0044
:1005a0008b05e9000442e900fbff3a001301070054
:1005b0000af0a70001f0a0004f05be004f04be00e6
:1005c0000000060003f0a200889fbe008a9fbe00c4
:1005d0008c1f78002f010700360133006450e100c2
:1005e0004f0032006420e1005200320003826c00b0
:1005f00007003b000905d0000306d000820f54001d
:100600000c065d000200390002003200890178000a
:10061000030678008582550004003d000003fd00bc
:100620008103fd008502ea008b854200840f720081
:1006300002003b0060001000e08018006011b8006c
:100640000005eb007a28e1000a0039000600780076
:10065000c75ddd00f707b200878075002d00370009
:10066000828171000a017800610560008180d100fb
:100670000080d3008502e900f9ff3b00060440003a
:100680008784480002003b0060041400e0841c00e2
:100690000988a300070032008a81710082817100fd
:1006a000610164008904d1000884d3008b05e8004f
:1006b000170037000978a30013003a000b00e00090
:1006c000130034008b05e9000804440089844c00c1
:1006d0000a4474000978a3000d003a000b00e00002
:1006e000070034008b05e9000804440089844c00ad
:1006f00001003a000b0020000978a300f7ff320048
:100700000001eb0002003700828171000a017800cd
:10071000ba0007000cf0a70001f0a000ee003700bf
:100720006420e10002003a00838f6c00ee00330089
:100730000801be000200be00e7003700889fbe002f
:100740008a9fbe008c1f7800d2000700d9003300ba
:1007500003866c006450e100240032006420e10054
:10076000270032006150e100220032006120e100e8
:10077000210032008b854200eb07b1000134b80044
:10078000003ab8000804420089844a00013ab800df
:100790000030b8008880400009014a00040033009e
:1007a0000000400081804800020149008b05e900fb
:1007b000c909dd0083017000010032001300200030
:1007c000c814de004814dd004709de001200b20044
:1007d000c808de00088470008800070001f0a1004e
:1007e0000cf0a70001f0a000bb0037006120e10081
:1007f000bd0032000801be000200be00f7ff370056
:100800006150e100fcff3a00b7003700889fbe004e
:100810008a9fbe008c1f78009e000700a500330051
:1008200003866c006450e1002e0032006420e10079
:10083000330032006150e1002f0032006120e100fe
:100840003100320085855500eb07b000090020001b
:1008500008042000050037000804440089844c0087
:100860000a0031000603430087834b000001530058
:1008700081815b00f8ff33000203be000800a00086
:100880000804440089844c00f6ff3900c639dd00b5
:100890008301730001003200130020008904d1009d
:1008a0000884d3000998a300050032000800a700bf
:1008b0000300a0008904d1000884d3008b05e80060
:1008c0008904d1000884d3000001eb000281d2002a
:1008d0004a00070001f0a1000cf0a70001f0a00001
:1008e0007d0037006420e1007f0032000801be0077
:1008f0000200be00f7ff37006120e1007a003200fd
:100900006000b800f3ff37000000200001f8270066
:10091000f0ff37000001be00760007000470a7005a
:1009200003f0a1006509b100160032000d0035008a
:100930006828e10006003500f0ff2f00f1ff2700d6
:100940000300e00013003b00010028000000050048
:1009500000004000818048008502e900fcff3a0069
:1009600008003700f88f420002003c008000eb00d6
:10097000000005008100d1000080d3008502e8005e
:10098000fcff3a000300e00002003b0060001000a2
:10099000e0801800000006000001eb006a0037004c
:1009a000f4ff2f00d100370014002000cf003700e3
:1009b000020007000400be00000006006022b8002c
:1009c000060220000000d0008180d2000482d20004
:1009d0008582d2000000a0000202520083825a00e9
:1009e000030031000202420083824a000000a1009d
:1009f0000603e900f3ff3a00000006008100200032
:100a0000618055000b003d000b00200061fe2f00af
:100a10000100e1001d003400828171006101640069
:100a20008904d1000884d3000000e800faff3a00ee
:100a3000710020006100640003007000020060008b
:100a40000900320061044400e0844c000988a500dc
:100a5000050032008b05e8006808e10002003a005a
:100a60008904d1000884d300f20f20000258e1006d
:100a700005003d00c75ddd00f907b2008980750003
:100a800008007800000006000bf827008b007800b3
:100a9000000005000004be00160007000003be00b1
:100aa0000405be000200be0012000700844f75005e
:100ab000000006000200be006450e10005003600a0
:100ac0006420e100020036000968a30001003a003a
:100ad0000800be000160a0004f0678004f05be0070
:100ae0004f04be0000000600f0ff2f00f1ff2700ba
:100af000f9ff3700c70ade00f107b200f50fb200b8
:100b000008003200e1cf4200020032000170a00074
:100b100024000500810f7000010032000408050068
:100b200044000500810f700002003a001400050027
:100b30008502e9000000400081c04800fcff3b0046
:100b40000170a00024000500889fbe008a9fbe009f
:100b50008c9fbe00820578000004be00e5ff070000
:100b60000800be006420e1000700390002003a00de
:100b7000f1ff2700f0ff2f000160a000120220000b
:100b8000f2478800550037006120e10003003a0079
:100b90000b00a70001f823005000370001f0a1006e
:100ba00002002100936424007fff07000800be00bc
:100bb00004003500b2fd2000930c240066000700fd
:100bc0000004be000005eb000b00a6004f0dde0088
:100bd00001f0a1000004be0032982f0023ea230098
:100be000d6fe07000001eb0003f023000b00a70076
:100bf00003f8230074fe070046ff07000000a7006b
:100c00000a00a20044fe07000b00e00003003200cf
:100c10000200200003f023006afe070001f0a2009a
:100c20000006be000200200093042400c3fe07005b
:100c30000801be0064fe0700809fbe000c00be00dd
:100c400022a22a00d3a72300bcfe07004f01be004a
:100c50005dfe07000004be0001f0a10002002000bc
:100c60000398230050ff07000800be00190035005c
:100c70000001be00b1fe07000006be00b2c529009b
:100c8000e3622300adfe070022222b00f3942b0029
:100c90004dfe07000c01be00a8fe0700e27328000d
:100ca00083c0230048fe07000c01be00a3fe07001e
:100cb00042aa2a00a3e22b0043fe07000c01be005b
:100cc0009efe07000801be009cfe07000801be0052
:100cd0003dfe07000a00a70001f0a2004f06be007b
:100ce0004f05be004f04be0000000600889fbe00f6
:100cf0008a9fbe00841f780066ff07004f007800bf
:100d000011003300f0ff2f00838f6c0006003b00c2
:100d1000040565000a00a7000800370009f0a600d6
:100d20001000200008003700820f5400838f5c0001
:100d3000030039001000200001003e0000002000e8
:100d400009f0a7000000ea004f05be004f04be00f6
:100d50000000e00000000600040020000000370052
:100d6000889fbe008a9fbe008c1f78004f26dd0042
:100d700048ff07004fff33006120e10043003200cd
:100d80006250e10041003e003e0039006420e10075
:100d90003c003200058255000f003b000402e800d1
:100da00038003a00800f5300818f5b00350034001b
:100db0000800be0003f0a10001f0a60003f0a000af
:100dc0000cf0a70000fe070043ff370006034300b6
:100dd00087834b000c4646000005530081855b006d
:100de000020033000a03be000c00a0000402e90068
:100df000f6ff3b00850578000602430087824b0022
:100e000004003a006000b80009f0a70001f0a0005b
:100e100031ff37000002520081825a000704e000cf
:100e2000040033000603430087834b008b05e90071
:100e3000faff3700090578000604be000203be0071
:100e40006011b800edfe0700e00f5200e08f5a007d
:100e50000700350002003c000c08a300040032002b
:100e60000601be0003f0a0000cf0a700d6fd0700ad
:100e70000a85680001f0a1000af0a70001f0a000b7
:100e800015ff37000800be0013ff370010022000d6
:0c0e90000cf0a600f047880013ff3700ac
:020000040000fa
:0200000401f009
:04000000eeff00000f
:020000040000fa
:0200000401f009
:04000400ff7f00007a
:020000040000fa
:0200000401f009
:04000800cfff000026
:020000040000fa
:0200000401f009
:04001400ffff0000ea
:020000040000fa
:100008008408000084080000700800007a080000d6
:1000180084080000840800008408000084080000a8
:100028003a0e0000201e000084080000cc1c0000ce
:10003800f61e00008408000084080000e21d00008d
:1000480084080000ea3800008408000084080000e2
:100058008408000084080000840800008408000068
:100068008408000084080000840800008408000058
:100078008408000084080000840800008408000048
:100088008408000084080000840800008408000038
:100098008408000084080000840800008408000028
:1000a8008408000084080000840800008408000018
:1000b8008408000084080000840800008408000008
:1000c80084080000840800008408000084080000f8
:1000d80084080000840800008408000084080000e8
:1000e80084080000840800008408000084080000d8
:0800f8008408000084080000e8
:020000040000fa
:100108008408000084080000700800007a080000d5
:1001180084080000840800008408000084080000a7
:100128003a0e0000201e000084080000cc1c0000cd
:10013800f61e00008408000084080000e21d00008c
:1001480084080000ea3800008408000084080000e1
:100158008408000084080000840800008408000067
:100168008408000084080000840800008408000057
:100178008408000084080000840800008408000047
:100188008408000084080000840800008408000037
:100198008408000084080000840800008408000027
:1001a8008408000084080000840800008408000017
:1001b8008408000084080000840800008408000007
:1001c80084080000840800008408000084080000f7
:1001d80084080000840800008408000084080000e7
:1001e80084080000840800008408000084080000d7
:0801f8008408000084080000e7
:020000040000fa
:100e9c00477200006964000054720000616b00002e
:100eac0020500000487a000031300000004500005e
:100ebc00303d000000500000487a0000002d00007a
:100ecc002c0000002a2c0000002b00002c0000003d
:100edc002c000000543000002c4d0000302c000081
:100eec004f4600002c0000004d3100002c4f00003c
:100efc00462c000000540000312c00004d31000045
:100f0c002c4f0000462c000000470000546f0000de
:100f1c00735000004d550000205200006573000016
:100f2c006574000021000000475400006f7300003e
:100f3c00504d00005520000052650000626f00000b
:100f4c006f74000065640000210000004661000021
:100f5c00637400006f72000079200000446500008b
:100f6c0066610000756c0000747300002052000074
:100f7c00656c00006f610000646500006421000076
:100f8c0000470000726900006454000072610000a8
:100f9c006b21000020500000487a000053650000cf
:100fac006e7300006f7200002049000044230000a3
:100fbc00200000002c200000534e000023200000d5
:100fcc00002c00002052000065760000200000007c
:100fdc002e0000004772000069640000547200008b
:100fec00616b0000210000002c2000005048000024
:100ffc007a530000656e0000736f000072200000d1
:10100c004944000023200000002c00002046000072
:10101c00572000005265000076200000002c0000d4
:10102c00206400007350000049430000333000007e
:10103c004633000030310000322c0000200000004c
:10104c00204800007a000000504800007a4300005d
:10105c006667000000470000546f000073500000ea
:10106c004d550000204300006f6e000066690000c3
:10107c0067200000536100007665000064210000c9
:10108c0000470000546f0000735000004d550000e5
:10109c00204300006f6e00006669000067200000ae
:1010ac0046610000696c00006564000021000000ce
:1010bc003031000032330000343500003637000088
:1010cc00383900006162000063640000656600004e
:0410dc000000000010
:020000040000fa
:1010e0000000fa0000000000000000000080fa008c
:1010f000004006000000fa000000000000000000b0
:101100000080fa00004006000000fa000060fe00c7
:10111000feff37000800fa00604798000000eb006f
:101120002007980008c8bf008080fb0009c8bf00e6
:101130000080fb004800dd00010070004700de0079
:10114000610060000004e00001003200d1e2a8006c
:1011500000c02f00f1072000008fbe000002eb004e
:1011600003022000028020001e00be006cfc07006d
:1011700002022000030020003e004100ae80490032
:101180000002eb00030220000282200064fc070042
:1011900004042000050020003e004200ae804a000a
:1011a0000002eb0003022000028420005cfc070028
:1011b00002062000030020003e004100ae804900ee
:1011c0000002eb00030220000286200054fc07000e
:1011d00000c8bf008080fb0001c8bf000080fb008a
:1011e0004800dd000100700080007800204580008c
:1011f000808f500003003a006e409000e24f500094
:10120000c7013a0022458000f00f200080006100f5
:1012100000c8bf00604060000140700000e8b700f7
:10122000c810de0001c8bf006040600001407000cf
:1012300001e8b70032458000f00f20008000610017
:1012400002c8bf00604060000140700002e8b700c3
:10125000c810de0003c8bf0060406000014070009d
:1012600003e8b70004c8bf006040600004e8b700ae
:1012700005c8bf006040600005e8b7000040eb0013
:1012800006e8b700c0c3b30007e8b70008c8bf004e
:10129000604060000024a00008e8b70009c8bf0053
:1012a0006040600009e8b7000ac8bf006040600005
:1012b0000ae8b7000bc8bf00604060000be8b70049
:1012c0000cc8bf00604060000ce8b7000dc8bf004c
:1012d000604060000de8b7000ec8bf0060406000cd
:1012e0000ee8b7000fc8bf00604060000fe8b7000d
:1012f00010c8bf006040600021c2b3000140700010
:1013000010e8b70011c8bf006040600011e8b700e6
:1013100012c8bf0060406000e1c2b300014070002d
:1013200012e8b70013c8bf006040600081c7b30077
:101330000140700013e8b70014c8bf0060406000af
:1013400031c6b3000140700014e8b70015c8bf00f3
:101350006040600001cfb3000140700015e8b700a5
:1013600016c8bf006040600021c5b3000140700096
:1013700016e8b70017c8bf006040600021cab3007c
:101380000140700017e8b70018c8bf006040600057
:101390005040b30018e8b70019c8bf0060406000b3
:1013a00019e8b7001ac8bf0060406000a040b30051
:1013b0001ae8b7001bc8bf0060406000d040b3000f
:1013c0001be8b7001cc8bf0060406000c040b3000d
:1013d0001ce8b7001dc8bf00604060001de8b700f2
:1013e0001ec8bf006040600081c3b30001407000b0
:1013f0001ee8b7001fc8bf00604060000004a000e6
:101400001fe8b700020220001e00be00dffb07003d
:1014100061c7bf0001c8b300014060000004e000e4
:10142000fbff3a00028020001e00be00f6fb070012
:1014300061c7bf0001c8b300014060000004e000c4
:10144000fbff3a000040eb0020e8b7000040eb0053
:1014500021e8b70022c8bf00604060006040b300d0
:1014600022e8b70023c8bf006040600023e8b7004f
:1014700024c8bf006040600024e8b70025c8bf0052
:101480006040600025e8b70026c8bf0060406000eb
:1014900026e8b70027c8bf006040600027e8b70013
:1014a00028c8bf0060406000b1c7b30001407000b1
:1014b00028e8b70029c8bf006040600021c9b30018
:1014c0000140700029e8b7002ac8bf0060406000f2
:1014d00001c2b300014070002ae8b7002bc8bf006a
:1014e000604060002be8b7002cc8bf00604060007f
:1014f00001c8b300014070002ce8b7002dc8bf0040
:1015000060406000c040b3002de8b7000040eb0031
:101510002ee8b7000040eb002fe8b7000000eb001a
:10152000200798000d0037002e00900000004000ba
:10153000f0004000008220000080400090417800d0
:1015400060c8610090409000e0c0600011409800c9
:101550002e0090000000e800200798002e00900068
:10156000e70f5000f0ff34000402200005002000c7
:101570003e004200ae804a000202200083fb0700ca
:1015800061c7bf0001c8b300014060000004e00073
:10159000fbff3a0002822000040220000500200028
:1015a0003e004200ae804a0097fb070061c7bf00c3
:1015b00001c8b300014060000004e000fbff3a00f6
:1015c00040c8bf006040600001c4b300014070002b
:1015d00040e8b70041c8bf006040600021c4b300cc
:1015e0000140700041e8b70042c8bf0060406000a1
:1015f000f040b30042e8b70043c8bf00604060005d
:1016000043e8b70040842000020120008000eb0086
:1016100086fb070045842000e07428000e000900c6
:10162000b05a7800408520008040eb0001487800e7
:101630000000e8008040eb00014878000000e8006e
:101640008040eb00014878000000e8008040eb009b
:10165000014878000000e8008040eb000148780075
:101660000000e8008040eb00014878000000e8003e
:101670008040eb00014878000000e8008040eb006b
:10168000014878000000e8008040eb000148780045
:101690000000e8008040eb00014878000000e8000e
:1016a0008040eb00014878000000e8008040eb003b
:1016b0000148780002042000030020003e004100a1
:1016c000ae8049000202200030fb070061c7bf0066
:1016d00001c8b300014060000004e000fbff3a00d5
:1016e0000284200004042000050020003e00420087
:1016f000ae804a0044fb070061c7bf0001c8b300c9
:10170000014060000004e000fbff3a0010c0b3009d
:1017100060e8b7000040eb0061e8b70010c0b3001c
:1017200062e8b70010c0b30063e8b70064c8bf0048
:101730006040600081ccb3000140700064e8b700f5
:1017400065c8bf006040600011c8b3000140700070
:1017500065e8b70066c8bf0060406000b1c5b3006f
:101760000140700066e8b70067c8bf0060406000d5
:1017700067e8b70068c8bf006040600081c3b3007d
:101780000140700068e8b70069c8bf0060406000b1
:1017900091c9b3000140700069e8b7006ac8bf0092
:1017a00060406000b1c5b300014070006ae8b70056
:1017b0006bc8bf00604060006be8b70010c0b300aa
:1017c0006ce8b70010c0b3006de8b70010c0b300fc
:1017d0006ee8b70010c0b3006fe8b70070c8bf0074
:1017e0006040600081ccb3000140700070e8b70039
:1017f00071c8bf006040600011c8b30001407000b4
:1018000071e8b70072c8bf0060406000b1c5b300a6
:101810000140700072e8b70073c8bf00604060000c
:1018200073e8b70074c8bf006040600081c3b300b4
:101830000140700074e8b70075c8bf0060406000e8
:1018400091c9b3000140700075e8b70076c8bf00c9
:1018500060406000b1c5b3000140700076e8b70099
:1018600077c8bf006040600077e8b70078c8bf0065
:101870006040600078e8b70079c8bf006040600051
:1018800079e8b7007ac8bf00604060007ae8b70026
:101890007bc8bf00604060007be8b7000040eb0001
:1018a0007ce8b70030c0b3007de8b7007ec8bf0059
:1018b000604060004041b3007ee8b7007fc8bf00d1
:1018c000604060007fe8b7000206200003002000af
:1018d0003e004100ae80490002022000abfa070042
:1018e00061c7bf0001c8b300014060000004e00010
:1018f000fbff3a00028620000406200005002000bd
:101900003e004200ae804a00bffa070061c7bf0038
:1019100001c8b300014060000004e000fbff3a0092
:101920000002eb0003022000028020001e00be0027
:101930007bfa070002022000030020003e00410065
:10194000ae8049000002eb0003022000028220006a
:1019500073fa070004042000050020003e00420046
:10196000ae804a000002eb00030220000284200047
:101970006bfa070002062000030020003e00410031
:10198000ae8049000002eb00030220000286200026
:1019900063fa070008c8bf008080fb0009c8bf00c9
:1019a0000080fb004800dd00010070004700de0001
:1019b000610060000004e00001003200d1e2a900f3
:1019c0000080fa00000006000400fa0008c8bf000a
:1019d0008080fb0009c8bf000080fb004800dd00dc
:1019e000010070004700de00610060000004e000bc
:1019f00001003200d1e2a80022458000f00f200053
:101a00008000610000c8bf006040600001407000bd
:101a100000e8b700c810de0001c8bf0060406000e9
:101a20000140700001e8b70006c8bf00e24f500057
:101a30000200360010c0b30006e8b70000c02f0057
:101a4000f1072000008fbe00020220001e00be0031
:101a50004efa070061c7bf0001c8b3000140600033
:101a60000004e000fbff3a00028020001e00be00e0
:101a700065fa070061c7bf0001c8b30001406000fc
:101a80000004e000fbff3a000202200003002000f7
:101a90003e004100ae804900020220003bfa0700f0
:101aa00061c7bf0001c8b300014060000004e0004e
:101ab000fbff3a0002822000040220000500200003
:101ac0003e004200ae804a004ffa070061c7bf00e7
:101ad00001c8b300014060000004e000fbff3a00d1
:101ae00002042000030020003e004100ae804900b7
:101af0000202200025fa070061c7bf0001c8b30039
:101b0000014060000004e000fbff3a000284200076
:101b100004042000050020003e004200ae804a0080
:101b200039fa070061c7bf0001c8b3000140600077
:101b30000004e000fbff3a00020620000300200042
:101b40003e004100ae804900020220000ffa07006b
:101b500061c7bf0001c8b300014060000004e0009d
:101b6000fbff3a000286200004062000050020004a
:101b70003e004200ae804a0023fa070061c7bf0062
:101b800001c8b300014060000004e000fbff3a0020
:101b900008c8bf008080fb0009c8bf000080fb00b0
:101ba0004800dd00010070004700de0061006000b9
:101bb0000004e00001003200d1e2a9000080fa0038
:101bc000000006000000fa00a1e2a9000080eb007e
:101bd00040158800cda2a900cdc2a800c6a2a800c9
:101be000c682a900cde2a900d1e2a900c602a800e0
:101bf000ca02a900c622a800ca22a900c642a9009a
:101c0000ca42a900c662a900ca62a900c682a90088
:101c1000ca82a900c6a2a800c8a2a900c6c2a8007c
:101c2000c8c2a900d202a800d402a900c6e2a80036
:101c3000c8e2a9000080fa00000006000000fa00d7
:101c40008c00a9008e00a9008ee0a9008200a900e6
:101c50008400a900410920009140780080cfb300a2
:101c600000c060005040b30094e0b7000080fa006c
:101c7000000006003600f800809fbe00829fbe0074
:101c8000849fbe00869fbe00889fbe008a9fbe00c4
:101c90000000fa00500880006105b800a0458000ef
:101ca0006104b80014c8bf008080fb0015c8bf00e5
:101cb0000080fb004800dd00010070006103b800f7
:101cc0008800780006007800000ab80007c0b90054
:101cd000050178000001410009b0b9000001410090
:101ce000820278000a0042008b804a0002882000ad
:101cf0000089be0008c8bf008080fb0009c8bf0083
:101d00000080fb004800dd00010070004d00de0097
:101d1000610060000004e00001003200d1e2a80090
:101d200005e1a9000000eb00804588000000eb0001
:101d30000008880005e1a800d0458000e14580004a
:101d400061004000e0804800d0458800e1458800ff
:101d50006000b800f045880001468800a8c8bf00b0
:101d6000e24f500003003a0010c0b300090407001e
:101d700005003700a8c8bf00e14f500002003a003c
:101d800010c0b3003b02070008c8bf008080fb0002
:101d900009c8bf000080fb004800dd0001007000a2
:101da00063006000e30f500008003a00d07528007f
:101db000a6150700008820001000be00a200200029
:101dc000ea150700a1150700210907008400a900f2
:101dd00008c8bf008080fb0009c8bf000080fb006e
:101de0004800dd00010070004d00de006100600071
:101df0000004e00001003200d1e2a9000080fa00f6
:101e00004f05be004f04be004f03be004f02be0090
:101e10004f01be004f00be003600f9000040060032
:101e20000600fa0005e1a9008c60a9000000eb00a3
:101e3000000888008460a9005109200091407800c2
:101e4000f0c8b30000c0600001c6b30001407000dc
:101e500095e0b70021088000f0fc2f0000806000b2
:101e6000200888007180200091407800c0c3b30032
:101e700080cf500013013a0022c8bf008080fb00d1
:101e800023c8bf000080fb004800dd000100700097
:101e90006101b8000080eb008080eb00020140008f
:101ea000838148001207980023079800d001200082
:101eb000010020001e019000ae019000800f510033
:101ec000818f5900ed003e001e009000ae00900092
:101ed000006001001d0037002e0037004000370071
:101ee000520037006400370075003700e300370008
:101ef000e2003700e100370084003700df003700e0
:101f000094003700dd003700dc003700a400370004
:101f1000da003700d9003700d8003700d700370083
:101f2000b2003700d5003700d4003700d3003700a7
:101f3000d2003700d1003700d0003700cf00370083
:101f4000ce003700cd003700ba00370028c8bf00e8
:101f500060406000e1c4b3000140700028e8b700b1
:101f600029c8bf006040600031ccb3000140700060
:101f700029e8b7002ac8bf00604060000044a00004
:101f80002ae8b7002bc8bf00604060002be8b7000c
:101f90005a01370028c8bf006040600031cdb3004f
:101fa0000140700028e8b70029c8bf006040600009
:101fb00001c3b3000140700029e8b7002ac8bf0080
:101fc0006040600001c2b300014070002ae8b70021
:101fd0002bc8bf00604060002be8b7004701370006
:101fe00028c8bf0060406000d1c3b300014070004a
:101ff00028e8b70029c8bf006040600091c4b30062
:102000000140700029e8b7002ac8bf0060406000a6
:1020100001c2b300014070002ae8b7002bc8bf001e
:10202000604060002be8b7003401370028c8bf00cb
:102030006040600071cab3000140700028e8b7003a
:1020400029c8bf006040600011c6b30001407000a5
:1020500029e8b7002ac8bf006040600001c2b30091
:10206000014070002ae8b7002bc8bf006040600044
:102070002be8b7002101370028c8bf00604060008e
:102080001041b30028e8b70029c8bf0060406000d5
:10209000a1c7b3000140700029e8b7002ac8bf00fb
:1020a0006040600001c2b300014070002ae8b70040
:1020b0002bc8bf00604060002be8b7000f0137005d
:1020c00028c8bf0060406000b1c7b3000140700085
:1020d00028e8b70029c8bf006040600021c9b300ec
:1020e0000140700029e8b7002ac8bf0060406000c6
:1020f00001c2b300014070002ae8b7002bc8bf003e
:10210000604060002be8b700fc00370028c8bf0023
:10211000604060000034a00028e8b70029c8bf0074
:1021200060406000d1c3b3000140700029e8b700ef
:102130002ac8bf006040600001c3b30001407000c6
:102140002ae8b7002bc8bf00604060002be8b7004a
:10215000ea00370028c8bf0060406000d1c3b30068
:102160000140700028e8b70029c8bf006040600047
:1021700091c4b3000140700029e8b7002ac8bf002d
:102180006040600001c3b300014070002ae8b7005e
:102190002bc8bf00604060002be8b700d7003700b5
:1021a00028c8bf0060406000c1c8b3000140700093
:1021b00028e8b70029c8bf0060406000b1c5b3007f
:1021c0000140700029e8b7002ac8bf0060406000e5
:1021d00001c3b300014070002ae8b7002bc8bf005c
:1021e000604060002be8b700c400370028c8bf007b
:1021f000604060001041b30028e8b70029c8bf0064
:1022000060406000a1c7b3000140700029e8b7003a
:102210002ac8bf006040600001c3b30001407000e5
:102220002ae8b7002bc8bf00604060002be8b70069
:10223000b200370028c8bf0060406000a041b30072
:1022400028e8b70029c8bf006040600071cbb30028
:102250000140700029e8b7002ac8bf006040600054
:1022600001c3b300014070002ae8b7002bc8bf00cb
:10227000604060002be8b700a000370028c8bf000e
:1022800060406000a041b30028e8b70029c8bf0043
:102290006040600071cbb3000140700029e8b700d6
:1022a0002ac8bf006040600001c3b3000140700055
:1022b0002ae8b7002bc8bf00604060002be8b700d9
:1022c0008e003700718020009140780020c3b30059
:1022d00080cf500089003a0022c8bf008080fb00f8
:1022e00023c8bf000080fb004800dd000100700033
:1022f000000f78009e007800e58f50003600320015
:102300001e017800e50f510007003e009e01780095
:10231000e18f51000b0032001e007800e20f5000e8
:102320001a003200640037009e007800ea8f5000e7
:102330003c0032001e017800f90f51004c003200c1
:102340005d00370028c8bf0060406000f1c5b300e1
:102350000140700028e8b70029c8bf006040600055
:10236000a1ceb3000140700029e8b7002ac8bf0021
:10237000604060000044a0002ae8b7002bc8bf00fe
:10238000604060002be8b7005c00370028c8bf0041
:102390006040600071c9b3000140700028e8b700d8
:1023a00029c8bf0060406000a1c3b30001407000b5
:1023b00029e8b7002ac8bf006040600001c2b3002e
:1023c000014070002ae8b7002bc8bf0060406000e1
:1023d0002be8b7004900370028c8bf006040600004
:1023e000f1cdb3000140700028e8b70029c8bf0054
:1023f0006040600021c9b3000140700029e8b700c7
:102400002ac8bf006040600001c2b30001407000f4
:102410002ae8b7002bc8bf00604060002be8b70077
:102420003600370028c8bf0060406000d1c3b30049
:102430000140700028e8b70029c8bf006040600074
:1024400091c4b3000140700029e8b7002ac8bf005a
:102450006040600001c3b300014070002ae8b7008b
:102460002bc8bf00604060002be8b7002300370096
:1024700028c8bf0060406000a041b30028e8b70052
:1024800029c8bf006040600071cbb30001407000fc
:1024900029e8b7002ac8bf006040600001c3b3004c
:1024a000014070002ae8b7002bc8bf006040600000
:1024b0002be8b7001100370028c8bf00604060005b
:1024c000a041b30028e8b70029c8bf006040600001
:1024d00071cbb3000140700029e8b7002ac8bf00e3
:1024e0006040600001c3b300014070002ae8b700fb
:1024f0002bc8bf00604060002be8b70028c8bf00b1
:102500008080fb0029c8bf000080fb004800dd0080
:1025100001007000100888002ac8bf008080fb00fe
:102520002bc8bf000080fb004800dd0001007000e8
:10253000800078002008800000807000200888005b
:102540000000eb00804588008c60a8000080fa0045
:10255000000006000000fa000000eb009008880070
:102560000000eb00100a88000000eb00300a880031
:102570008c20a9008420a9008c80a9008480a90057
:1025800096c0bf007040b30096e0b700410920003c
:102590009140780000c7b30000c0700094e0b7001d
:1025a00020002000300a8800418920000000eb0054
:1025b00080087800418920000000eb00900098001e
:1025c000418920000000eb00a00098004189200014
:1025d0000000eb00b000980030002000100a8800d6
:1025e000c18920000000eb0080087800c18920002c
:1025f0000000eb0090009800c18920000000eb0073
:10260000a0009800c18920000000eb00b0009800f5
:1026100014c8bf008080fb0015c8bf000080fb000d
:102620004800dd0001007000700888000000eb0029
:102630005008880084e0a9000000eb00a045880055
:102640007109200091407800f0c8b30000c060001c
:1026500001c3b3000140700097e0b7008ce0a80010
:1026600013e1a8008c80a8008c20a8000080fa004c
:10267000000006006600fa00881f7800006f9800ce
:10268000a8c8bf000004e000bf01320008c8bf00b6
:102690008080fb0009c8bf000080fb004800dd000f
:1026a000010070004200de00610060000004e000f4
:1026b00001003200d1e2a8000e0078006011b800dd
:1026c0000288be00640040006011b8000288be00ad
:1026d000640040006011b8000288be006400400041
:1026e0006011b8000288be00640040006011b800ac
:1026f0000288be00640040006011b8000288be007d
:10270000640040006011b8000288be006400400010
:102710006011b8000288be00640040006011b8007b
:102720000288be00640040006011b8000288be004c
:10273000117628000e00780043f707000e6890001d
:102740000004e00004003a00517628000e007800f2
:102750003df707000a0037000e689000e14f500077
:1027600004003a00817628000e00780036f7070052
:1027700003003700b17628000e00780032f707001a
:10278000b0458000c14580000002be0061004000ed
:10279000e0804800b0458800c1458800a2002000c4
:1027a0000400be0071130700800078000e0078005e
:1027b00025f7070078802000184478000800fb0007
:1027c000cf80de0054f707001037980021379800bb
:1027d0000804e00007003d00020020000338240048
:1027e0001e309000ae30900077f707001037980049
:1027f0002137980002002500337c24001e30900011
:10280000ae309000cdf7070002002500338c240085
:10281000caf70700702f98000137980080882000c1
:102820001001be00522f9800632f98005e2a90007e
:10283000ee2a9000e00f5200e08f5a0006003500ab
:102840005e289000ee28900033f70700302f9800a4
:10285000412f9800160037005e289000610160004b
:102860006000b80003002000020070008380700048
:102870005e2a9000ee2a90008501d1000481d300e9
:10288000020070008380700023f70700302f98004b
:10289000412f98003e299000ce2990003e289000bc
:1028a000ce28900048f70700302f9800412f98005d
:1028b0003e299000ce2990007e2890008e30900016
:1028c000d2f7070030468800414688000ac8bf009a
:1028d0008080fb000bc8bf000080fb004800dd00cb
:1028e00001007000cf80de000bf707003246800049
:1028f0004346800034f70700304688004146880090
:10290000e17628000e007800cff607003046800000
:1029100041468000fff70700a200200013130700c4
:10292000800078000e007800c7f607002cc8bf00b2
:102930008080fb002dc8bf000080fb004800dd0048
:1029400001007000000478006140b900f2f6070051
:10295000102f9800212f98000800e00007003d008c
:1029600002002000037824001e289000ae2890006a
:1029700015f70700102f9800212f98008844800039
:102980006140b900e4f6070070279800012f980015
:102990000800e00007003d0002002000037824004a
:1029a0007e2090008e28900007f70700702798007f
:1029b000012f9800b2fd2000930424007e20900097
:1029c0008e2890005df70700502798006127980037
:1029d000808820001001be0032279800432798000d
:1029e0003e229000ce229000e00f5200e08f5a006d
:1029f000060035003e209000ce209000c6f607006d
:102a00001027980021279800160037003e209000dc
:102a1000610160006000b800030020000200700047
:102a2000838070003e229000ce2290008501d1006c
:102a30000481d3000200700083807000b6f60700a6
:102a400010279800212798001e219000ae219000a9
:102a50001e209000ae209000dbf6070010279800a3
:102a6000212798001e219000ae2190005e2090004a
:102a7000ee20900065f70700c7f707000001be00d1
:102a80001e289000ae28900060f70700504688008e
:102a900061468800e17628000e0078006af607009b
:102aa00050468000614680009af70700a20020008f
:102ab000ae120700800078000e00780062f6070072
:102ac000008820001001be00721f980003279800a4
:102ad0007e1a90008e229000e00f5200e08f5a0084
:102ae000060035007e1890008e2090008af60700c0
:102af000501f9800611f9800160037007e18900044
:102b0000610160006000b800030020000200700056
:102b1000838070007e1a90008e2290008501d10083
:102b20000481d30002007000838070007af60700f1
:102b3000501f9800611f98005e199000ee199000d8
:102b40005e189000ee1890009ff60700501f980046
:102b5000611f9800884480006140b9006ef607004c
:102b6000301f9800411f98000800e00007003d005a
:102b700002002000037824003e189000ce18900038
:102b800091f60700301f9800411f980002002000b6
:102b900003002c003e189000ce1890001bf7070091
:102ba0000001be005e189000ee18900086f6070047
:102bb000101f9800211f9800808820001001be007f
:102bc00072179800031f98007e1290008e1a9000d2
:102bd000e00f5200e08f5a00060035007e10900092
:102be0008e1890004cf60700501798006117980057
:102bf000160037007e109000610160006000b80090
:102c00000300200002007000838070007e1290009c
:102c10008e1a90008501d1000481d300020070005b
:102c2000838070003cf607005017980061179800e9
:102c30005e119000ee1190005e109000ee1090007a
:102c400061f6070050179800611798005e11900018
:102c5000ee1190001e189000ae189000ebf60700e1
:102c600002002000433b2400b4f6070070468800b1
:102c70008146880070468000814680000200200066
:102c8000432b24004ff607007046880081468800d9
:102c900070468000814680000200200043332400fb
:102ca0003ff707000000e00001003c00070037008c
:102cb000704680008146800002002000433b2400d3
:102cc00040f6070070468800814688007046800004
:102cd0008146800002002000a347240097f60700e9
:102ce0007046880081468800e17628000e00780052
:102cf000d5f50700704680008146800005f7070083
:102d0000a200200019120700800078000e00780051
:102d1000cdf50700e17628000e007800caf507001f
:102d20000e007800c91107000e007800d5f50700e5
:102d3000800078000e007800590507009046880052
:102d400090468000010020000201200007120700c9
:102d5000be1107003e050700d10f070008c8bf00dd
:102d60008080fb0009c8bf000080fb004800dd0038
:102d7000010070004200de00610060000004e0001d
:102d800001003200d1e2a9004f0478000080fa006f
:102d9000000006008000fa00881f7800206f98006d
:102da000a8c8bf000004e000f802320008c8bf0055
:102db0008080fb0009c8bf000080fb004800dd00e8
:102dc000010070004200de00610060000004e000cd
:102dd00001003200d1e2a9000e80e8006011b800c5
:102de0000288be00640040006011b8000288be0086
:102df000640040006011b8000288be00640040001a
:102e00006011b8000288be00640040006011b80084
:102e10000288be00640040006011b8000288be0055
:102e2000640040006011b8000288be0064004000e9
:102e30006011b8000288be00640040006011b80054
:102e40000288be000000eb00000f78008e80e800d2
:102e5000a0cab300804878008e80e80010c0b3009c
:102e6000904098008e80e8000040eb00a040980061
:102e70008e80e80060c2b300b040980002c8bf0076
:102e80008080fb0003c8bf000080fb004800dd001d
:102e9000010070008000780000f02f0000806000ca
:102ea0004800de00804078000e80e8004140980035
:102eb00002c8bf008080fb0003c8bf000080fb0089
:102ec0004800dd0001007000804078000e80e800be
:102ed00051409800d0458000e1458000020020006c
:102ee00003f02f00000278008102780002007800d1
:102ef0008300780000016200018062006102b80076
:102f000044379800553798004e309000de309000de
:102f1000c000dd00000020004037980051379800c5
:102f20004e309000de3090006112b80044379800b7
:102f3000553798004e319000de319000020070004d
:102f4000838070004808de00010020008040780087
:102f50000e80e80061409800d0458000e145800087
:102f600002002000f30f20000002780081027800a8
:102f70000200780083007800000162000180620096
:102f80006102b80064379800753798006e30900081
:102f9000fe309000c000dd00000020006037980087
:102fa000713798006e309000fe3090006112b800ca
:102fb00064379800753798006e319000fe319000ac
:102fc00002007000838070004008de0001002000d5
:102fd000804078000e80e80071409800d045800065
:102fe000e145800002f02f0003002000000278007d
:102ff00081027800020078008300780000016200fe
:10300000018062006102b800043f9800153f9800fb
:103010000e3890009e389000c000dd0000002000b7
:10302000003f9800113f98000e3890009e389000a5
:103030006112b800043f9800153f98000e399000c7
:103040009e3990000200700083807000c809dd0086
:103050004800de0000807100c808de008040780073
:103060000e80e80001489800d0458000e1458000ce
:10307000804078000e80e80011489800f0458000fc
:10308000014680000200200003f02f0000027800bb
:10309000810278000200780083007800000162005d
:1030a000018062006102b800243f9800353f98001b
:1030b0002e389000be389000c000dd0000002000d7
:1030c000203f9800313f98002e389000be38900085
:1030d0006112b800243f9800353f98002e399000c7
:1030e000be39900002007000838070004808de0046
:1030f00001002000804078000e80e8002148980000
:10310000f04580000146800002002000f30f2000ff
:1031100000027800810278000200780083007800c5
:1031200000016200018062006102b800443f980023
:10313000553f98004e389000de389000c000dd000a
:1031400000002000403f9800513f98004e3890000a
:10315000de3890006112b800443f9800553f980057
:103160004e399000de3990000200700083807000bc
:103170004008de0001002000804078000e80e8005a
:1031800031489800f04580000146800002f02f0091
:10319000030020000002780081027800020078001d
:1031a0008300780000016200018062006102b800c3
:1031b000643f9800753f98006e389000fe3890008c
:1031c000c000dd0000002000603f9800713f9800c3
:1031d0006e389000fe3890006112b800643f98008d
:1031e000753f98006e399000fe3990000200700023
:1031f00083807000c809dd004800de000080710097
:10320000c808de00804078000e80e8004148980041
:10321000f045800001468000804078000e80e80084
:10322000514898008e80e8000040eb00e04898008c
:103230008e80e8000040eb00f04898002cc8bf00ea
:103240008080fb002dc8bf000080fb004800dd002f
:1032500001007000000478006140b900aef407007e
:1032600020379800313798000800e00007003d0043
:1032700002002000037824002e309000be30900021
:10328000d1f4070020379800313798008844800037
:103290006140b900a0f4070000379800113798008a
:1032a0000800e00007003d00020020000378240031
:1032b0000e3090009e309000c3f407000037980055
:1032c00011379800b2fd2000930424000e309000c6
:1032d0009e30900019f50700602f9800712f98001c
:1032e000808820001002be00442f9800552f9800bf
:1032f0004e289000de289000e00f5000e08f58002c
:10330000060035004e289000de28900082f4070069
:10331000202f9800312f9800160037004e2890007b
:10332000610160006000b80003002000020070002e
:10333000838070004e2a9000de2a90008501d10023
:103340000481d300020070008380700072f40700d3
:10335000202f9800312f98002e299000be29900030
:103360002e289000be28900097f40700202f980088
:10337000312f98002e299000be2990006e289000d1
:10338000fe28900021f5070083f507000001be002c
:103390002e309000be3090001cf50700504688008b
:1033a00061468800008820001001be00022f9800ae
:1033b000132f98000e2a90009e2a9000e00f5200d2
:1033c000e08f5a00060035000e2890009e289000dd
:1033d00051f4070060279800712798001600370005
:1033e0000e289000610160006000b800030020001a
:1033f00002007000838070000e2a90009e2a9000c8
:103400008501d1000481d300020070008380700028
:1034100041f4070060279800712798006e21900002
:10342000fe2190006e209000fe20900066f40700c0
:103430006027980071279800884480006140b90097
:1034400035f4070040279800512798000800e00055
:1034500007003d0002002000037824004e20900069
:10346000de20900058f4070040279800512798006c
:103470000200200003002c004e209000de2090006f
:10348000e2f407000001be006e209000fe209000d4
:103490004df40700202798003127980080882000ed
:1034a0001001be0002279800132798000e229000fa
:1034b0009e229000e00f5200e08f5a000600350077
:1034c0000e2090009e20900013f40700601f9800cb
:1034d000711f9800160037000e20900061016000f7
:1034e0006000b800030020000200700083807000bc
:1034f0000e2290009e2290008501d1000481d3000d
:10350000020070008380700003f40700601f9800c1
:10351000711f98006e199000fe1990006e189000af
:10352000fe18900028f40700601f9800711f980093
:103530006e199000fe1990002e209000be20900081
:10354000b2f4070002002000433b24007bf4070094
:103550007046880081468800704680008146800061
:1035600002002000432b240016f407007046880058
:10357000814688007046800081468000020020005d
:103580004333240006f507000000e00001003c0082
:10359000070037007046800081468000020020004e
:1035a000433b240007f407007046880081468800ea
:1035b0007046800081468000b2fd20009304240004
:1035c0005ef4070002002000433324008ff407005c
:1035d0007046880081468800600220000e0040008e
:1035e00052468000634680000288be0060022000d0
:1035f0000e004000b04090000e80e800015098009e
:10360000600220000e004000a04090000e80e80004
:1036100011509800600220000e0040009040900081
:103620000e80e80021509800600220000e0040004b
:10363000904078000e80e800315098006002200031
:103640000e00400074468000854680000488be005d
:10365000600220000e004000b04090000e80e800a4
:1036600041509800600220000e004000a0409000f1
:103670000e80e80051509800600220000e004000cb
:10368000904090000e80e800615098006002200099
:103690000e004000904078000e80e80071509800c5
:1036a000b0458000c145800061004000e0804800d6
:1036b000b0458800c1458800788020001844780013
:1036c0000800fb00cf80de0093f30700401f980046
:1036d000511f98000804e00007003d000200200090
:1036e000033824004e189000de189000b6f307004f
:1036f000401f9800511f980002002500338c2400c1
:103700004e189000de1890000cf40700201f98005f
:10371000311f9800808820001001be00021f980011
:10372000131f98000e1a90009e1a9000e00f52008e
:10373000e08f5a00060035000e1890009e18900089
:1037400075f307006017980071179800160037008e
:103750000e189000610160006000b80003002000b6
:1037600002007000838070000e1a90009e1a900074
:103770008501d1000481d3000200700083807000b5
:1037800065f3070060179800711798006e1190009c
:10379000fe1190006e109000fe1090008af307005a
:1037a00060179800711798006e119000fe1190003c
:1037b0002e189000be18900014f4070030468800c0
:1037c000414688000ac8bf008080fb000bc8bf00cc
:1037d0000080fb004800dd0001007000cf80de00ab
:1037e0004df3070002002400c361240007f4070022
:1037f000324680004346800073f30700304688005d
:1038000041468800600220000e00400032468000e1
:10381000434680000288be00600220000e00400087
:10382000b04090000e80e80001589800600220002f
:103830000e004000a04090000e80e8001158980053
:10384000600220000e004000904090000e80e800d2
:1038500021589800600220000e004000904078003f
:103860000e80e800315898008e80e8000040eb00a0
:10387000c05898008e80e8000040eb00d0589800b7
:103880008e80e8000040eb00e05898008e80e80051
:103890000040eb00f05898008e80e8000040eb00fc
:1038a000806098008e80e8000040eb0090609800f7
:1038b0008e80e8000040eb00a06098008e80e80059
:1038c0000040eb00b06098000000eb00000f7800b3
:1038d0000b0037000fc2bf00624060000004e00030
:1038e000fcff3a009e0078000e80e8000080400057
:1038f000104078000080fb00801088001e0fe80058
:10390000300220009e0f1000f2ff34000e80e8000d
:103910004102200062020700904688000fc2bf00eb
:10392000624060000004e000fcff3a009146800025
:1039300000f02f00008060004800de000080fb00e7
:10394000801088000fc2bf00624060000004e000e9
:10395000fcff3a00904680000080fb008010880049
:1039600008c8bf008080fb0009c8bf000080fb00c2
:103970004800dd00010070004200de0061006000d0
:103980000004e00001003200d1e2a9004f047800f9
:103990000080fa00000006003600f800809fbe009c
:1039a000829fbe00849fbe00869fbe00889fbe008f
:1039b0008a9fbe000000fa00500880006105b80030
:1039c000a04580006104b80014c8bf008080fb00df
:1039d00015c8bf000080fb004800dd00010070003a
:1039e0006103b8008800780006007800000ab8007b
:1039f00007c0b900050178000001410009b0b90015
:103a000000014100820278000a0042008b804a00d7
:103a1000028820000089be0008c8bf008080fb002b
:103a200009c8bf000080fb004800dd0001007000f5
:103a30004500de00610060000004e000010032008b
:103a4000d1e2a800804580000000e80080458800a1
:103a500007c8bf008081fb0022c8bf008080fb0038
:103a600023c8bf000080fb004800dd00010070009b
:103a700000017800110009008281d80080007800e0
:103a800080458000808f50001000360000882000a4
:103a90001000be00f045880001468800a8c8bf009d
:103aa000e24f500003003a000040eb00b9fc070071
:103ab0001c003700a8c8bf00e14f500019003a00b1
:103ac0000040eb00ebfa070016003700d0458000fd
:103ad000e145800061004000e0804800d04588005a
:103ae000e14588006000b800f04588000146880084
:103af000a8c8bf00e24f500003003a0020c0b30046
:103b0000a4fc070005003700a8c8bf00e14f500023
:103b100002003a0020c0b300d6fa07000000eb0014
:103b2000804588002ec8bf00e14f500010003a00c9
:103b300007c8bf008081fb0022c8bf008080fb0057
:103b400023c8bf000080fb004800dd0001007000ba
:103b500000017800110009008281d8008000e9008e
:103b600080458000808f500001003a0005e1a900e7
:103b70008460a90008c8bf008080fb0009c8bf009e
:103b80000080fb004800dd00010070004500de0001
:103b9000610060000004e00001003200d1e2a900f1
:103ba0000080fa004f05be004f04be004f03be0068
:103bb0004f02be004f01be004f00be003600f900ac
:103bc00000400600809fbe000000fa0008c8bf0049
:103bd0008080fb0009c8bf000080fb004800dd00ba
:103be000010070004600de00610060000004e0009b
:103bf00001003200d1e2a800a04580000000e800ea
:103c0000a045880084e0a90008c8bf008080fb00b0
:103c100009c8bf000080fb004800dd000100700003
:103c20004600de00610060000004e0000100320098
:103c3000d1e2a9000080fa004f00be00004006005b
:103c40003600f800809fbe00829fbe00849fbe00a9
:103c5000869fbe000000fa00500880006102b80094
:103c600016c8bf008080fb0017c8bf000080fb00a3
:103c70004800dd00010070000001780018c8bf0096
:103c80008080fb0019c8bf000080fb004800dd00f9
:103c90000100700080017800040041008580490027
:103ca000828820000089be000cc8bf008080fb0015
:103cb0000dc8bf000080fb004800dd00010070005f
:103cc0005008880008c8bf008080fb0009c8bf00fa
:103cd0000080fb004800dd00010070004c00de00a9
:103ce000610060000004e00001003200d1e2a800a1
:103cf00008c8bf008080fb0009c8bf000080fb002f
:103d00004800dd00010070004300de00610060003b
:103d10000004e00001003200d1e2a8000000eb0046
:103d2000a045880008c8bf008080fb0009c8bf000c
:103d30000080fb004800dd000100700065006000ad
:103d4000e50f500016003a0000772800bf0d07006d
:103d5000808820001000be00a2002000030e070093
:103d6000ba0d0700e0762800b80d070080448000f7
:103d700001002000a2002000fc0d0700b30d070089
:103d8000e0762800b10d0700a0458000010020006a
:103d9000a2002000f50d0700ac0d07002c01070064
:103da0008420a90008c8bf008080fb0009c8bf00ac
:103db0000080fb004800dd00010070004300de00d1
:103dc000610060000004e00001003200d1e2a900bf
:103dd0000080fa004f03be004f02be004f01be003c
:103de0004f00be003600f900004006003600f80023
:103df000809fbe00829fbe00849fbe00869fbe0043
:103e00000000fa00500880008044880008c8bf0005
:103e10008080fb0009c8bf000080fb004800dd0077
:103e2000010070004c00de00610060000004e00052
:103e300010003200d1e2a900a0772800830d07000e
:103e40009044800001002000a2002000c70d070060
:103e50007e0d0700e07628007c0d0700a04580005d
:103e600001002000a2002000c00d0700770d070010
:103e7000f700070008c8bf008080fb0009c8bf002a
:103e80000080fb004800dd00010070004400de00ff
:103e9000610060000004e00001003200d1e2a800ef
:103ea000808820001001be008044800001002000b6
:103eb00000015100818159009044800001002000e0
:103ec0000200400083804800828820002001980082
:103ed00031019800804480009044880008c8bf00e9
:103ee0008080fb0009c8bf000080fb004800dd00a7
:103ef0000100700066006000e60f500017003a00f5
:103f000010782800510d070080882000b000900034
:103f100020009000a2002000940d07004b0d070028
:103f2000e0762800490d0700904480000100200041
:103f3000a20020008d0d0700440d0700e076280048
:103f4000420d0700a045800001002000a2002000d3
:103f5000860d07003d0d0700bd0007008480a90005
:103f600008c8bf008080fb0009c8bf000080fb00bc
:103f70004800dd00010070004400de0061006000c8
:103f80000004e00001003200d1e2a9000080fa0044
:103f90004f03be004f02be004f01be004f00be00e7
:103fa0003600f900004006000000fa000000eb00b7
:103fb000601088000cc2a9000ca2a9000d42a80044
:103fc0000000eb00701088000fe2a9000f62a9004a
:103fd0000e22a9001cc8bf008080fb001dc8bf00c6
:103fe0000080fb004800dd0001007000a010880088
:103ff000810920009140780000c7b30000c0700024
:1040000098e0b700910920009140780080cfb3007c
:1040100000c060000004a00099e0b7008d20a80057
:104020000de2a8000f42a8000080fa000000060080
:104030000400fa00100798000000eb00000f780061
:1040400002003700000000001e0fe8001e00900074
:104050009e0f1000fbff35000080fa0000000600f4
:104060000200fa0010c0b300540007004c003700f3
:1040700008c8bf008080fb0009c8bf000080fb00ab
:104080004800dd0001007000610060000004e000f5
:1040900001003200d1e2a80008c8bf008080fb0008
:1040a00009c8bf000080fb004800dd00010070006f
:1040b0000000e00001003a00d1e2a9009d070700de
:1040c000a8c8bf000080fb00000f7800c00f2000d0
:1040d0009e007800808f50001e003200c00f20002c
:1040e0009e007800808f500001003c0022003700c5
:1040f000d00f20009e007800808f50000500320015
:10410000e00f20009e007800808f500009003200f0
:10411000190037000040eb0028000700b0782800a5
:10412000ca0c07004a000700803e2000c0ff0700bd
:104130001100370010c0b30020000700a07928004c
:10414000c20c070042000700803e2000b8ff0700b5
:104150000900370020c0b300eef30700c07a280042
:10416000ba0c07003a000700803e2000b0ff0700ad
:10417000e0cfb300a8e8b70008c8bf008080fb000c
:1041800009c8bf000080fb004800dd00010070008e
:10419000610060000004e00001003200d1e2a900eb
:1041a000a8c8bf00e14f4000b1ff3a001c00070063
:1041b0000000eb000080fa00000006000200fa0098
:1041c000004f78007ff6070010c0b3009e4f10002c
:1041d00002003a0010c0b300cef3070079f60700e2
:1041e00071ff07000ef70700daf8070093f60700e3
:1041f00006c8bf00a8e8b7008c00a8002ec8bf0002
:10420000e14f50000100320005e1a8006000b80055
:10421000b0458800c14588000080fa000000060013
:104220000000fa0085f6070066f60700d1e2a90053
:10423000ca02a900ca22a900ca42a900ca62a900ea
:10424000ca82a900cac2a9000080fa0000000600c4
:104250000000fa000fc2bf00624060000004e000ee
:10426000fcff3a006145800000f02f0000806000f4
:104270004800de000080fb00801088000fc2bf00f5
:10428000624060000004e000fcff3a0060458000ee
:104290000080fb00801088000080fa00000006000b
:1042a0000c00fa0040079800510798000080eb00ce
:1042b000300798000000eb00000f78002400370062
:1042c0003e0090004801de009e0078004e00900005
:1042d00000804000104078000080fb000000690072
:1042e000200798003e0090004800dd00300798004d
:1042f0002e009000c400de002e00900000806800b8
:1043000010079800be0090001e009000008068001a
:10431000300798001e0090004500dd00100798004f
:10432000be0090001e0090000080680030079800da
:104330001e0090004700dd0010079800be009000ae
:104340001e00900000806800300798001e0fe800f3
:104350005e0090009e0f1000d9ff39003e009000d3
:104360000080fa0000000600a600fa000000eb0042
:10437000000f78008e80e800a0cab3008048780063
:104380008e80e80010c1b300904098008e80e80055
:104390000040eb00a04098008e80e80000c4b3000d
:1043a000b040980002c8bf008080fb0003c8bf0077
:1043b0000080fb004800dd000100700080007800f4
:1043c00000f02f00008060004800de008040780090
:1043d0000e80e8004140980002c8bf008080fb00ca
:1043e00003c8bf000080fb004800dd000100700032
:1043f000804078000e80e80051409800d045800051
:10440000e14580000200200003f02f000002780048
:1044100081027800020078008300780000016200c9
:10442000018062006102b80074879800058f9800cf
:104430007e8090008e889000c000dd00000020008b
:1044400070879800018f98007e8090008e88900081
:104450006112b80074879800058f98007e819000e3
:104460008e89900002007000838070004808de0092
:1044700001002000804078000e80e8006140980034
:10448000d0458000e145800002002000f30f2000ad
:104490000002780081027800020078008300780032
:1044a00000016200018062006102b800148f980070
:1044b000258f98001e889000ae889000c000dd0017
:1044c00000002000108f9800218f98001e88900017
:1044d000ae8890006112b800148f9800258f980064
:1044e0001e899000ae8990000200700083807000e9
:1044f0004008de0001002000804078000e80e800c7
:1045000071409800d0458000e145800002f02f0006
:104510000300200000027800810278000200780089
:104520008300780000016200018062006102b8002f
:10453000348f9800458f98003e889000ce88900078
:10454000c000dd0000002000308f9800418f9800ef
:104550003e889000ce8890006112b800348f980099
:10456000458f98003e899000ce899000020070002f
:1045700083807000c809dd004800de000080710003
:10458000c808de00804078000e80e80001489800ee
:10459000d0458000e1458000804078000e80e80032
:1045a00011489800f045800001468000020020007c
:1045b00003f02f00000278008102780002007800ea
:1045c0008300780000016200018062006102b8008f
:1045d000548f9800658f98005e889000ee88900058
:1045e000c000dd0000002000508f9800618f98000f
:1045f0005e889000ee8890006112b800548f980099
:10460000658f98005e899000ee899000020070002e
:10461000838070004808de000100200080407800a0
:104620000e80e80021489800f04580000146800097
:1046300002002000f30f20000002780081027800c1
:1046400002007800830078000001620001806200af
:104650006102b800748f9800059798007e889000da
:104660008e909000c000dd0000002000708f980048
:10467000019798007e8890008e9090006112b8009b
:10468000748f9800059798007e8990008e91900015
:1046900002007000838070004008de0001002000ee
:1046a000804078000e80e80031489800f045800096
:1046b0000146800002f02f00030020000002780075
:1046c0008102780002007800830078000001620017
:1046d000018062006102b800149798002597980045
:1046e0001e909000ae909000c000dd000000200001
:1046f00010979800219798001e909000ae9090001f
:104700006112b80014979800259798001e919000a8
:10471000ae9190000200700083807000c809dd0037
:104720004800de0000807100c808de00804078008c
:104730000e80e80041489800f04580000146800066
:10474000804078000e80e80051489800e005200085
:104750000e0040006011b8000288be0064004000f6
:104760006011b8000288be00640040006011b8000b
:104770000288be00640040006011b8000288be00dc
:10478000640040006011b8000288be006400400070
:104790006011b8000288be00640040006011b800db
:1047a0000288be00640040006011b8000288be00ac
:1047b000640040006011b8000288be006400400040
:1047c0006011b8000288be00640040006011b800ab
:1047d0000288be00640040006011b8000288be007c
:1047e000e00520000e004000717c280016ef070055
:1047f00002c8bf008080fb0003c8bf000080fb0030
:104800004800dd000100700001002000a20020002f
:10481000560b070080007800e00520000e004000e5
:1048200009ef0700e00520000e004000017e28008f
:1048300005ef070030458000010020000201200044
:104840004a0b070080007800e00520000e004000c1
:10485000fdee0700e00520000e004000717e2800fc
:10486000f9ee070020458000010020000201200031
:104870003e0b070080007800e00520000e0040009d
:10488000f1ee0700e00520000e004000e17e280068
:10489000edee07000e80e800ee004000e00520008d
:1048a0000e0040002f000900b05878000103b1004d
:1048b0000003b1000000eb00000f78000b00370090
:1048c0000fc2bf00624060000004e000fcff3a003d
:1048d0009e0078000e80e8000080400010407800c4
:1048e0000080fb00801088001e0fe800d00320002d
:1048f0009e0f1000f2ff34000e80e800e10320005c
:1049000067fe0700904688000fc2bf00624060004b
:104910000004e000fcff3a009146800000f02f0008
:10492000008060004800de000080fb0080108800ee
:104930000fc2bf00624060000004e000fcff3a00cc
:10494000904680000080fb00801088000080fa0004
:10495000000006009600fa0000f798000000eb0047
:10496000100798000000eb00000f7800640047007b
:10497000c20520008000eb00acee0700e400470019
:10498000a0cab30080487800640047008ef0900011
:1049900011409800e40047000040eb00a040980060
:1049a000e4004700e0c5b300b040980002c8bf0073
:1049b0008080fb0003c8bf000080fb004800dd00d2
:1049c000010070008000780000f02f00008060007f
:1049d0004800de00804078006400470041409800b5
:1049e00002c8bf008080fb0003c8bf000080fb003e
:1049f0004800dd000100700080407800640047003e
:104a000051409800d0458000e14580000200200020
:104a100003f02f0000027800810278000200780085
:104a20008300780000016200018062006102b8002a
:104a3000143f9800253f98001e389000ae38900033
:104a4000c000dd0000002000103f9800213f9800ca
:104a50001e389000ae3890006112b800143f9800e4
:104a6000253f98001e399000ae399000020070007a
:104a7000838070004808de0001002000804078003c
:104a80006400470061409800d0458000e145800007
:104a900002002000f30f200000027800810278005d
:104aa000020078008300780000016200018062004b
:104ab0006102b800343f9800453f98003e389000ae
:104ac000ce389000c000dd0000002000303f98008c
:104ad000413f98003e389000ce3890006112b800f7
:104ae000343f9800453f98003e399000ce39900001
:104af00002007000838070004008de00010020008a
:104b0000804078006400470071409800d0458000e4
:104b1000e145800002f02f00030020000002780031
:104b200081027800020078008300780000016200b2
:104b3000018062006102b800543f9800653f980010
:104b40005e389000ee389000c000dd0000002000cc
:104b5000503f9800613f98005e389000ee3890001a
:104b60006112b800543f9800653f98005e3990008c
:104b7000ee3990000200700083807000c809dd00eb
:104b80004800de0000807100c808de008040780028
:104b90006400470001489800d0458000e14580004e
:104ba000804078006400470011489800f04580007c
:104bb000014680000200200003f02f000002780070
:104bc0008102780002007800830078000001620012
:104bd000018062006102b800743f98000587980068
:104be0007e3890008e809000c000dd000000200024
:104bf000703f9800018798007e3890008e8090006a
:104c00006112b800743f9800058798007e399000c3
:104c10008e81900002007000838070004808de00e2
:104c2000010020008040780064004700214898007f
:104c3000f04580000146800002002000f30f2000b4
:104c4000000278008102780002007800830078007a
:104c500000016200018062006102b80014879800c0
:104c6000258798001e809000ae809000c000dd0077
:104c70000000200010879800218798001e80900077
:104c8000ae8090006112b8001487980025879800c4
:104c90001e819000ae819000020070008380700041
:104ca0004008de00010020008040780064004700da
:104cb00031489800f04580000146800002f02f0046
:104cc00003002000000278008102780002007800d2
:104cd0008300780000016200018062006102b80078
:104ce00034879800458798003e809000ce809000e1
:104cf000c000dd0000002000308798004187980048
:104d00003e809000ce8090006112b80034879800f9
:104d1000458798003e819000ce819000020070008f
:104d200083807000c809dd004800de00008071004b
:104d3000c808de00804078006400470041489800c1
:104d4000f045800001468000804078006400470004
:104d50005148980040c8bf008080fb0041c8bf0098
:104d60000080fb004800dd000100700000017800b9
:104d700042c8bf008080fb0043c8bf000080fb002a
:104d80004800dd0001007000800178000000200074
:104d900001f02f0002027800000178000100780085
:104da00002016200008061006102b800548798002f
:104db000658798005e809000ee809000c000dd0066
:104dc0000000200050879800618798005e80900066
:104dd000ee8090006112b8005487980065879800b3
:104de0005e819000ee819000020070008380700070
:104df0004808de0001002000804078006400470081
:104e00006148980040c8bf008080fb0041c8bf00d7
:104e10000080fb004800dd00010070000001780008
:104e200042c8bf008080fb0043c8bf000080fb0079
:104e30004800dd00010070008001780000002000c3
:104e4000f10f2000020278000001780001007800d4
:104e500002016200008061006102b800748798005e
:104e6000058f98007e8090008e889000c000dd0045
:104e70000000200070879800018f98007e809000cd
:104e80008e8890006112b80074879800058f980092
:104e90007e8190008e8990000200700083807000f7
:104ea0004008de00010020008040780064004700d8
:104eb0007148980040c8bf008080fb0041c8bf0017
:104ec0000080fb004800dd00010070000001780058
:104ed00042c8bf008080fb0043c8bf000080fb00c9
:104ee0004800dd00010070008001780000f02f0014
:104ef0000100200002027800000178000100780023
:104f000002016200008061006102b800148f980005
:104f1000258f98001e889000ae889000c000dd00ac
:104f200000002000108f9800218f98001e889000ac
:104f3000ae8890006112b800148f9800258f9800f9
:104f40001e899000ae89900002007000838070007e
:104f5000c809dd004800de0000807100c808de00de
:104f600080407800640047000150980040c8bf00ae
:104f70008080fb0041c8bf000080fb004800dd00ce
:104f8000010070000001780042c8bf008080fb0073
:104f900043c8bf000080fb004800dd000100700036
:104fa000800178008240780064004700115098002a
:104fb000e40047000040eb00a0509800e4004700e8
:104fc00010c0b300b0509800640047007400400067
:104fd000448420000f000900345878000001b1001b
:104fe00002c8bf008080fb0003c8bf000080fb0038
:104ff0004800dd00010070008000780000f02f0004
:10500000008060004800de008040780064004700b7
:105010004160980002c8bf008080fb0003c8bf0049
:105020000080fb004800dd00010070008040780037
:105030006400470051609800e40047000040eb0026
:10504000e0609800e4004700f0c0b300f060980012
:10505000e40047000040eb0080689800e40047004f
:1050600010c0b30090689800e40047000040eb00d7
:10507000a0689800e400470010c0b300b068980032
:10508000e40047000040eb00c0689800e4004700df
:105090000040eb00d0689800000620000e004000a1
:1050a000000178006000b8000089be006401410082
:1050b0006000b8000089be00640141006000b800d3
:1050c0000089be00640141006000b8000089be0094
:1050d000000620000e00400000017800008524003a
:1050e000113425000089be0064014100f024250030
:1050f000d16225000089be00640141001003200038
:105100000009780064004700e10220008080400030
:10511000000620000e0040000f000900b058780083
:105120000101b1000001b100000620000e004000a6
:10513000000178006000b8000089be0064014100f1
:105140006000b8000089be00640141006000b80042
:105150000089be00640141006000b8000089be0003
:10516000020620000e01410010e4240011c42400b6
:105170000089be00f0742400110320002001980073
:105180003101980064004700e10320008080400066
:10519000000620000e0040000f000900b058780003
:1051a0000101b1000001b100e40047000040eb0044
:1051b000e0c89800e40047000040eb00f0c8980009
:1051c000e40047000040eb0080d09800e400470076
:1051d0000040eb0090d09800e400470020c0b300ee
:1051e000a0d09800e40047000040eb00b0d0980049
:1051f000e40047000040eb00c0d09800e400470006
:105200000040eb00d0d09800e40047000040eb00e5
:10521000e0d09800718020009140780020c3b30056
:1052200080cf500004003200e40047000040eb0053
:10523000f0d0980003003700e400470010c0b3002e
:10524000f0d09800e40047000040eb0080d89800c0
:10525000e40047000040eb0090d8980007c8bf006a
:105260008081fb0022c8bf008080fb0023c8bf00f4
:105270000080fb004800dd000100700000017800a4
:10528000110009008281d800100798009e0090004c
:1052900000f02f00008060004800de0080407800b1
:1052a0006400470021d898001e00900080407800dc
:1052b0006400470031d898000000eb00000f780030
:1052c0000b0037000fc2bf00624060000004e00026
:1052d000fcff3a009e007800640047000080400018
:1052e000104078000080fb00801088001e0fe8004e
:1052f000b00520009e0f1000f2ff3400640047004c
:10530000c1052000e6fb0700904688000fc2bf00e1
:10531000624060000004e000fcff3a00914680001b
:1053200000f02f00008060004800de000080fb00dd
:10533000801088000fc2bf00624060000004e000df
:10534000fcff3a00904680000080fb00801088003f
:105350000080fa00000006000000fa000040eb00a8
:10536000a8e8b700bafb0700007f2800370807004d
:10537000a07f28003508070002c8bf008080fb001e
:1053800003c8bf000080fb004800dd000100700082
:1053900001002000a2002000740807002b0807006d
:1053a000007e280029080700304580000100200009
:1053b000020120006d08070024080700b0802800c3
:1053c0002208070020458000010020000201200083
:1053d000660807001d080700508128001b08070009
:1053e00007c8bf000080fb0001002000a2002000d1
:1053f0005e080700150807006082280013080700f0
:1054000093fb07000080fa00000006002600fa0067
:105410000000eb00100798000000eb00000f780080
:105420008bfb0700a08228000808070088fb070004
:105430000000eb00000f7800b30037001e0078007a
:1054400020179800ae109000e18f50002c00320021
:105450002e109000e10f500004003c00ae109000b0
:105460000100e000080032007e0037002e1090009e
:10547000e20f500040003200ae109000e38f500069
:105480005b00320077003700640047006011b8000d
:105490000288be00640040006011b8000288be00af
:1054a000640040006011b8000288be006400400043
:1054b0006011b8000288be00640040006011b800ae
:1054c0000288be00640040006011b8000288be007f
:1054d000640040006011b8000288be006400400013
:1054e0006011b8000288be006400470001802000ff
:1054f0001f000900315878000002b1005900370040
:10550000640047006011b8000288be0064004000db
:105510006011b8000288be00640040006011b8004d
:105520000288be00640040006011b8000288be001e
:10553000640040006011b8000288be0064004000b2
:105540006011b8000288be00640040006011b8001d
:105550000288be00640040006011b8000288be00ee
:1055600064004700018220001f00090031587800c4
:105570000002b1003b003700640047006011b80032
:105580000288be00640040006011b8000288be00be
:10559000640040006011b8000288be006400400052
:1055a0006011b8000288be00640040006011b800bd
:1055b0000288be00640040006011b8000288be008e
:1055c000640040006011b8000288be006400400022
:1055d0006011b8000288be0064004700018420000a
:1055e0001f000900315878000002b1001d0037008b
:1055f000640047006011b8000288be0064004000eb
:105600006011b8000288be00640040006011b8005c
:105610000288be00640040006011b8000288be002d
:10562000640040006011b8000288be0064004000c1
:105630006011b8000288be00640040006011b8002c
:105640000288be00640040006011b8000288be00fd
:1056500064004700018620001f00090031587800cf
:105660000002b1000000eb00100798000d003700a9
:105670000fc2bf00624060000004e000fcff3a007f
:105680009e009000640047000080400010407800b9
:105690000080fb00801088001e0090000000e800e1
:1056a000100798001e009000ff0f5000f0ff36001a
:1056b0006400470001022000f9fa070090468800c4
:1056c0000fc2bf00624060000004e000fcff3a002f
:1056d0009146800000f02f00008060004800de004e
:1056e0000080fb00801088000fc2bf006240600095
:1056f0000004e000fcff3a00904680000080fb00c0
:10570000801088001e0fe800300020009e0f10005f
:105710004aff34000080fa00000006002800fa006a
:105720000000eb00200798000000eb001007980035
:105730000000eb00000f78000000eb00100798005d
:105740005b0037000000eb00200798000d003700d9
:105750000ec2bf00614060000004e000fcff3200a8
:105760002e01900090108000804078006600470075
:1057700000004100014878002e0090000000e80081
:10578000200798002e009000ff0f5000f0ff34001b
:105790000ec2bf00614060000004e000fcff320068
:1057a00091108000f00f2000008060004800dd00b4
:1057b000904688000ec2bf00614060000004e00017
:1057c000fcff320091108000f00f2000808060000c
:1057d00090468000008040009046880066004700a8
:1057e00001022000aefa0700800078009046800099
:1057f000808f50002b003a001e0090003017980058
:10580000be109000e18f5000140032003e10900056
:10581000e10f500004003c00be1090000100e000c9
:10582000080032001e0037003e109000e20f5000ca
:1058300010003200be109000e38f500013003200c1
:105840001700370066004700018020001f00090094
:10585000b05878000002b100110037006600470020
:10586000018220001f000900b05878000002b1003a
:105870000b00370066004700018420001f0009006c
:10588000b05878000002b1000500370066004700fc
:10589000018620001f000900b05878000002b10006
:1058a0001e0fe8001e0090000000e800100798009e
:1058b0001e009000e30f5000a2ff340064fa0700be
:1058c000400020009e0f100004003a003ef0070048
:1058d00010832800dd0607000200370070842800ce
:1058e000da0607005afa0700803e2000d0f90700c8
:1058f000e0cfb300a8e8b7000080fa00000006007f
:105900000600fa00004f78001e80fb006101b9001c
:10591000f0f92f00f1ff2f000201400083814800c1
:105920001207980023079800300120000100200092
:105930001e019000ae019000800f5100818f590030
:1059400074013e001e009000ae0090000060010057
:1059500013003700190037002c0037003f003700d4
:105960005200370065003700780037008c003700a0
:10597000a0003700b4003700c8003700dc00370053
:10598000f000370004013700180137002c01370000
:1059900040013700470137004e01370055013700fd
:1059a00008c8bf006040600008e8b70009c8bf0031
:1059b0006040600009e8b7005c01370008c8bf001c
:1059c0008080fb0009c8bf000080fb004800dd00ac
:1059d00001007000000178000200a000f00f20001c
:1059e0008000610008c8bf00604060000140700096
:1059f00008e8b700c810de0009c8bf0060406000ba
:105a00000140700009e8b7004801370008c8bf002e
:105a10008080fb0009c8bf000080fb004800dd005b
:105a200001007000000178000210a000f00f2000bb
:105a30008000610008c8bf00604060000140700045
:105a400008e8b700c810de0009c8bf006040600069
:105a50000140700009e8b7003401370008c8bf00f2
:105a60008080fb0009c8bf000080fb004800dd000b
