:020000040000fa
:080000000001040000000000f3
:020000040000fa
:10000800c4010000940100009a010000a001000052
:10001800a6010000c4010000c4010000c4010000e2
:10002800741a0000e21c0000c40100008a1b0000d2
:100038002a1d0000c4010000c4010000d01c0000fb
:10004800c4010000c8010000c4010000c401000090
:10005800c4010000c4010000c4010000c401000084
:10006800c4010000c4010000c4010000c401000074
:10007800c4010000c4010000c4010000c401000064
:100088001c020000c4010000c4010000c4010000fb
:10009800c4010000c4010000c4010000c401000044
:1000a800c4010000c4010000c4010000c401000034
:1000b800c4010000c4010000c4010000c401000024
:1000c800c4010000c4010000c4010000c401000014
:1000d800c4010000c4010000c4010000c401000004
:1000e800c4010000c4010000c4010000c4010000f4
:0800f800c4010000c401000076
:020000040000fa
:10010800c4010000ac010000b2010000b801000009
:10011800be010000c4010000c4010000c4010000c9
:10012800741a0000e21c0000c40100008a1b0000d1
:100138002a1d0000c4010000c4010000d01c0000fa
:10014800c4010000c8010000c4010000c40100008f
:10015800c4010000c4010000c4010000c401000083
:10016800c4010000c4010000c4010000c401000073
:10017800c4010000c4010000c4010000c401000063
:100188001c020000c4010000c4010000c4010000fa
:10019800c4010000c4010000c4010000c401000043
:1001a800c4010000c4010000c4010000c401000033
:1001b800c4010000c4010000c4010000c401000023
:1001c800c4010000c4010000c4010000c401000013
:1001d800c4010000c4010000c4010000c401000003
:1001e800c4010000c4010000c4010000c4010000f3
:0801f800c4010000c401000075
:020000040000fa
:100200000fa020000eff20000e018800000000005b
:1002100000012000200288000c000700a00c230031
:100220000100200011000700000020000000e00095
:100230000200320000000200000000005a1e02000e
:10024000000000000040da000000fe004440a90069
:10025000601120000000e0000300320000002000d8
:10026000a00188004440a800000006009101880019
:10027000800078000000eb0015003700e2804000ad
:1002800032a0b4009101ba00e280400032a0b40074
:100290009102ba00e280400032a0b4000002eb00fc
:1002a000472bde00f507b200602ce10004003a00a5
:1002b0000059eb008301e900fdff3e000400370018
:1002c0006128e100010032000082eb000400070019
:1002d0001101ba000200e000e8ff3a000000060049
:1002e0003159ba008301e9000c0032002159ba00eb
:1002f0008301e900080032000400e00003003a0036
:10030000e280400032a0b400f5ff370011d9ba00f6
:100310008301e900faff3a008100e800e180400033
:1003200032a0b400000006000000fa008020a900fe
:10033000ffff37000000fa008060a900ffff3700d0
:100340000000fa008040a900ffff37000000fa001b
:100350008080a900ffff37000000fa008020a9007c
:10036000ffff37000000fa008060a900ffff3700a0
:100370000000fa008040a900ffff37000000fa00eb
:100380008080a900ffff37000000fa00ffff370060
:10039000801f7800849fbe00861f78000000fa004e
:1003a0008520a9007410800061026200e00f5200f5
:1003b0001c003200449e2000144278008482fb001e
:1003c000444f8000848f52000d003e009510800045
:1003d000f40f200004826200544f8800449e2000e5
:1003e000144278000483fb00544f800004427800dc
:1003f000459f200085024300844a780004003700ae
:10040000444f80000442780004407800e4e9b700db
:10041000449e2000144278000442e8000440780022
:10042000e4e9b7000080fa004f0378004f02be00f5
:100430004f00780000400600801f7800849fbe00b7
:10044000861f78000000fa008700a900c410800011
:1004500061026200e00f52001c003200c49e2000c6
:10046000144278008482fb00844f8000848f520005
:100470000d003e00e5108000f40f200004826200b1
:10048000944f8800c49e2000144278000483fb002f
:10049000944f800004427800959f2000850243001d
:1004a000844a780004003700844f800004427800ba
:1004b00004407800ece9b700c49e200014427800a4
:1004c0000442e80004407800ece9b7000080fa003c
:1004d0004f0378004f02be004f0078000040060036
:1004e0000000fa00751080000410200004826200f1
:1004f00004f0a7000402ea000402e9004f22de0033
:1005000004427800044078000080fa0000000600f1
:100510000000fa000de2a9000f42a9008d20a900f9
:100520008d40a9008520a9008540a9000080fa001f
:10053000000006000200fa00000f78000042eb0005
:1005400004407800e4e9b700344f80004400200004
:10055000444f8800949f2000144278000002eb0072
:10056000544f88008520a9008540a9001e0278000c
:10057000044278006742620067426200674262009c
:100580000482fb00670262004422dd00c604800092
:10059000f5f82f008502630004827200c40488000d
:1005a000040720001e0262004422de00044278009c
:1005b000674262000482fb00670262004822dd009d
:1005c000c6048000f58f2f0085026300048272004c
:1005d000c40488009e027800688262004322de0024
:1005e00004427800614262000482fb006102620002
:1005f0004922dd0066048000f5df2f0085026300dc
:100600000482720064048800040820001e02620054
:100610004722de0004427800614262000482fb004f
:10062000610262004a22dd0066048000f5bf2f00ef
:100630008502630004827200640488000080fa006e
:10064000000006000000fa007410800004427800e8
:1006500061426200044078000080fa000000060059
:100660000a00fa0020079800310798004207980016
:100670000002eb00040f78003e029000140798007f
:10068000240037009e0278004e029000848f5200b2
:10069000020031001e0fe800030037002e02900018
:1006a0002000370000000000e6ff0700004278004d
:1006b000e04f5200f3ff32000002eb00040f78001d
:1006c0006410800066026200e60f520007003a00e4
:1006d000951080003e029000050a78003e029000ce
:1006e0000482e80034079800070037009410800067
:1006f000044278009e029000844a78001e02900016
:100700000402e800140798002e0290000402e90099
:10071000240798002e029000e00f5200e1ff3a00fb
:100720002e029000040078000080fa00000006000d
:100730000600fa00000f78001107980022079800c1
:100740002e029000a41088001e0278006410880019
:100750001e029000741088000080fa00000006005d
:100760000400fa00100798001e029000040f7800a1
:100770006410800066026200e60f52001e003a001c
:100780000c003700000000007510800004202000dd
:1007900004826200e00f5200fbff3a001e0290004c
:1007a00014027800841088001e0290000482e80081
:1007b000140798001e02900014027800e00f520007
:1007c000f0ff3a00110037000000000075108000b3
:1007d0000420200004826200e00f5200fbff3a0078
:1007e0001e027800144278000402fb008410880086
:1007f0001e0fe80001003700000000001e02780014
:1008000014427800e04f5200efff3a000080fa00f7
:10081000000006000000fa0064108000660262001a
:10082000e60f520002003a009410800003003700e7
:1008300095108000f40f200004826200040078000c
:100840000080fa00000006000200fa00000f7800a5
:100850000000000075108000042020000482620067
:10086000e00f5200fbff3a00641080006602620055
:10087000e60f520003003a001e0278008410880040
:1008800003003700f40f20001e026200841088006d
:100890000080fa00000006000000fa00c510800089
:1008a000041020000482620004f0a7000402ea00a1
:1008b0000402e9004f22de00044278000440780080
:1008c0000080fa00000006000000fa0017e2a9000c
:1008d0001942a9008f00a9008f20a9008700a90054
:1008e0008720a9000080fa00000006000200fa003c
:1008f000000f78000042eb0004407800ece9b700fc
:10090000744f800044002000844f8800e49f200042
:10091000144278000002eb00944f88008700a90081
:100920008720a9001e027800044278006742620016
:1009300067426200674262000482fb006702620055
:100940000605800085ff2f00850263000482720087
:1009500004058800040720001e0262004422de0015
:1009600004427800674262000482fb006702620072
:100970004422dd0006058000f5f82f0085026300a3
:1009800004827200040588009e027800688262007a
:100990004322de0004427800614262000482fb00d0
:1009a000610262004822dd0076048000f5ef2f002e
:1009b0008502630004827200740488000408200029
:1009c0001e0262004722de0004427800614262009b
:1009d0000482fb00610262004922dd00760480008f
:1009e000f5df2f0085026300048272007404880022
:1009f0000080fa00000006000000fa00c410800029
:100a00000442780061426200044078000080fa00ed
:100a1000000006000a00fa0020079800310798003d
:100a2000420798000002eb00040f78003e0290009d
:100a300014079800240037009e0278004e029000b0
:100a4000848f5200020031001e0fe80003003700bf
:100a50002e0290002000370000000000e6ff070093
:100a600000427800e04f5200f3ff32000002eb003a
:100a7000040f7800b410800066026200e60f520096
:100a800007003a00e51080003e029000050a780059
:100a90003e0290000482e800340798000700370007
:100aa000e4108000044278009e029000844a78009e
:100ab0001e0290000402e800140798002e02900025
:100ac0000402e900240798002e029000e00f520073
:100ad000e1ff3a002e029000040078000080fa0046
:100ae000000006000600fa00000f780011079800c9
:100af000220798002e029000f41088001e02780051
:100b0000b41088001e029000c41088000080fa0013
:100b1000000006000400fa00100798001e02900072
:100b2000040f7800b410800066026200e60f5200e5
:100b30001e003a000c00370000000000c5108000c5
:100b40000420200004826200e00f5200fbff3a0004
:100b50001e02900014027800d41088001e0290003b
:100b60000482e800140798001e0290001402780026
:100b7000e00f5200f0ff3a001100370000000000c3
:100b8000c51080000420200004826200e00f5200a3
:100b9000fbff3a001e027800144278000402fb00ba
:100ba000d41088001e0fe80001003700000000008c
:100bb0001e02780014427800e04f5200efff3a0026
:100bc0000080fa00000006000000fa00b410800067
:100bd00066026200e60f520002003a00e410800054
:100be00003003700e5108000f40f2000048262004b
:100bf000040078000080fa00000006000200fa00fd
:100c0000000f780000000000c510800004202000c4
:100c100004826200e00f5200fbff3a00b410800033
:100c200066026200e60f520003003a001e027800de
:100c3000d410880003003700f40f20001e02620069
:100c4000d41088000080fa00000006003200f8008e
:100c5000910188000008bb00410424006210e100fb
:100c600004003200000220000010e1000a003a00f7
:100c700051042400013b88000500fc0051052000c0
:100c8000313b8800a10a2000313b880061e7a800c1
:100c900000000000000000003200f9000000060023
:100ca0003200f80060042400003b8800f2ff3700a7
:100cb0003200f8009101880041002400013b8800c7
:100cc0000208bb00ecff37003200f80091018800f9
:100cd00051002400013b8800030120003218bb00b2
:100ce0008301e900fdff3a00e3ff37003200f8001e
:100cf000910188008002780062004000e080480096
:100d00003549ba003204e0000410a7001000320098
:100d10008301e9000e0032002549ba003204e000e8
:100d20000410a7000a0032008301e9000800320025
:100d30000408a300eeff320015c9ba003204e00037
:100d40000410a700020032008301e900e8ff3a0026
:100d50003200f9000000060003f0a200889fbe00e8
:100d60008a9fbe008c1f7800190107002001330004
:100d70006450e1004f0032006420e1005200320074
:100d800003826c0007003b000905d0000306d00079
:100d9000820f54000c065d00020039000200320090
:100da00089017800030678008582550004003d0023
:100db0000003fd008103fd008502ea008b854200ef
:100dc000840f720002003b0060001000e0801800f9
:100dd0006011b8000005eb007a28e1000a00390034
:100de00006007800c75ddd00f707b2008780750058
:100df0002d003700828171000a01780061056000d2
:100e00008180d1000080d3008502e900f9ff3b001a
:100e1000060440008784480002003b006004140080
:100e2000e0841c000988a300070032008a81710059
:100e300082817100610164008904d1000884d300bb
:100e40008b05e800170037000978a30013003a006b
:100e50000b00e000130034008b05e9000804440097
:100e600089844c000a4474000978a3000d003a00fc
:100e70000b00e000070034008b05e9000804440083
:100e800089844c0001003a000b0020000978a3007f
:100e9000f7ff32000001eb00020037008281710091
:100ea0000a0178008f0007000cf0a70001f0a000f5
:100eb000d80037006420e10002003a00838f6c0004
:100ec000d80033000801be000200be00d100370088
:100ed000889fbe008a9fbe008c1f7800bc00070060
:100ee000c300330003866c006450e1002e00320022
:100ef0006420e100330032006150e1002f00320035
:100f00006120e1003100320085855500eb07b0001b
:100f100009002000080420000500370008044400f0
:100f200089844c000a0031000603430087834b008c
:100f30000001530081815b00f8ff33000203be0013
:100f40000800a0000804440089844c00f6ff390022
:100f5000c639dd0083017300010032001300200058
:100f60008904d1000884d3000998a3000500320049
:100f70000800a7000300a0008904d1000884d30062
:100f80008b05e8008904d1000884d3000001eb0040
:100f90000281d2005300070001f0a1000cf0a7006d
:100fa00001f0a0009b0037006420e1009d003200aa
:100fb0000801be000200be00f7ff37006120e1001b
:100fc000980032006000b800f3ff370000002000f6
:100fd00001f82700f0ff3700f4ff2f00ca003700a8
:100fe0000001be00650007000470a70003f0a10027
:100ff0006509b100160032000d0035006828e100d7
:1010000006003500f0ff2f00f1ff27000300e0008d
:1010100013003b0001002800000005000000400014
:10102000818048008502e900fcff3a000800370093
:10103000f88f420002003c008000eb000000050039
:101040008100d1000080d3008502e800fcff3a0057
:101050000300e00002003b0060001000e080180088
:10106000000006000001be00440007000470a70055
:1010700003f0a10003f8a30013003a006509b100d2
:1010800010003200090035006928e1000200350037
:101090000100280000000500000040008180480099
:1010a0008502e900fcff3a0000000600f88f4200cc
:1010b000050035008100d1000080d3008502e800e2
:1010c000fcff3a00000006008000eb000000050075
:1010d0004f89de0082017800a60037006011b80059
:1010e000b400370081002000618055000b003d00f6
:1010f0000b00200061fe2f000100e1001d00340004
:1011000082817100610164008904d1000884d300e8
:101110000000e800faff3a0071002000610064005e
:101120000300700002006000090032006104440006
:10113000e0844c000988a500050032008b05e8001a
:101140006808e10002003a008904d1000884d30055
:10115000f20f20000258e10005003d00c75ddd00f0
:10116000f907b200898075000800780000000600c9
:101170000bf827008b00780000000500c70ade008e
:10118000f107b200f50fb20008003200e1cf4200d3
:10119000020032000170a00024000500810f7000e1
:1011a000010032000408050044000500810f7000b2
:1011b00002003a00140005008502e900000040002a
:1011c00081c04800fcff3b000170a0002400050026
:1011d0000004be00e9ff07000003be000405be00d6
:1011e0000200be00e5ff0700844f75000000060006
:1011f0000200be006450e100050036006420e100fa
:10120000020036000968a30001003a000800be0091
:101210000160a0004f0678004f05be004f04be00dd
:1012200000000600f0ff2f00f1ff2700f9ff370054
:10123000889fbe008a9fbe008c1f7800e4ff0700d5
:10124000ebff330003866c006450e10024003200a1
:101250006420e100270032006150e10022003200ea
:101260006120e100210032008b854200eb07b100d4
:101270000134b800003ab8000804420089844a00ea
:10128000013ab8000030b8008880400009014a00e7
:101290000400330000004000818048000201490042
:1012a0008b05e900c909dd008301700001003200ef
:1012b00013002000c814de004814dd004709de00da
:1012c0001200b200c808de000884700085ff070025
:1012d00001f0a1000cf0a70001f0a000cdff370045
:1012e0006120e100cfff32000801be000200be0015
:1012f000f7ff37006150e100fcff3a00c9ff3700fb
:101300000001eb005a003700889fbe008a9fbe0094
:10131000841f7800aeff07004f00780011003300f3
:10132000f0ff2f00838f6c0006003b000405650072
:101330000a00a7000800370009f0a60010002000ee
:1013400008003700820f5400838f5c0003003900cf
:101350001000200001003e000000200009f0a7005e
:101360000000ea004f05be004f04be000000e00090
:1013700000000600881f7800030478000300e000e6
:1013800007003d0060001000e080180060011900b7
:10139000e081190002003b0001f02d00030037003e
:1013a0000400070008f0a70001f0a0004f04780037
:1013b00000000600889fbe008a9fbe000082700069
:1013c0000402710004827100260032000004be0095
:1013d0000200be006011b8006b09200095022000d9
:1013e0000182cf000a0039000541b1000082cf0020
:1013f000070039000541b1000982cf00040039001f
:101400000541b1000882cf00010039000541b1005b
:1014100005425200120032000a003b008281710036
:10142000610164008100d1000080d3008984d30071
:101430000884d3008b05e8000442e800f7ff3a0077
:10144000070037000804440089844c00000048006d
:10145000818048008b05e9000442e900f9ff3a0069
:1014600020ff07004f05be004f04be00000006002d
:10147000889fbe008a9fbe008c9fbe0082057800b8
:101480000004be003dff07000800be006420e1002c
:101490000700390002003a00f1ff2700f0ff2f009b
:1014a0000160a00012022000f24f880055003700b2
:1014b0006120e10003003a000b00a70001f82300bf
:1014c0005000370001f0a1000200210093642400c5
:1014d000500007000800be0004003500b2fd2000e7
:1014e000930c24004d0007000004be000005eb0033
:1014f0000b00a6004f0dde0001f0a1000004be00ad
:1015000032982f0023ea230049ff07000001eb0077
:1015100003f023000b00a70003f823000ffe0700d1
:10152000affe07000000a7000a00a200e8fe0700c7
:101530000b00e000030032000200200003f0230053
:1015400005fe070001f0a2000006be000200200018
:101550009304240036ff07000801be00fffd0700ca
:10156000809fbe000c00be0022a22a00d3a7230049
:101570002fff07004f01be00f8fd07000004be006a
:1015800001f0a100020020000398230021000700c1
:101590000800be00190035000001be0024ff07004e
:1015a0000006be00b2c52900e362230020ff070049
:1015b00022222b00f3942b00e8fd07000c01be0053
:1015c0001bff0700e273280083c02300e3fd070030
:1015d0000c01be0016ff070042aa2a00a3e22b005e
:1015e000defd07000c01be0011ff07000801be0070
:1015f0000fff07000801be00d8fd07000a00a70082
:1016000001f0a2004f06be004f05be004f04be0011
:1016100000000600140020003bff370004002000fb
:1016200000003700889fbe008a9fbe008c1f780094
:101630004f26dd00e6fe0700edfe33006120e100ed
:10164000430032006250e10041003e003e0039009c
:101650006420e1003c003200058255000f003b0091
:101660000402e80038003a00800f5300818f5b00cd
:10167000350034000800be0003f0a10001f0a60010
:1016800003f0a0000cf0a700b4fd0700e1fe370056
:101690000603430087834b000c46460000055300b9
:1016a00081855b00020033000a03be000c00a0002d
:1016b0000402e900f6ff3b008505780006024300be
:1016c00087824b0004003a006000b80009f0a700d0
:1016d00001f0a000cffe37000002520081825a00c4
:1016e0000704e000040033000603430087834b0037
:1016f0008b05e900faff3700090578000604be00f3
:101700000203be006011b80076fe0700e00f520031
:10171000e08f5a000700350002003c000c08a300cf
:10172000040032000601be0003f0a0000cf0a70088
:101730008afd07000a85680001f0a1000af0a700f1
:1017400001f0a000b3fe37000800be00b1fe370074
:10175000100220000cf0a600f04f8800b1fe370008
:1017600006c2b3000002780004007800b04278009e
:1017700086cf5200fbff3200e9cf5200f9ff320062
:10178000d6c2b30086cf520003003a0000027800b0
:1017900016c0b300050037000043eb00b7c2b3002a
:1017a00087cf520001003a00000278000000eb00f1
:1017b000020037006a00b90000804200b402fb005a
:1017c0000503b100e98f5200faff3600e04f5300e5
:1017d000010032000000ea0000000600889fbe0001
:1017e0008a9fbe008c9fbe00800578000204be0068
:1017f000010678000200be00cfe6de0001003700df
:10180000840578000c01be00090107000b02e80006
:10181000e00f5000e08f5800f9ff3a00004aeb005b
:101820000c01be000800be00110107000045780051
:101830000c01be000800be00fd0007000004be0051
:10184000e94f5500010034006745450004c3b3006b
:1018500084554500e00f5400e08f5c00f0ff3a0033
:101860000b0078004f06be004f05be004f04be00bf
:1018700000000600881f780000047800e00f510087
:10188000e08f590006003d0008007800d4c2b30084
:101890000458780060011100e08119000100370050
:1018a00008007800cdff0700080078004f0478009a
:1018b000000006000002780002003700315a78006c
:1018c0000201e900e00f5100fcff3a0000000600b1
:1018d0000002780002003700015a78000201e90096
:1018e000e00f5100fcff3a00000006000003780002
:1018f00004192000110009000483d80014002000fe
:10190000e08f50000b003200e30263000002eb00a6
:10191000848f520007003a0044062000110009009d
:101920000483d80001f0a7008100ea000102ea0068
:101930004f22de00040078000000060014bf2000e3
:101940000480b90014442f00000042004406200027
:10195000110009000480d80000000600881f7800ec
:10196000000478004243de00041920001100090041
:101970000484d8000002780005002000060342001d
:10198000e0834a00d21620000241b800060341005d
:101990008783490044062000110009000484d80010
:1019a0008002780005005300e0805b004f0478005f
:1019b00000000600889fbe008a9fbe000004be0093
:1019c000020578000900e800dcff07000a05400076
:1019d0000b002000e18f54000a0036000800780058
:1019e000c2ff07002400200005002000e00f500087
:1019f00002003200140020000500200004055500fc
:101a000085855d000800e900d4ff0700000045005f
:101a100081804d004f05be004f04be00000006004f
:101a2000889fbe008a9fbe008c9fbe000004780085
:101a3000d8049000a5fb2f00898242000080eb00b3
:101a40008080eb00e4102000848f520032003e00c2
:101a5000c07620000080440038019000c80090004b
:101a6000d4ff07000006be00120020008000eb003b
:101a7000207b2000cfff07000005560081855e0017
:101a800072002000030020000a00be005900070079
:101a900064004000e0804800720020000300200045
:101aa0005400070060049800b076200000804400d5
:101ab000aaff07000c06e900000656007c04980007
:101ac00082012000030020000a00be006b00070016
:101ad00028029000cfa2de000000420081804a0070
:101ae000c2032000030020006400070018029000d9
:101af000cfa2de000000420081804a00c203200025
:101b0000030020005d00070018027800cfa2de006d
:101b10000000420081804a004f06be004f05be0013
:101b20004f04be0000000600000278008402780026
:101b3000050278000043eb00b44f1300fbff3a00ae
:101b400031427800845a7800e04f5200fcff3a009e
:101b500000000600000278008042eb00b4cf1200c3
:101b6000fdff3a000080ea0000004200000006008d
:101b700080027800050278000043eb00b54f1300a7
:101b8000fcff3a00010037000201e900e00f5100bc
:101b900005003200b1427800055a7800e0cf5200cb
:101ba000f9ff3a0000000600024a78000000060033
:101bb0000b00370030427800e04f52000300320043
:101bc0000201e900b14f5200050032000480fb0021
:101bd000954278008582fb00050050000000060059
:101be00081027800e00f5100f2ff3a000200780015
:101bf00000000600811f78000100e00002003d00a7
:101c000060001000e08018000300e00002003d00ca
:101c100060011100e0811900150007004f00e0008d
:101c200002003b0060001000e08018000000060089
:101c30006022b800060220000000d0008180d2009f
:101c40000482d2008582d2000000a000020252006d
:101c500083825a00030031000202420083824a005c
:101c60000000a1000603e900f3ff3a0000000600af
:101c7000efff07000400be0000000600020ab900e2
:101c8000001bb9000200b80081004200810043003f
:041c9000000006004a
:020000040000fa
:101c9400475400006f730000504d000055200000b1
:101ca40041000000504800007a0000002d2c000084
:101cb400002a00002c0000002b2c0000002c000047
:101cc400004d0000312c00004f4600002c000000a5
:101cd400526500007365000074210000005200008a
:101ce400656200006f6f00007465000064210000ed
:101cf4000046000061630000746f00007279000008
:101d04002044000065660000617500006c740000ea
:101d14007321000000530000656e0000736f000023
:101d240072200000526500007365000074210000f9
:101d340000470000546f0000735000004d55000030
:101d440021200000536500006e7300006f720000d4
:101d54002049000044230000200000002c20000043
:101d6400534e000023200000002c000020520000ed
:101d740065760000200000002e000000504800009e
:101d8400415300004f5200002d5600003100000066
:101d9400414e0000414c00004f470000310000005c
:101da400477200006964000054720000616b000017
:101db400504d000055210000002c0000205300006d
:101dc400656e0000736f000072200000494400003b
:101dd40023200000002c00002046000057200000b3
:101de4005265000076200000002e00003000000044
:101df4002c200000647300005049000043330000ad
:101e04003046000033300000313300002c20000045
:101e140000200000487a000000500000487a0000ca
:101e24004366000067000000436f00006e66000018
:101e340069670000205300006176000065640000bb
:101e4400207400006f200000504d00005521000058
:101e5400004300006f6e0000666900006720000008
:101e640046610000696c0000656400002100000008
:101e740024470000505200004d4300002c00000095
:101e8400202d000020470000505300002054000083
:101e9400696d0000653a000020000000202d00005c
:101ea400205000004d550000205300004f43000017
:0c1eb4003a200000002000002b0000007d
:020000040000fa
:101ec0000800fa00604798000002eb00040f780059
:101ed000d1e2a80004c02f00f507200014079800e5
:101ee000250798000002eb0003022000228b20004f
:101ef0001e009000ae0090007cfb07001e029000c8
:101f0000ae0290000403be000602b0000780b000dd
:101f10000002eb0003022000228d20000600be001c
:101f200072fb07001e029000ae0290000403be0088
:101f30000604b0000780b0000002eb00030220009e
:101f4000228f20000600be0068fb07009545800038
:101f5000b4498000848f520003003a006e42900022
:101f6000e24f52009d003a00b44980009445880039
:101f7000c4498000a44588000002eb00b4458800f5
:101f80000042eb0004407800b8e8b700c4c3b300d7
:101f900004407800b9e8b70084002000d4458800e8
:101fa0000002eb00e44588000002eb00f4458800e5
:101fb0000002eb000446880024022000144688003a
:101fc000e48227002446880034062f003446880027
:101fd00024252a00550020004446880055468800e4
:101fe000a4d0200064468800c40020007446880005
:101ff0008413200084468800020220001e00900006
:10200000ae00900011fb0700053b80000400280093
:1020100004826200e00f5200fbff3a00248b200094
:10202000040178001e009000ae00900026fb07001f
:10203000053b80000400280004826200e00f52008b
:10204000fbff3a000042eb0004407800d2e8b70002
:102050000042eb0004407800d3e8b70064002000a1
:10206000a44688000002eb00b44688000002eb00a2
:10207000c4468800b4272900d44688000402200002
:10208000e446880004c82000f44688000002eb0003
:10209000044788000002eb00040f780008003700b6
:1020a0009e0278006882420084024200248d200053
:1020b000048242008002eb00050a78001e0fe8004f
:1020c0001e027800e70f5200f5ff34001e02900058
:1020d000ae0290000402b0000580b00002022000b1
:1020e0000400be00d9fa0700053b80000400280068
:1020f00004826200e00f5200fbff3a00268d2000b0
:102100001e029000ae0290000402b0000580b000f4
:10211000060178000400be00ebfa0700053b8000d2
:102120000400280004826200e00f5200fbff3a0026
:1021300004242400f500200094478800a547880067
:10214000020120008000eb00608f2000e0fd07000e
:10215000a2002000a1e42800608f2000d5fd070028
:10216000a400200034488800a20020008000eb007a
:1021700080902000d6fd07001e029000ae02900065
:102180000404b0000580b000020220000400be007c
:10219000aefa0700053b80000400280004826200bc
:1021a000e00f5200fbff3a00268f20001e02900035
:1021b000ae0290000404b0000580b0000601780073
:1021c0000400be00c0fa0700053b800004002800a0
:1021d00004826200e00f5200fbff3a000002eb00b5
:1021e00003022000228b20001e009000ae00900011
:1021f000befa07001e029000ae0290000403be006b
:102200000602b0000780b0000002eb0003022000cd
:10221000228d20000600be00b4fa07001e029000c6
:10222000ae0290000403be000604b0000780b000b8
:102230000002eb0003022000228f20000600be00f7
:10224000aafa0700d1e2a9000080fa000000060007
:102250000400fa00d1e2a800b44980009445880047
:10226000848b200014427800e24f520003003600b5
:1022700014c0b30004407800b8e8b70004c02f00d1
:10228000f5072000048fbe00020220001e00be00e1
:102290006efa0700053b80000400280004826200fb
:1022a000e00f5200fbff3a00248b2000040178006d
:1022b0001e00be0084fa0700053b800004002800d1
:1022c00004826200e00f5200fbff3a00020220008d
:1022d000030020003e024100ae82490002022000bd
:1022e0000400be0059fa0700053b800004002800e6
:1022f00004826200e00f5200fbff3a00268d2000ae
:1023000002022000030020003e024100ae8249008c
:10231000060178000400be006bfa0700053b800050
:102320000400280004826200e00f5200fbff3a0024
:1023300006042000070020003e024300ae824b004e
:10234000020220000400be0040fa0700053b8000a6
:102350000400280004826200e00f5200fbff3a00f4
:10236000268f200002042000030020003e024100ce
:10237000ae824900060178000400be0052fa070050
:10238000053b80000400280004826200e00f520038
:10239000fbff3a00d1e2a9000080fa00000006002d
:1023a0000000fa00a1e2a9000082eb0044158800b9
:1023b000dec2a800e0c2a900d302a800d502a9008d
:1023c000d322a800d522a900c602a800c802a900ed
:1023d000c622a800c822a900c642a800c842a90077
:1023e000c662a800c862a900c682a800c882a90067
:1023f000c6a2a800c8a2a900c6c2a800c8c2a90057
:10240000c6e2a800c8e2a900c702a900cb02a90041
:10241000c722a900cb22a900de82a800dea2a90063
:10242000cda2a900cdc2a800de42a800de62a900ac
:10243000cde2a900d1e2a9000080fa000000060068
:102440000000fa008c00a9008e00a9008ee0a9000f
:102450008200a9008400a900a40480000400a10057
:102460000410a0000420a000a40488000080fa004a
:10247000000006000000fa0005e1a9008c60a90038
:10248000b4468000040888008460a900a404800089
:1024900004c0a00004d0a10004e0a000a4048800af
:1024a00025088000f4fc2f000482620024088800c4
:1024b000958b200095427800c4c3b30084cf5200ae
:1024c00067003a00a44680006123b8000082eb0058
:1024d0008082eb000602420087824a00d60120007b
:1024e00007002000860f5200878f5a0057003e00d9
:1024f000046001001d00370021003700250037006f
:10250000290037002d003700310037004f00370019
:102510004e0037004d003700320037004b003700c7
:1025200035003700490037004800370037003700d2
:1025300046003700450037004400370043003700ad
:102540003700370041003700400037003f003700b8
:102550003e0037003d0037003c0037003b003700ad
:102560003a0037003900370032003700e4342c00dd
:10257000d446880004012000e4468800800037002b
:10258000340d2300d446880004022000e44688006d
:102590007b003700d4932400d44688000402200036
:1025a000e446880076003700741a2600d446880076
:1025b00004022000e44688007100370014a12700bf
:1025c000d446880004022000e44688006c003700ee
:1025d000b4272900d446880004022000e44688007d
:1025e0006700370084d02300d4468800040320000d
:1025f000e446880062003700d4932400d446880063
:1026000004032000e44688005d003700c4b82500bc
:10261000d446880004032000e446880058003700b0
:1026200014a12700d446880004032000e446880053
:1026300053003700a4712b00d44688000403200007
:10264000e4468800000000004d003700a4712b0014
:10265000d446880004032000e44688004800370080
:10266000958b20009542780024c3b30084cf52009c
:1026700043003a00a44680006123b8000082eb00ca
:102680008082eb000602420087824a008601200019
:1026900007002000860f5200878f5a0033003e004b
:1026a00004600100180037001c0037002f003700bd
:1026b0002e0037001e0037002c0037002b0037009b
:1026c0002a003700290037001e0037002700370096
:1026d000260037002500370024003700230037008c
:1026e0002200370021003700200037001f0037008c
:1026f0001e0037001d0037001c0037001b0037008c
:102700001a00370014003700f4a52e00d4468800c4
:1027100004012000e44688001900370074a9230052
:10272000d446880004022000e446880014003700e4
:10273000f42d2900d446880004022000e4468800d5
:102740000f003700d4932400d446880004032000ef
:10275000e44688000a003700a4712b00d4468800a4
:1027600004032000e446880005003700a4712b0014
:10277000d446880004032000e446880000000000de
:10278000d446800014088800e546800024088000b4
:1027900004827200240888000002eb00544a88007a
:1027a0008c60a80005e1a8000080fa000000060087
:1027b0000000fa000002eb00940888000002eb0021
:1027c000140a88000002eb00340a88008c20a9005b
:1027d0008420a9008c80a9008480a900b404800012
:1027e0000400a1000410a0000420a000b40488008c
:1027f000a40480000440a1000450a0000460a000d4
:10280000a404880024002000340a88006492200078
:102810008002eb00050a7800649220008002eb0041
:1028200015029800649220008002eb0025029800b7
:10283000649220008002eb003502980034002000f2
:10284000140a8800e49220008002eb00050a780058
:10285000e49220008002eb0015029800e492200030
:102860008002eb0025029800e49220008002eb0039
:10287000350298003446800074088800f4458000d2
:102880005408880084e0a9000002eb00744a880024
:10289000b404800004c0a00004d0a00004e0a000a4
:1028a000b40488008ce0a80013e1a8008c80a80084
:1028b0008c20a8000080fa00000006002a00fa0020
:1028c000889fbe008a9fbe00006f9800d44580009c
:1028d00068026200e00f520001003200d1e2a8005d
:1028e000820220008000eb000e007800f8fb070059
:1028f0000e00780097fc07000002780004024700f1
:102900004200200041e5280004007800e9fb0700b0
:102910000e6a9000e04f520009003a000e00780065
:102920008cfc0700000278000402470032002000ff
:1029300081e5280004007800defb07001400370062
:102940000e6a9000e14f520009003a000e00780034
:1029500080fc0700000278000402470032002000db
:10296000b1e5280004007800d2fb0700080037001a
:102970000e00780077fc0700000278000402470090
:1029800032002000e1e5280004007800c9fb0700c0
:10299000844a8000954a80000403be006102420020
:1029a000e0824a00844a8800954a8800a1002000fd
:1029b0000601be00e0962000aefb07000002780092
:1029c000840078000e00780057fc0700948b2000ec
:1029d000144278000482fb00050020000400be00c1
:1029e000bef907000002be0002002500337c24006f
:1029f0000400be000efa07000002be00020025001f
:102a0000338c24000400be0009fa07000002be0057
:102a10000404be00a49120001402be000400be0005
:102a2000aef907000002be000401be000800be00af
:102a300027f907000002be00044b8800154b8800f0
:102a4000e4458000cfa2de000400be00a0f907002c
:102a50000003be00044b8000154b80000401be0043
:102a60000600be00bdf807000002be00044b88004f
:102a7000154b88000e00780036fc07000002780035
:102a8000040247002200200011e62800040078001c
:102a900088fb0700044b8000154b80000400be003b
:102aa0004ff907000002be00a10020000401be0093
:102ab000e09620006ffb0700000278008400780099
:102ac0000e00780018fc0700f44680000500200086
:102ad0000400be0081f907000004be001449800014
:102ae000050020000400be007cf907000002be00c3
:102af000b2fd2000930424000400be00ccf90700be
:102b00000002be000405be00a49120001402be0015
:102b10000400be0071f907000002be000401be00ff
:102b20000a00be00eaf807000002be000400be0072
:102b3000f3f907000002be000401be000800be0059
:102b4000e3f807000002be00244b8800354b8800e4
:102b50000e007800fffb0700000278000402470027
:102b60002200200011e628000400780051fb070035
:102b7000244b8000354b80000400be0018f907008c
:102b80000002be00a10020000401be00e09620006b
:102b900038fb070000027800840078000e007800ff
:102ba000e1fb0700249120001402be000400be00d7
:102bb0004af907000004be00144980000500200007
:102bc0000400be0045f907000002be00020020001c
:102bd000030024000400be00bdf807000002be0090
:102be0000401be000800be005bf807000002be0042
:102bf0000404be00a49120001402be000400be0024
:102c000036f907000002be000401be000800be0045
:102c1000aff807000002be0002002000433b240082
:102c20000400be0082f907000002be00444b880089
:102c3000554b8800444b8000554b8000020020001b
:102c4000432b24000400be0043f807000002be002e
:102c5000444b8800554b8800444b8000554b800006
:102c600018c0b30002002000433324000400be005b
:102c7000d9f8070000027800e00f520001003c0084
:102c80000044eb00e04f540009003200444b800048
:102c9000554b800002002000433b24000400be008e
:102ca0002df807000002be00444b8800554b8800f9
:102cb000444b8000554b800002002000a3472400b5
:102cc0000400be005af907000002be00444b880011
:102cd000554b88000e0078009efb0700000278002c
:102ce000040247002200200011e6280004007800ba
:102cf000f0fa0700444b8000554b80000400be00f2
:102d0000b7f807000002be00a10020000401be00c9
:102d1000e0962000d7fa07000002780084007800cf
:102d20000e00780080fb07000e00780089fb07008a
:102d300000027800040247002200200011e628006b
:102d400004007800dbfa0700a44a8000b54a80003e
:102d5000a10020000401be00e0962000c5fa070093
:102d600000027800840078000e0078006efb0700f7
:102d70000e00780077fb070000027800040247008d
:102d80002200200011e6280004007800c9fa07009c
:102d9000c44a8000d54a8000a10020000401be0082
:102da000e0962000b3fa0700000278008400780063
:102db0000e0078005cfb07000e00780065fb070042
:102dc00000027800040247002200200011e62800db
:102dd00004007800b7fa07000e02780004007800bb
:102de0005ff607000e0078005afb0700000278002b
:102df000840278000e0278008500780004007800d4
:102e00007004070000027800644b8800644b800067
:102e100005002000010120000401be00e096200012
:102e200094fa070000027800040078004cf60700ce
:102e30004c040700d445800068026200e00f520095
:102e400001003200d1e2a9004f05be004f04be00d0
:102e50000080fa00000006002c00fa00889fbe00e7
:102e60008a9fbe00206f9800d445800068026200ef
:102e7000e00f520001003200d1e2a8000e82e8000b
:102e8000420220008000eb000400780090fa070066
:102e90000002eb00040f7800a4cab3002447980096
:102ea00014c0b300344798000042eb004447980038
:102eb00064c2b30054479800a44580004822de0055
:102ec0000442780064479800a445800004427800da
:102ed00074479800a44a8000b54a8000482ade0062
:102ee0000500200004427800044f9800a64a8000a4
:102ef000b74a800004002000f50f2000060078008b
:102f0000070378008403780005027800070060005a
:102f10000402630005002000c022dd000400200040
:102f20000403be006102b8000403730085837300cc
:102f3000403ade000500200004427800144f98005b
:102f4000a64a8000b74a800004f02f000500200048
:102f500006007800070378008403780005027800f3
:102f6000070060000402630005002000c022dd00ad
:102f7000040020000403be006102b80004037300d3
:102f800085837300c838dd004832de00048270009b
:102f9000c83ade0004427800244f9800a44a80001a
:102fa000b54a800004427800344f9800c44a80003b
:102fb000d54a8000482ade0005002000044278003f
:102fc000444f9800c64a8000d74a80000400200081
:102fd000f50f2000060078000703780084037800ce
:102fe000050278000700600004026300050020006d
:102ff000c022dd00040020000403be006102b8000e
:103000000403730085837300403ade00050020004e
:1030100004427800544f9800c64a8000d74a800086
:1030200004f02f0005002000060078000703780058
:103030008403780005027800070060000402630042
:1030400005002000c022dd00040020000403be00b3
:103050006102b8000403730085837300c838dd0083
:103060004832de0004827000c83ade000442780074
:10307000644f9800c44a8000d54a8000044278001a
:10308000744f98000042eb00045798000042eb0098
:1030900014579800f4468000050020000400be008c
:1030a0000ef807000004be0014498000050020004f
:1030b0000400be0009f807000002be00b2fd2000b7
:1030c000930424000400be0059f807000002be006b
:1030d0000405be00a49120001402be000400be003e
:1030e000fef707000002be000401be000a00be0099
:1030f00077f707000002be000400be0080f807005a
:103100000002be000401be000800be0070f7070008
:103110000002be00244b8800354b8800249120001b
:103120001402be000400be00ecf707000004be005d
:1031300014498000050020000400be00e7f70700e6
:103140000002be0002002000030024000400be00b4
:103150005ff707000002be000401be000800be00c9
:10316000fdf607000002be000404be00a49120008a
:103170001402be000400be00d8f707000002be0023
:103180000401be000800be0051f707000002be00a7
:1031900002002000433b24000400be0024f8070086
:1031a0000002be00444b8800554b8800444b800011
:1031b000554b800002002000432b24000400be0079
:1031c000e5f607000002be00444b8800554b88001e
:1031d000444b8000554b800018c0b3000200200013
:1031e000433324000400be007bf707000002780090
:1031f000e00f520001003c000044eb00e04f54009f
:1032000009003200444b8000554b80000200200032
:10321000433b24000400be00cff607000002be00be
:10322000444b8800554b8800444b8000554b800030
:10323000b2fd2000930424000400be00fcf7070048
:103240000002be0002002000433324000400be0040
:103250001ff707000002be00444b8800554b880052
:10326000640220000e02420042002000419620002d
:10327000040078008ff907001e6a90002457980018
:103280000e6a9000345798007e6290004457980070
:103290006e62900054579800640220000e024200b3
:1032a00042002000819620000400780081f9070088
:1032b0001e6a9000645798000e6a90007457980038
:1032c0007e629000045f98006e629000145f980028
:1032d000844a8000954a800061024200e0824a00f0
:1032e000844a8800954a8800948b20001442780014
:1032f0000482fb00050020000400be0077f70700f1
:103300000002be0002002500338c24000400be0031
:10331000c7f707000002be000404be00a49120000d
:103320001402be000400be006cf707000002be00dd
:103330000401be000800be00e5f607000002be0062
:10334000044b8800154b8800e4458000cfa2de00c6
:103350000400be005ef707000002be000200240069
:10336000c36124000400be00d9f607000002be00bd
:103370000403be00044b8000154b80000401be0016
:103380000600be0075f607000002be00044b880070
:10339000154b8800640220000e024200420020000b
:1033a000019620000400780042f907001e6a900090
:1033b000245f98000e6a9000345f98007e6290004f
:1033c000445f98006e629000545f98000042eb00ea
:1033d000645f98000042eb00745f98000042eb00cd
:1033e000046798000042eb00146798000042eb006d
:1033f000246798000042eb00346798000042eb001d
:10340000446798000042eb00546798000002eb000c
:10341000040f78000c0037000000000075108000d9
:103420000420200004826200e00f5200fbff3a00fb
:103430000e82e8001e024200144278000482fb0063
:10344000841088001e0fe800340220009e027800dd
:10345000848f5200f0ff34000e82e8004102200009
:1034600004007800d702070000027800644b88004f
:10347000000000007510800004202000048262001b
:10348000e00f5200fbff3a00644b80004822de0050
:10349000044278000482fb008410880000000000d1
:1034a000751080000420200004826200e00f5200aa
:1034b000fbff3a00644b8000044278000482fb006a
:1034c00084108800d445800068026200e00f52003a
:1034d00001003200d1e2a9004f05be004f04be003a
:1034e0000080fa00000006003600f800809fbe0051
:1034f000829fbe00849fbe00869fbe00889fbe0044
:103500000000fa0004478000610262000442780073
:10351000e04f52006a003200540880006121b80078
:10352000744a80006123b800344680000500200002
:1035300004b8b9000000780006acb9008800780033
:103540000100400006037800040278000432b8004d
:1035500005004000800278000202420083824a0097
:1035600026912000048bbe00d54580000400240075
:1035700004826200e00f520001003200d1e2a80094
:103580000002eb00544a8800b4468000040888001a
:103590008460a900a44a8000b54a8000610242000c
:1035a000e0824a00a44a8800b54a8800e4498000c5
:1035b000f549800061024200e0824a00e449880047
:1035c000f5498800d44980000402e800d449880005
:1035d0000447800062026200e00f520021003200c6
:1035e000e4498000f54980000403be00a44a80003d
:1035f000b54a8000840f5300858f5b0007003600ba
:10360000e4498000f5498000a44a8800b54a880052
:1036100014002000d449880012003700e4498000db
:10362000f54980000403be00a44a8000b54a80002a
:10363000840f5300858f5b0004003a0035488000fa
:10364000d4498000848f520006003e00e449800087
:10365000f5498000a44a8800b54a8800140020007b
:10366000d44988006022b800c44a8800d54a88003e
:103670000494200014427800e24f520003003a0004
:1036800010c0b300f4fd07000600370004942000ca
:1036900014427800e14f520002003a0010c0b3001b
:1036a00086fc0700348d20001442780068426200d6
:1036b000e04f520008003200180a070006003700e9
:1036c000d54580000400240004826200e00f52000f
:1036d00001003200d1e2a8008400a900d545800095
:1036e0000400240004826200e00f52000100320056
:1036f000d1e2a9000080fa004f04be004f03be00d3
:103700004f02be004f01be004f00be003600f90060
:10371000004006003600f800809fbe00829fbe0079
:10372000849fbe00869fbe00889fbe000000fa00f6
:10373000540880006121b800744a80006123b800f9
:10374000344680000500200004b8b900000078006d
:1037500006acb9008800780001004000060378003c
:10376000040278000432b8000500400080027800ae
:103770000202420083824a00c44c8800d54c880073
:10378000d54580000404200004826200e00f52004e
:1037900001003200d1e2a8008460a900544a8000f0
:1037a0000402e800544a8800948b200014427800f8
:1037b0008482fb00a4468000110009008482d800a6
:1037c0000002780084027800544a8000848f5200fe
:1037d0003b003600c44c8000d54c80002691200070
:1037e000048bbe0094478000a54780000400be0003
:1037f0003af607000004be00544a8000050020008d
:103800000400be0035f607000002be000401be0041
:103810000800be0086f607000002be000404be00d9
:10382000a4468000050020000400be002bf607001f
:103830000002be000401be000800be007cf60700c6
:103840000002be000404be00948b200014427800e5
:103850000482fb00050020000400be001ff60700e4
:103860000002be000401be000800be0098f507007b
:103870000002be000400be00faf507000002be0010
:10388000c44a8800d54a8800049420001442780075
:10389000e24f520003003a000040eb006efd0700cb
:1038a0002b0037000494200014427800e14f5200ae
:1038b00027003a000040eb0000fc0700240037001e
:1038c0000447800061026200e00f520020003a00cd
:1038d000c44c8000d54c800026912000048bbe0093
:1038e000a44a8000b54a800061024200e0824a009a
:1038f000a44a8800b54a8800a44a8000b54a8000de
:10390000e4498800f54988006022b800c44a88006c
:10391000d54a88000002eb00544a88000494200035
:1039200014427800e24f520003003a0020c0b30076
:1039300049fd070006003700049420001442780077
:10394000e14f520002003a0020c0b300dbfb070049
:10395000044780006102620004427800e04f520098
:1039600001003200544a8000d54580000404200044
:1039700004826200e00f520001003200d1e2a9008f
:103980000080fa004f04be004f03be004f02be008d
:103990004f01be004f00be003600f9000040060097
:1039a000841f78000000fa00744a80000402e800d6
:1039b000744a880084e0a9000080fa004f02780071
:1039c00000400600849fbe00869fbe000000fa00f3
:1039d000540880006123b8004446800055468000aa
:1039e0000602420087824a00a6912000048bbe0096
:1039f000f445800054088800d5458000040022006a
:103a000004826200e00f520001003200d1e2a800ff
:103a1000d445800070026200e00f520001003200c5
:103a2000d1e2a8000002eb00744a88008420a900bb
:103a3000d445800070026200e00f520001003200a5
:103a4000d1e2a9000080fa004f03be004f02be0081
:103a5000004006003600f800809fbe00829fbe0036
:103a6000849fbe00869fbe000000fa0054088000bc
:103a700014498800d54580000400220004826200b9
:103a8000e00f52001a003200d1e2a90034e628000b
:103a90000400780032f3070024498000050020006c
:103aa000a10020000401be00f09a200071f7070079
:103ab000000278000400780029f3070014e62800cb
:103ac0000400780026f30700744a800005002000f7
:103ad000a10020000401be00f09a200065f7070055
:103ae00000027800040078001df307001d010700a4
:103af000d54580000402200004826200e00f5200dd
:103b000001003200d1e2a800a49120001403be00fd
:103b100014498000050020000403530085835b00e6
:103b200024498000050020000602420087824a00e6
:103b3000a6912000240398003503980014498000c2
:103b4000244988008480a900d54580000402200013
:103b500004826200e00f520001003200d1e2a900ad
:103b60000080fa004f03be004f02be004f01be00ae
:103b70004f00be003600f900004006000000fa00c9
:103b80000002eb00641088000cc2a9000ca2a9007e
:103b90000d42a8000002eb00741088000fe2a9009b
:103ba0000f62a9000e22a90074468000a4108800ac
:103bb000c40480000440a0000450a0000460a000e1
:103bc000c4048800c40480000480a0000490a10004
:103bd00004a0a100c40488008d20a8000de2a80064
:103be0000f42a8000080fa00000006000000fa0062
:103bf00034488000d4498800020520008000eb0092
:103c00000080200032f70700020520008000eb0052
:103c1000008520002ef707000002eb00b41088009a
:103c200016c2a90016a2a9000002eb00c410880069
:103c300019e2a9001962a9001822a900844680008f
:103c4000f4108800040580000400a1000410a10005
:103c50000420a00004058800040580000440a000a2
:103c60000450a1000460a100040588008f00a80092
:103c700017e2a8001942a8000080fa000000060020
:103c80000400fa00100798000002eb00040f78000f
:103c900002003700000000001e0fe8001e02900026
:103ca0009e027800848f5200faff35000080fa00ef
:103cb000000006000000fa008609070010c0b300eb
:103cc00069000700ca02a900ca22a900ca42a900c5
:103cd000ca62a9005b0037004416800061026200de
:103ce000e00f5200170032004416800062026200aa
:103cf000e00f52000400320014c0b300044078000a
:103d000040e9b7000300370024c0b3000440780046
:103d100040e9b700441680004222de0061426200a2
:103d20000482fb00040242008402780044168000f2
:103d30004322de00614262000482fb0004824200f2
:103d400004478800d4458000610262000442780084
:103d5000e04f520001003200d1e2a800d4458000bb
:103d6000e00f520001003a00d1e2a900bb040700b5
:103d700004942000144278000482fb00c50f200048
:103d8000850f52001c003200c50f2000850f520025
:103d900025003400d50f2000850f520004003200aa
:103da000e50f2000850f52000a0032001f00370087
:103db0000040eb002c000700a4e628000400780077
:103dc00067f2070067000700803e2000acff070095
:103dd0001600370010c0b3002300070014e72800c6
:103de000040078005ef207005e000700803e2000bd
:103df000a3ff07000d00370020c0b30030f8070014
:103e0000b4e728000400780055f2070055000700c9
:103e1000803e20009aff0700e4cfb3000440780002
:103e200040e9b7000100370000000000d4458000e1
:103e30006102620004427800e04f5200010032004b
:103e4000d1e2a9000494200014427800e14f42001e
:103e5000a1ff3a00370007000002eb0004007800e1
:103e60000080fa00000006000200fa00004f78000f
:103e70004bf907001e427800e14f520002003a0061
:103e80000040eb000ef8070045f907003bff070074
:103e900056ff070077f9070045fa070068f90700a1
:103ea000848b2000144278000440780040e9b70079
:103eb0008c00a8000447800061026200e00f5200fd
:103ec00001003a0005e1a8006022b800844a880099
:103ed000954a8800007d200069ff0700d4e828008b
:103ee000040078001ef2070014c0b30004407800fc
:103ef00040e9b70004478000044278006142620054
:103f000061426200614262000482fb006102620061
:103f10004822dd0056168000f5ef2f008502630071
:103f20000482720054168800cb22a9000080fa0097
:103f3000000006000000fa0041f9070018f9070028
:103f4000c702a800c722a800de62a800dea2a8005f
:103f5000dec2a800cdc2a800cde2a8000080fa0011
:103f6000000006000000fa0000000000751080004c
:103f70000420200004826200e00f5200fbff3a00a0
:103f8000344a80004822de00044278000482fb00ac
:103f900084108800000000007510800004202000bc
:103fa00004826200e00f5200fbff3a00344a8000b6
:103fb000044278000482fb00841088000080fa002c
:103fc000000006000c00fa00400798005107980016
:103fd0000082eb00040f78000002eb001407980049
:103fe000200037001e027800c822de004e03900039
:103ff0001e02900004024300144278000482fb0079
:1040000004826a00240798001e0278004822dd001e
:10401000040f78002e029000c422de002e029000d1
:1040200004826a00340798003e0290001e0f6a0066
:104030003e0290004522dd00340798003e029000c9
:104040001e0f6a003e0290004722dd0034079800f0
:104050003e0290001e0f6a001e0290000402e8005b
:10406000140798009e0290005e029000848f520018
:10407000dcff39001e027800040078000080fa009e
:10408000000006008e00fa000002eb00040f78002a
:10409000a4cab3002447980014c1b3003447980061
:1040a0000042eb004447980004c4b3005447980012
:1040b000a44580004822de0004427800644798004e
:1040c000a44580000442780074479800a44a800008
:1040d000b54a8000482ade0005002000044278002e
:1040e000044f9800a64a8000b74a800004002000d0
:1040f000f50f20000600780007037800840378009d
:10410000050278000700600004026300050020003b
:10411000c022dd00040020000403be006102b800dc
:104120000403730085837300403ade00050020001d
:1041300004427800144f9800a64a8000b74a8000d5
:1041400004f02f0005002000060078000703780027
:104150008403780005027800070060000402630011
:1041600005002000c022dd00040020000403be0082
:104170006102b8000403730085837300c838dd0052
:104180004832de0004827000c83ade000442780043
:10419000244f9800a44a8000b54a80000442780069
:1041a000344f9800c44a8000d54a8000482ade0077
:1041b0000500200004427800444f9800c64a800061
:1041c000d74a800004002000f50f20000600780088
:1041d0000703780084037800050278000700600078
:1041e0000402630005002000c022dd00040020005e
:1041f0000403be006102b8000403730085837300ea
:10420000403ade000500200004427800544f980038
:10421000c64a8000d74a800004f02f000500200025
:104220000600780007037800840378000502780010
:10423000070060000402630005002000c022dd00ca
:10424000040020000403be006102b80004037300f0
:1042500085837300c838dd004832de0004827000b8
:10426000c83ade0004427800644f9800c44a8000d7
:10427000d54a800004427800744f9800e40520007d
:104280000e024200020320008000eb0004007800d0
:104290008ff50700e40520000e02420004007800bc
:1042a0002cf6070000027800e50520008e8242000f
:1042b0000482420052012000b1e928000400780085
:1042c0007cf50700a445800005002000a100200027
:1042d0000401be00009c200066f507008002780003
:1042e000e40520000e0242008500780004007800fa
:1042f0000df60700e40520000e02420004007800dd
:1043000014f6070000027800e50520008e824200c6
:10431000048242007200200001eb280004007800b3
:1043200064f50700c4498000050020000101200059
:104330000401be00009c20004ef5070080027800ba
:10434000e40520000e024200850078000400780099
:10435000f5f50700e40520000e0242000400780095
:10436000fcf5070000027800e50520008e8242007f
:10437000048242007200200071eb280004007800e3
:104380004cf50700b4498000050020000101200021
:104390000401be00009c200036f507008002780072
:1043a000e40520000e024200850078000400780039
:1043b000ddf50700e40520000e024200040078004d
:1043c000e4f5070000027800e50520008e82420037
:1043d0000482420022002000e1eb28000400780063
:1043e00034f507000e82e8006e024200e505200069
:1043f0008e824200020320008500780004007800cd
:104400002cf507000002eb00040f78000c003700c9
:10441000000000007510800004202000048262006b
:10442000e00f5200fbff3a000e82e8001e0242003d
:10443000144278000482fb00841088001e0fe800fc
:10444000d40320009e027800848f5200f0ff3400d5
:104450000e82e800e103200004007800d9fe070086
:1044600000027800644b8800000000007510800096
:104470000420200004826200e00f5200fbff3a009b
:10448000644b80004822de00044278000482fb0076
:1044900084108800000000007510800004202000b7
:1044a00004826200e00f5200fbff3a00644b800080
:1044b000044278000482fb00841088000080fa0027
:1044c000000006007200fa0000f798000002eb00fe
:1044d000140798000002eb00040f78006402470004
:1044e000c20520008000eb0004007800f8f407000b
:1044f000a4cab300444798000ef0900050479800bb
:104500000042eb0064479800e4c5b300744798008c
:10451000a44580004822de0004427800044f980041
:10452000a445800004427800144f9800a44a8000fb
:10453000b54a8000482ade000500200004427800c9
:10454000244f9800a64a8000b74a8000040020004b
:10455000f50f200006007800070378008403780038
:1045600005027800070060000402630005002000d7
:10457000c022dd00040020000403be006102b80078
:104580000403730085837300403ade0005002000b9
:1045900004427800344f9800a64a8000b74a800051
:1045a00004f02f00050020000600780007037800c3
:1045b00084037800050278000700600004026300ad
:1045c00005002000c022dd00040020000403be001e
:1045d0006102b8000403730085837300c838dd00ee
:1045e0004832de0004827000c83ade0004427800df
:1045f000444f9800a44a8000b54a800004427800e5
:10460000544f9800c44a8000d54a8000482ade00f2
:104610000500200004427800644f9800c64a8000dc
:10462000d74a800004002000f50f20000600780023
:104630000703780084037800050278000700600013
:104640000402630005002000c022dd0004002000f9
:104650000403be006102b800040373008583730085
:10466000403ade000500200004427800744f9800b4
:10467000c64a8000d74a800004f02f0005002000c1
:1046800006007800070378008403780005027800ac
:10469000070060000402630005002000c022dd0066
:1046a000040020000403be006102b800040373008c
:1046b000858373004838dd004832de000402700054
:1046c000c83ade000442780004579800c44a8000cb
:1046d000d54a80000442780014579800944780001f
:1046e000a5478000482ade0005002000044278002b
:1046f0002457980094478000a547800006002000ba
:10470000f70f20008400780085027800060078000a
:10471000070278000080600004826200050020002b
:10472000c022dd00040020000403be006102b800c6
:104730000403730085837300403ade000500200007
:10474000044278003457980094478000a5478000c1
:1047500006f02f0007002000840078008502780012
:104760000600780007027800008060000482620082
:1047700005002000c022dd00040020000403be006c
:104780006102b8000403730085837300c838dd003c
:104790004832de0004827000c83ade00044278002d
:1047a0004457980094478000a54780000442780051
:1047b000545798000042eb006457980014c0b300af
:1047c00074579800640247007402420002012000fe
:1047d000618f20000400780036f40700a4458000b3
:1047e0004822de0004427800046f9800a44580004f
:1047f00004427800146f98000042eb00246f980088
:10480000f4c0b300346f98000042eb00446f98008e
:1048100014c0b300546f98000042eb00646f98001e
:1048200014c0b300746f98000042eb000477980046
:104830000042eb0014779800040620000e024200ac
:10484000020120008000eb000400780020f4070043
:10485000040620000e024200a200200001ec280005
:104860000400780013f4070064024700e402b0007b
:10487000050620008e82420002012000850078009b
:10488000040078000bf40700040620000e0242002a
:10489000020120008000eb00040078000cf4070007
:1048a000040620000e02420082002000a1ec280035
:1048b00004007800fff3070064024700e403b0003f
:1048c000050620008e82420002012000850078004b
:1048d00004007800f7f307000042eb0024d79800ab
:1048e0000042eb0034d798000042eb0044d7980018
:1048f0000042eb0054d7980024c0b30064d798005e
:104900000042eb0074d798000042eb0004df9800ef
:104910000042eb0014df98000042eb0024df980017
:10492000958b20009542780024c3b30084cf5200b9
:10493000030032000042eb0034df98000200370031
:1049400014c0b30034df98000042eb0044df98004d
:104950000042eb0054df9800948b20001442780052
:104960008482fb00a4468000110009008482d800e4
:1049700000027800140798001e0290004822de0012
:104980000442780064df98001e0290000442780020
:1049900074df98000002eb00040f78000c00370071
:1049a00000000000751080000420200004826200d6
:1049b000e00f5200fbff3a00640247001e02420073
:1049c000144278000482fb00841088001e0fe80067
:1049d000b40520009e027800848f5200f0ff34005e
:1049e00064024700c10520000400780075fd07003f
:1049f00000027800644b8800000000007510800001
:104a00000420200004826200e00f5200fbff3a0005
:104a1000644b80004822de00044278000482fb00e0
:104a20008410880000000000751080000420200021
:104a300004826200e00f5200fbff3a00644b8000ea
:104a4000044278000482fb00841088000080fa0091
:104a5000000006000000fa000042eb00044078006d
:104a600040e9b7003ffd070024ed2800040078006e
:104a70003bef0700f4ed28000400780038ef070052
:104a8000a445800005002000a10020000401be0014
:104a9000009c200077f307000002780004007800f3
:104aa0002fef070004eb2800040078002cef07002c
:104ab000c449800005002000010120000401be005f
:104ac000009c20006bf307000002780004007800cf
:104ad00023ef0700d4ee28000400780020ef070041
:104ae000b449800005002000010120000401be003f
:104af000009c20005ff307000002780004007800ab
:104b000017ef070074ef28000400780014ef070087
:104b1000a4ef28000400780011ef0700948b200018
:104b2000144278000482fb0005002000a100200050
:104b30000401be00009c20004ef307000002780034
:104b40000400780006ef0700b4f0280004007800a5
:104b500003ef070003fd07000080fa0000000600d5
:104b60002400fa000002eb00040f78000002eb00c2
:104b700014079800fbfc0700f4f0280004007800fc
:104b8000f7ee0700f7fc07000002eb00140798009f
:104b9000580037001e029000e10f52000f00320053
:104ba000e20f520018003200e00f520021003a00dc
:104bb00064024700020220008000eb00040078003d
:104bc00043f307006402470002022000218b20000b
:104bd0000400780037f3070016003700640247002e
:104be000020220008000eb000400780038f3070088
:104bf0006402470002022000218d2000040078009a
:104c00002cf307000b00370064024700020220006b
:104c10008000eb00040078002df3070064024700d9
:104c200002022000218f20000400780021f30700f9
:104c3000000000000002eb00040f78000c003700b9
:104c40000000000075108000042020000482620033
:104c5000e00f5200fbff3a00640247001e024200d0
:104c6000144278000482fb00841088001e0fe800c4
:104c70001e027800ff0f5200f1ff36006402470069
:104c80000102200004007800cefc0700000278003a
:104c9000644b880000000000751080000420200094
:104ca00004826200e00f5200fbff3a00644b800078
:104cb0004822de00044278000482fb008410880051
:104cc00000000000751080000420200004826200b3
:104cd000e00f5200fbff3a00644b80000442780072
:104ce0000482fb00841088001e0290000402e80089
:104cf000140798001e029000e20f5200a5ff340036
:104d00000080fa00000006002600fa000002eb0016
:104d1000040f78000002eb00140798000002eb007b
:104d2000240798000002eb00140798004b0037009e
:104d30000002eb00040f78000b00370000000000b9
:104d40007410800061026200e00f5200fcff32002c
:104d50009410800004427800e60247009e824200e0
:104d6000844a78001e0fe8001e027800ff0f5200f0
:104d7000f2ff340000000000741080006102620045
:104d8000e00f5200fcff3200941080004822dd004a
:104d9000644b880000000000741080006102620013
:104da000e00f5200fcff320095108000f40f20004d
:104db00084826200644b800004824200644b88005d
:104dc0006602470001022000040078007dfc070015
:104dd00000027800654b8000850f52001c003a00ed
:104de0001e029000e10f52000a003200e20f520052
:104df0000e003200e00f520012003a006602470037
:104e00000202200084007800208b2000a9f2070015
:104e10000c00370066024700020220008400780080
:104e2000208d2000a3f2070006003700660247002d
:104e30000202200084007800208f20009df20700ed
:104e4000000000002e0290000402e80024079800f1
:104e50001e0290000402e800140798001e02900051
:104e6000e20f5200b2ff34003efc07002e02900019
:104e7000e20f520005003a00f5f4070064f1280043
:104e80000400780036ee070003003700b4f2280073
:104e90000400780032ee070032fc0700007d20009d
:104ea00077fb070010c0b300effb07000080fa009b
:104eb000000006000200fa00004f78001e40780053
:104ec0000082fb006123b900f4f92f00f5ff2f00e9
:104ed0000602420087824a003601200007002000b7
:104ee000860f5200878f5a0057003e000460010071
:104ef00013003700180037001b0037001e00370072
:104f00002100370024003700280037005000370008
:104f10004f0037002a0037002e0037004c003700c2
:104f20003100370035003700390037003d003700c9
:104f30004700370046003700450037003e00370085
:104f40000002eb00d44588000042eb0004407800ea
:104f5000d3e8b7003f003700d44580000400a0002c
:104f6000d44588003b003700d44580000410a000e1
:104f7000d445880037003700d44580000430a000b5
:104f8000d445880033003700d44580000440a00099
:104f9000d44588002f003700d5458000040220004a
:104fa00004827200d44588002a003700d54580006d
:104fb0000404200004827200d445880025003700d4
:104fc000d54580000420200004827200d44588006a
:104fd00020003700d5458000044020000482720084
:104fe000d44588001b003700d5458000040021000f
:104ff00004827200d445880016003700d545800031
:105000000400220004827200d44588001100370099
:10501000d54580000400240004827200d445880035
:105020000c003700d545800004002800048272007f
:10503000d44588000700370084c0b30004407800de
:10504000d3e8b7000300370000000000010037007c
:10505000000000000080fa00000006000e00fa00c8
:105060000002eb00040f78000042eb002447980098
:105070000042eb00344798000042eb0044479800a0
:105080006022b80034079800450798006022b800f5
:105090005407980065079800049420001442780093
:1050a000e34f520002003a00c3030700010037003b
:1050b000ca020700449e200014427800e04f5200cc
:1050c000ae023200d4458000e00f520005003200ed
:1050d000d54580000440200004826200e00f5200a9
:1050e00001003200d1e2a8008d20a900f4c9bf0060
:1050f000204798000042eb0004407800f4e9b70034
:105100000042eb0004407800e4e9b700848b200003
:10511000144278000440780041e9b700ae429000a4
:10512000a4cab30084cf520065013a000000000019
:105130007410800061026200e00f5200fcff320038
:105140009410800044479800000000007410800014
:1051500061026200e00f5200fcff320094108000f8
:105160004822dd00044c880000000000741080001c
:1051700061026200e00f5200fcff320095108000d7
:10518000f40f200084826200044c800004824200fc
:10519000044c88000000000074108000610262006e
:1051a000e00f5200fcff3200941080004822dd0026
:1051b000144c88000000000074108000610262003e
:1051c000e00f5200fcff320095108000f40f200029
:1051d00084826200144c800004824200144c8800d7
:1051e000000000007410800061026200e00f5200b5
:1051f000fcff32009410800005002000c822dd0072
:1052000004002000340798004507980000000000c3
:105210007410800061026200e00f5200fcff320057
:10522000941080006123b800f40f200005002000d6
:1052300006007800070378008403780005027800f0
:10524000070060000402630005002000c022dd00aa
:10525000040020000403be006102b80004037300d0
:1052600085837300c032dd00040020003e039000ff
:10527000ce0390000602420087824a00340798005d
:105280004507980000000000741080006102620071
:10529000e00f5200fcff3200941080000500200057
:1052a000482bdd00c823de00870373004823dd00a0
:1052b000f4ff2f00050020000600780007037800a7
:1052c0008403780005027800070060000402630090
:1052d00005002000c022dd00040020000403be0001
:1052e0006102b80004037300858373003e029000de
:1052f000ce0290000402430085824b0034079800e0
:1053000045079800000000007410800061026200f0
:10531000e00f5200fcff3200941080006123b800bf
:10532000f40f200005002000060078000703780035
:10533000840378000502780007006000040263001f
:1053400005002000c022dd00040020000403be0090
:105350006102b80004037300858373003e0290006d
:10536000ce0290000402430085824b00340798006f
:10537000450798000447800061026200e00f520078
:10538000040032000447800062026200e00f520015
:1053900005003a003e029000ce029000a44a880028
:1053a000b54a88000100370000000000741080003a
:1053b00061026200e00f5200fcff32009410800096
:1053c00005002000c822dd000400200054079800da
:1053d0006507980000000000741080006102620000
:1053e000e00f5200fcff3200941080006123b800ef
:1053f000f40f200005002000060078000703780065
:10540000840378000502780007006000040263004e
:1054100005002000c022dd00040020000403be00bf
:105420006102b8000403730085837300c032dd009d
:10543000040020005e039000ee039000060242008c
:1054400087824a0054079800650798000000000012
:105450007410800061026200e00f5200fcff320015
:105460009410800005002000482bdd00c823de00da
:10547000870373004823dd00f4ff2f0005002000a0
:10548000060078000703780084037800050278009e
:10549000070060000402630005002000c022dd0058
:1054a000040020000403be006102b800040373007e
:1054b000858373005e029000ee02900004024300b8
:1054c00085824b0054079800650798000000000093
:1054d0007410800061026200e00f5200fcff320095
:1054e000941080006123b800f40f20000500200014
:1054f000060078000703780084037800050278002e
:10550000070060000402630005002000c022dd00e7
:10551000040020000403be006102b800040373000d
:10552000858373005e029000ee0290000402430047
:1055300085824b0054079800650798005e02900032
:10554000ee029000c44a8800d54a8800000000009e
:105550007410800061026200e00f5200fcff320014
:10556000941080004822dd00244c880000000000d8
:105570007410800061026200e00f5200fcff3200f4
:1055800095108000f40f200084826200244c80007b
:1055900004824200244c880004012000040f78009b
:1055a0000a003700000000007410800061026200f1
:1055b000e00f5200fcff320094108000044278009b
:1055c0000440780086e9b7001e0fe800044c800014
:1055d0000482e9009e0f5200f2ff3e00000000002e
:1055e0007410800061026200e00f5200fcff320084
:1055f000941080004822dd00644b88000000000009
:105600007410800061026200e00f5200fcff320063
:1056100095108000f40f200084826200644b8000ab
:1056200004824200644b8800ce42900014c4b30050
:1056300084cf520041013a00244c80006123b8001d
:105640000082eb008082eb000602420087824a0063
:105650004600200007002000860f5200878f5a0066
:1056600038013e00046001000400370007003700e5
:105670000a0037000b0037000d0037000042eb0036
:105680000440780040e9b7003301370024c0b3007c
:105690000440780040e9b7002f01370079fa07008d
:1056a0002d01370010c2b30086fb07002a01370026
:1056b00010c3b30083fb0700000000002601370081
:1056c000ae42900004c4b30084cf520022013a00dd
:1056d000000000007410800061026200e00f5200c0
:1056e000fcff320094108000444798004e42900026
:1056f0000482fb006123b900f4fd2f00f5ff2f00a9
:105700000602420087824a000604200007002000ab
:10571000860f5200878f5a000c013e000460010082
:10572000420037000b0137004800370009013700fd
:10573000080137000701370006013700050137006f
:10574000040137004900370002013700010137002a
:10575000000137004d003700fe00370056003700cb
:10576000590037005c0037005f003700f900370050
:10577000f8003700f7003700f6003700f500370073
:1057800061003700f3003700f2003700f100370006
:10579000f0003700ef003700ee003700210037003f
:1057a0006b003700910037009500370099003700f3
:1057b000a6003700e7003700bd003700e5003700de
:1057c000e4003700e3003700e2003700e100370073
:1057d000e0003700df003700de003700dd00370073
:1057e000dc003700db003700b3003700d90037009a
:1057f000d8003700d7003700b1003700b6003700b7
:10580000b9003700d3003700d2003700d10037008d
:10581000d0003700cf003700ce003700cd00370072
:10582000bc0037008bfc0700cb003700049420003d
:10583000144278000440780041e9b700c4cfb300b7
:105840000440780040e9b700c3003700049420000a
:10585000144278000440780041e9b700e4cfb30077
:105860000440780040e9b700bb00370004942000f2
:10587000144278000440780041e9b700d4cfb30067
:105880000440780040e9b700b30037000002eb00a5
:10589000544a88000002eb00040888000000000061
:1058a0007410800061026200e00f5200fcff3200c1
:1058b0008400a900a80037000042eb0004407800f3
:1058c00040e9b700a400370014c0b30004407800da
:1058d00040e9b700a000370024c0b30004407800be
:1058e00040e9b7009c00370004942000144278007f
:1058f0000440780041e9b70034c0b30004407800a8
:1059000040e9b700940037000000000074108000e8
:1059100061026200e00f5200fcff3200951080002f
:10592000f40f200004826200a446880048f20700b9
:1059300004942000144278000440780041e9b70044
:10594000e4cfb3000440780040e9b700820037009c
:10595000000000007410800061026200e00f52003d
:10596000fcff3200941080004822dd00a44588002e
:10597000000000007410800061026200e00f52001d
:10598000fcff3200a545800096108000f40f200037
:105990000402630004824200a44588000000000065
:1059a0007410800061026200e00f5200fcff3200c0
:1059b000941080004822dd00b445880000000000fb
:1059c0007410800061026200e00f5200fcff3200a0
:1059d000b545800096108000f40f2000040263009b
:1059e00004824200b44588005b0037000042eb00af
:1059f0000440780040e9b700c3fc070056003700b8
:105a00000042eb000440780040e9b70054fc070076
:105a10005100370000000000741080006102620035
:105a2000e00f5200fcff3200941080000442780026
:105a300004407800b9e8b70005f20700e4cfb300ee
:105a40000440780040e9b700430037000000000040
:105a50007410800061026200e00f5200fcff32000f
:105a6000941080004822dd00e4458800000000001a
:105a70007410800061026200e00f5200fcff3200ef
:105a8000e44580008402780096108000f40f200026
:105a90000402630004824200e4458800ecf1070040
:105aa000e4cfb3000440780040e9b7002a00370093
:105ab0001a01070028003700e5f10700260037002b
